:020000040000FA
:100000006004002041120000750900008D07000007
:100010008D0700008D0700008D0700008D07000090
:100020000000000000000000000000008D0700003C
:100030008D070000000000008D0700008D07000004
:1000400091230000632400001924000027230000EE
:1000500091230000632400001924000027230000DE
:1000600091230000632400001924000027230000CE
:1000700091230000632400001924000027230000BE
:1000800091230000632400001924000027230000AE
:10009000FF210000E32000000A0A00003C0A0020C3
:1000A00010320000000000006C0A002080320000C6
:1000B00000000000DC0900203031000000000000DA
:1000C0000C0A0020A031000000000000AC09002054
:1000D000C0300000000000004001A1004001A1006C
:0C00E0004001A100400035004000350048
:020000040000FA
:1000EC0040EA01039B0703D009E008C9121F08C0AE
:1000FC00042AFAD203E011F8013B00F8013B521E2E
:10010C00F9D27047D2B201E000F8012B491EFBD2A4
:10011C0070470022F6E710B513460A460446194606
:10012C00FFF7F0FF204610BD30B504460020034613
:10013C0000E05B1C934203D2E05CCD5C401BF8D02A
:10014C0030BD00F0004230F000400AD0C10D01F586
:10015C006071C0F3160042EA0151C2084007114316
:10016C00704700200146704730B50B460146002011
:10017C002022012409E021FA02F59D4205D303FA5D
:10018C0002F5491B04FA02F52844151EA2F10102DE
:10019C00F1DC30BD2DE9F05F0546002092469B4610
:1001AC0088460646814640241BE028464146474681
:1001BC00224600F0E8F953465A46C01A914110D332
:1001CC0011461846224600F0CFF92D1A67EB0108AC
:1001DC004F4622460120002100F0C6F917EB00091A
:1001EC004E41201EA4F10104DFDC484631462A466C
:1001FC004346BDE8F09F2DE9FE4F804681EA03009F
:10020C00C00F0C46009021F0004123F00045B8EBE4
:10021C000200A94105D24046214690461C460B4699
:10022C00024623F00040104347D0270DC7F30A00C5
:10023C00C3F30A510290401A019040286BDAC3F3C1
:10024C00130040F4801B0098924620B10023D2EB9F
:10025C00030A63EB0B0B01985946C0F14002504660
:10026C0000F082F906460D4650465946019A00F0B8
:10027C009AF910EB08006141002487EA115284EAD4
:10028C00E7731A4340D0009A62B3019A012A4FEAED
:10029C00075215DC001B61EB02014FF0004202EA31
:1002AC000752CDE90042001C41F5801132462B4625
:1002BC0000F09AF903B0BDE8F08F40462146F9E70B
:1002CC00001B61EB0201001C41F5801300185B411F
:1002DC002018A2F5001747EB030140EAD570B619B8
:1002EC006D4111E06D084FEA360645EAC0754FEADC
:1002FC000752001B61EB0201001C41F580114908FB
:10030C004FEA30000019514132462B4603B0BDE88C
:10031C00F04F00F05AB90098012240000023D0EBB6
:10032C00020263EBE073009821464FEAE074B8EBED
:10033C00000061EB0401E9E783F000435BE781F027
:10034C00004158E72DE9FE4F81EA030404F0004414
:10035C0021F0004100944FF0000B23F0004350EAD1
:10036C0001045ED052EA03045BD0C3F30A54C1F318
:10037C000A552C44A4F2F3340194A0FB0254C1F3AB
:10038C00130141F48011C3F3130343F4801301FBF5
:10039C00024400FB034E840A970A44EA815447EA5C
:1003AC008357A4FB076802958D0A05FB07854FEA66
:1003BC00932C04FB0C542705029D4FEA065847EA80
:1003CC001637B5EB08056EEB070C870E920E47EA55
:1003DC00811742EA8312A7FB0201B6EB0B0164EB17
:1003EC0000042B0D43EA0C335E1844EB1C50DA4628
:1003FC005146E7FB0201C5F313044FEA0B3343EA02
:10040C0014534FEA0432019C43EA0603A4F10C0492
:10041C000294009CCDE900B400F0E6F803B0BDE80E
:10042C00F08F00200146F9E72DE9F04D81EA030435
:10043C0004F0004B21F0004514464FF0000A23F065
:10044C00004150EA050220D054EA01021DD0C5F348
:10045C000A570246C5F31303C1F31300C1F30A563E
:10046C0040F4801543F48013A7EB0608101BD64606
:10047C0008F2FD3873EB050002D308F1010801E026
:10048C0092185B41B8F1000F03DA00200146BDE879
:10049C00F08D00204FF48011064684460EE0171BA9
:1004AC0073EB050705D3121B63EB050306434CEAFC
:1004BC00010C49084FEA300092185B4150EA0107E1
:1004CC00EDD152EA030012D082EA040083EA05015E
:1004DC00084305D0101BAB4106D20122002306E0D5
:1004EC0000224FF0004302E06FF0010253101AEBB0
:1004FC0006004CEB085110EB0A0041EB0B01BDE878
:10050C00F04D00F062B8C1F30A52C1F3130140F28E
:10051C00FF3341F480119A4202DA00200146704701
:10052C0040F233439A42A2F2334202DC524200F0D0
:10053C002AB800F019B8000030B5041E71F100049F
:10054C0004DB4FF00044404264EB0101141E73F1D4
:10055C00000405DB1C464FF00043524263EB0403DE
:10056C00994208BF904230BD202A04DB203A00FAA1
:10057C0002F1002070479140C2F1200320FA03F3EE
:10058C00194390407047202A04DB203A21FA02F0EC
:10059C000021704721FA02F3D040C2F120029140B1
:1005AC00084319467047202A06DBCB17203A41FA3C
:1005BC0002F043EAE07306E041FA02F3D040C2F1E4
:1005CC002002914008431946704710B5141E73F170
:1005DC00000408DA401C41F1000192185B411A43F7
:1005EC0001D120F0010010BD2DE9F04D92469B4643
:1005FC0011B1B1FA81F202E0B0FA80F220329046E9
:10060C00FFF7B2FF04460F4640EA0A0041EA0B012D
:10061C0053465A46084313D0114653EA010019D0E9
:10062C00C8F140025046FFF7AEFF05460E46504655
:10063C0059464246FFF798FF084305D0012004E0D5
:10064C0020463946BDE8F08D0020054346EAE076A9
:10065C002C4337430A986305E40AA0EB08000022F8
:10066C00FD0A44EA47540A3002D500200146E9E766
:10067C00010510196941DDE9084500196941BDE81A
:10068C00F04DA2E710B5044600284FF0030018BF48
:10069C00002900D110BD002021606071204601218D
:1006AC00227100F0A5FE0028F4D12046072100F0AD
:1006BC009FFE0028EED12046102100F099FE002864
:1006CC00E8D101206071002010BD0000F0B581B0B0
:1006DC00054600284FF003001CBF0C46002901D131
:1006EC0001B0F0BD6879012831D128680021ADF83E
:1006FC00021070B340F6911740F69016C2F2000744
:10070C00C2F2000639703170816800680B69297972
:10071C000122984728680222816800684D680DF113
:10072C0002010023A8470028DAD14BF2C041CFF6D2
:10073C00B37100BF38780028084603D1002800F1B7
:10074C000101F7D138B1307838B11220C8E7072051
:10075C00C6E70320C4E71420C2E7BDF802009FEDF2
:10076C00071A00BA000C00EE100A0020B8EE400A7E
:10077C0080EE010A84ED000AB2E700BF9A99993F16
:10078C0000BE70472DE9F04F85B040F694178946AE
:10079C000168C2F20007904606460024384640F62F
:1007AC0004428DF80C40029400F0E8F931683846A8
:1007BC00002200F04DFA4FF47A700121012500F06F
:1007CC0082F931683846002200F0D8F9282001213E
:1007DC0000F079F9316804AA3846049500F027FA3C
:1007EC000498002840F0A08040F69414C2F2000453
:1007FC0004AF00BF316820463A46049500F017FA62
:10080C0004980028F6D040F694140125C2F2000496
:10081C0004AFCDE9009800BF316820463A460495F4
:10082C0000F005FA04980128F6D040F694144FF025
:10083C00000A012504AFC2F200040DF1080B00BF41
:10084C004FF000084FF00009316820463A460495F5
:10085C0000F0EDF904980128F6D000BF316820466D
:10086C003A46049500F0E3F904980028F6D02820C5
:10087C0001214FEA490900F026F9316820463A4631
:10088C00049500F0D4F9049801280AD13168204667
:10089C003A46049500F0CBF904980128F6D049F0BB
:1008AC00010908F10108B8F1080FCDD10BF80A9035
:1008BC000AF1010ABAF1050FC2D19DF808209DF882
:1008CC0009309DF80A009DF80B109F1807440F443F
:1008DC009DF80C60FFB2B74225D143EA0222B2EE7A
:1008EC00041A43B2BAEE042A41EA002000EE102AA0
:1008FC0001466FF3DF31B8EE400AB3F1FF3FC8BFDA
:10090C00014603EE101A31FE022AB8EE433A80EE8D
:10091C00010A83EE021A0098012480ED000A019866
:10092C0080ED001A00E00024204605B0BDE8F08FF1
:10093C0010B5A0B06C4603460AA22046802101F0F7
:10094C0021FE4FF6FF7221182252C21CFF20887024
:10095C0040F21C00C2F20000214600F033FD20B032
:10096C0010BD00BF257300002DE9F04146F22018A0
:10097C00C4F20008B8F80000B8F8201040F60015D2
:10098C0001EA0006B7B20024C2F2000527FA04F00F
:10099C00C00704D055F8241009B12046884701340B
:1009AC00102CF3D1A8F81060BDE8F081B0B543F27B
:1009BC002404C4F208040025C8200121257100F08C
:1009CC0082F8257020780028FCD1207840F00200B5
:1009DC00207000BF20788007FCD4002004F8020CA3
:1009EC0014F8020C0028FBD1002004F11C0100BFFC
:1009FC0011F8102002F07F0201F8102011F91020DC
:100A0C00002AFBD401300328F2D1012000F00BF8AE
:100A1C004EF2BB420021C4F2010201201170BDE86C
:100A2C00B04000F027B880B50122EFF3108182F3BB
:100A3C00108840F69C12C2F2000232F810308BB9CA
:100A4C004EF2FE3C43F2B403C4F2010CC0F20003BC
:100A5C00BCF800E033F8103043EA0E0343F42543AE
:100A6C00ACF8003032F81030013322F8103081F33A
:100A7C00108880BD0122EFF3108182F3108840F6BC
:100A8C009C12C2F2000232F8103023B132F810304E
:100A9C00013B22F8103032F810208AB94EF2FE3C9D
:100AAC00C4F2010C43F2B402BCF80030C0F20002F4
:100ABC0032F8100043F4254222EA0000ACF80000A2
:100ACC0081F31088704740F27C42C2F20002126837
:100ADC0001FB00F041F20021C0F27A018A420FD3EF
:100AEC0040F6FF01C0F23D0111444DF68362C4F2A1
:100AFC001B32A1FB0212110DA0FB0101E9B11FE099
:100B0C004CF60021C3F69A3148F63813C0F2410373
:100B1C00B1FBF2F1984207D24FF47A7200FB02F06B
:100B2C00B0FBF1F0800808E08900B0FBF1F09842CE
:100B3C0006D24FF47A7100FB01F028B100F075BDBC
:100B4C004FF0FF3000F071BD70477047022818BF9E
:100B5C00704740F6941042F65471C2F20000C0F295
:100B6C000001AFF3008080B545F25422C5F24F026C
:100B7C000260084601F0CAF9002080BD70B586B04D
:100B8C0001A80126049003A814460D46CDE90121C5
:100B9C00ADF80C6000F04EFD40F6A810EFF310819C
:100BAC0086F31088C2F2000002683AB940F603528C
:100BBC00C4F2080200231370402313700268013240
:100BCC00026081F31088E10340F60001C4F20801D1
:100BDC004FEA152201D4EBB20CE001EB8216EBB21A
:100BEC0056F8235025F4803546F8235024F48035EC
:100BFC0046F8235001EB8211012241F82340EFF318
:100C0C00108182F31088026812B10268013A026006
:100C1C00006838B940F60350C4F208000022027094
:100C2C008022027081F31088002006B070BD6FF036
:100C3C003F0000EA9100C9B200EB810040F60001D0
:100C4C00C4F208014058C0F3400100201160704705
:100C5C00C8B2012383409BB24FF4803C002A08BFEA
:100C6C000CFA00F34FF4FF5000EAD1010822C4F251
:100C7C00080200208B5070470146006900228270E8
:100C8C000869F023C37281F8382081F83620486A4D
:100C9C00C1E90A2091F83220002081F834207047F5
:100CAC008446C0E90F130020CCF84420704701693A
:100CBC0000228A700169F0238A7001694FF0004CA0
:100CCC00CB7280F8382080F8362090F83210436AC6
:100CDC0080F83410C0E90A23C260EFF310820121BE
:100CEC0081F31088006844F204030078C4F208030E
:100CFC0019682CFA00F008431860186882F3108801
:100D0C00002070472DE9F0410A7848F20003C4F244
:100D1C00110303EB0223024603610160D1E90203D4
:100D2C004FF0000EC2F840E04FF0010CC2E9010395
:100D3C00D1E90B0344F20405D063C4F208055364F3
:100D4C00EFF310838CF310884FF0004408782E6872
:100D5C0024FA00F026EA00002860286883F3108843
:100D6C00F02410681369406B83F802E0136940F6B5
:100D7C009C28DC728378146903F0030323701369D5
:100D8C00FA249C7143781469C2F2000863700378EA
:100D9C0014699B002033E3714379146946F20036E1
:100DAC002372C3781469C4F20006A3740079136922
:100DBC00C0000130587210692323837210694EF2FF
:100DCC00001380F80DE0087C8C69CEF20003000162
:100DDC0003F54075285548F8242056F8247003F57F
:100DEC00C07027F4803746F8247056F8247004F04D
:100DFC001F070CFA07F76409BFF35F8F40F82470E4
:100E0C0043F824700C7CC96924016C5448F82120E7
:100E1C0056F8214024F4803446F8214056F82140FD
:100E2C0001F01F040CFA04F74909BFF35F8F40F877
:100E3C00217043F8217043F24321C5F2493100205F
:100E4C00C2E908EEC2E90AEE82F835E082F836E033
:100E5C0082F837E082F838E0D160BDE8F08180B5E7
:100E6C0080F83630012301F0EAF8002080BD0346FB
:100E7C000020C3E901127047C0684CF6BD52CAF697
:100E8C00B6421044B0FA80F0420900200A70704754
:100E9C0080B580F83630002301F0D1F8002080BDF9
:100EAC000A780123934013F0060F05D00B6CDB6816
:100EBC001B781B0700F1E0802DE9F04748F2000396
:100ECC00C4F2110343EA0222D1E90E364FF00008B6
:100EDC0043628378C66223F003035E1C86704E68FF
:100EEC00026280F80080C161C0F8288016B943F016
:100EFC0002038370CF6A4EF2001C07F01F034FF001
:100F0C00010ECEF2000C0EFA03F30CF180047E09F4
:100F1C0091F8285044F82630BFF34F8F46F2003A30
:100F2C00C4F2000ABFF36F8F5AF827602A0126F427
:100F3C0080364AF827600CF540755AF82760EA5558
:100F4C004A6940F69C2902F01F06C2F200090EFA0B
:100F5C0006F6530949F827000F7C44F82360BFF3C9
:100F6C004F8FBFF36F8F5AF822303E0123F480333A
:100F7C004AF822305AF82230AE5449F82200CA6995
:100F8C000B7E02F01F060EFA06F6570944F827608E
:100F9C00BFF34F8FBFF36F8F5AF822601B0126F4FB
:100FAC0080364AF822605AF82260AB5449F8220085
:100FBC004A6A91F8203002F01F060EFA06F657091D
:100FCC0044F82760BFF34F8FBFF36F8F5AF822405E
:100FDC001B0124F480344AF822405AF82240AB54C6
:100FEC0049F82200EFF310828EF3108844F20405C6
:100FFC000B78C4F208054FF000442E6824FA03F372
:10100C0026EA03032B602B6882F31088026A82F8AD
:10101C000280026A82F80480026A82F80980026AFD
:10102C0082F80A80026A82F80B80026AA2F81A809F
:10103C000A780EFA02F340F2F932134202D0036A34
:10104C004024DC74036A06241C770B780EFA03F335
:10105C00134203D0026A4FF478439382D1E90163BF
:10106C00CA684FEAC20242EA03123EB1032E08BF1D
:10107C0042F04002F22602E00322ADE0E226036ACF
:10108C0002271A70026A002596710A6C936907EAA6
:10109C004307082B036A08BF0A275F73066AD2E965
:1010AC00013735721668DB0126F00106022EDEB21E
:1010BC0067F345160AD1036AFF275F701268022A8C
:1010CC00026A08BF46F01006D67117E0036ADE719B
:1010DC00D268036A97785F7057781E7807F0030719
:1010EC0006F0FC0637441F70D7789F74DF791278AE
:1010FC0007F0A30702F05C023A44DA710022C369DC
:10110C00C0E90322C0E90522D1F840E05B699EF8F2
:10111C0000105AF8234003F01F0524F480344AF8D9
:10112C0023405AF82340012404FA05F60CF5C07547
:10113C005B09BFF35F8F45F823604CF82360C369EC
:10114C00DB6A5AF8236026F480364AF823605AF892
:10115C00236003F01F0604FA06F65B09BFF35F8FEA
:10116C0045F823604CF82360C369DB695AF82360A7
:10117C0026F480364AF823605AF8236003F01F06E1
:10118C0004FA06F65B09BFF35F8F45F823604CF851
:10119C002360C3695B6A5AF8236026F480364AF8E8
:1011AC0023605AF8236003F01F06B4405B09BFF3B9
:1011BC005F8F45F823404CF823401C23076A63F3E8
:1011CC009F01B970DEF8141044F65513C5F2433381
:1011DC00C0E90131BDE8F0471046704703460020D6
:1011EC00C3E90512704780B5D0F820E09EF802C024
:1011FC000CF07B038EF80230837803F00303A2EB30
:10120C00030C0B44026AC0E9033C937843F080035F
:10121C009370827802F00302022A05D10988006AD1
:10122C0041F47E41C18102E00978006AC17000205E
:10123C0080BD000000F01AF800F062FEFEE74EF2EE
:10124C002000C4F201008179006840F26042C2F2D1
:10125C000002C0F3026052F8211021FA00F040F2B3
:10126C007C41C2F2000108607047000010B54EF6D8
:10127C000850CEF200004FF47001C0F8801040F21C
:10128C000001C0F20001016000200024FFF75EFCA9
:10129C0000F0E6F80120FFF759FC40F26000C2F2C2
:1012AC00000080F30A88002000F032F8FFF7C7FF37
:1012BC00FFF77CFB0320FFF7B6FB40F61050C4F29F
:1012CC0008004FF6FF7100BF20F8141001340C2CED
:1012DC00FAD10320FFF7CEFB0320FFF7A4FB042079
:1012EC00C4F20E000021016041608160C1600320E6
:1012FC00FFF7C0FB0220FFF729FC012000F008F8E3
:10130C0000F04EF90020BDE8104000F047B9000095
:10131C00F0B581B043F24405C0F200052E680446D6
:10132C0076B16868071D00BF7879844204D157E90B
:10133C000101091AFEF7EDFE013E07F10C07F3D18E
:10134C00AE6886B1E86800F1080500BF6879844290
:10135C0005D155E902022968121AFEF7C1FE013EB9
:10136C0005F11005F2D101B0F0BDD0E90001FFF795
:10137C0097BD000082B010B582B08C46044640F296
:10138C00F670CDE9042304ABC2F200004FF4807177
:10139C006246019301F010F901280EDB0246002091
:1013AC002072206840F2F671C2F20001FFF71BFFB9
:1013BC0018B900BF207A0128FCD102B0BDE810405A
:1013CC0002B0704769B162B110B5044600202072BA
:1013DC002068FFF708FF10B9207A0128FCD1BDE87E
:1013EC0010407047014651F80A0B0122FFF7F6BE78
:1013FC0070B582B0044600688DF8071058B340F6FB
:10140C00911640F69015C2F200060021C2F20005BA
:10141C0031702970816800680B6921790122984725
:10142C0020680122816800688C680DF10701002397
:10143C00A04788B94BF2C042CFF6B372317800297D
:10144C00114603D1002901F10102F7D131B12978FC
:10145C0011B1122000E0032002B070BD1420FBE794
:10146C002DE9F0414EF2FE34C4F201044AF203506D
:10147C004CF200152080C4F201050120A88000BFA9
:10148C00A8880028FCD147F200010120C4F2000119
:10149C0028808860086040F2604642F6005041F2B5
:1014AC000022C2F20006C0F23110C0F27A02C6E984
:1014BC00000243F200604FF40041C0F26E10C6E926
:1014CC0002104CF20020C0F6EB304EF220073161D6
:1014DC00C4F201077061B879396856F82000C1F37D
:1014EC00026140F27C48C840C2F20008C8F8000013
:1014FC0000206075092087F8820094F8820018B9E2
:10150C0094F88300800744D094F8820050B90120ED
:10151C0084F88200C8200121FFF7D5FA94F88200E4
:10152C000128FBD1002084F8830084F8820000207D
:10153C00B87400BF387F0007FCD543F20210388125
:10154C000020B872387F8006FCD50320287741F242
:10155C002120C2F2010038600520B871B8793968D1
:10156C0056F82000C1F30261F022C840C8F8000010
:10157C0042F20800C4F20000F12101710121017056
:10158C0002714FF42540397487F832102080BDE881
:10159C00F0814FF47A70FFF7D8FAC8E77047000073
:1015AC0070B584B048F248060320C4F20006FFF779
:1015BC003AFA6FF0FF0043F25C0430604FF0FF30FA
:1015CC000021C0F200040122CDE9020054F82130C0
:1015DC0002FA01F5002B18BFA84301311629F5D1E9
:1015EC004EF280320190002001A9CEF2000200BF21
:1015FC0051F8203006EB8005AB6242F82030013008
:10160C000328F5D10320FFF735FA46F2003100200C
:10161C00C4F2000154F820200AB141F82020013016
:10162C00162804BF04B070BDF4E701380028FCD1C3
:10163C00704700002DE9F04F81B004460088002867
:10164C005AD043F240084EF2BB4B0025C4F20808B6
:10165C000FF2AC0AC4F2010B4FF00109002700BFD6
:10166C0060685AF8272000EBC500416891423CD1D4
:10167C0000689BF8001000F0B85009FA07F6B0F1BA
:10168C00807F06EA010015D150B90120FFF7CBF994
:10169C009BF8000030438BF800000120FFF7EAF9BB
:1016AC0018F91700002820D418F8170040F0800013
:1016BC0015E000BF50B10120FFF7B5F99BF8000011
:1016CC00B0438BF800000120FFF7D4F918F917008C
:1016DC00B0F1FF3F09DC18F8170000F07F0008F8A4
:1016EC001700C8200121FFF7EEF90137032FB7D1FE
:1016FC00208801358542B1D301B0BDE8F08F00BF21
:10170C0002040000030400000404000094B040F242
:10171C003405C2F200052846FFF727FE40F21C06EE
:10172C00C2F200063046FFF720FE40F22800C2F25B
:10173C000000FFF71AFE40F21007C2F2000738460D
:10174C00FFF713FE40F20404C2F200042046FFF738
:10175C000CFE2846FFF746FE3046FFF743FE3846A0
:10176C00FFF740FE2046FFF73DFE42F6D871C0F26F
:10177C00000107C91268904738B1024640F22800B0
:10178C00C2F200000FF2E86114E040F6F80042F6F5
:10179C00D871C2F20000C0F200012322FEF772FFE2
:1017AC00002800F05783024640F22800C2F20000E5
:1017BC000FF2D861FFF7DEFD40F22809C2F20009F2
:1017CC000FF208714846FFF7D5FD4FF4FA604FF45D
:1017DC007A71FFF778F940F2984AB2EE048A40F237
:1017EC00E85540F2A25440F2F07840F2EC5BC2F2C1
:1017FC00000A0026C2F20005C2F20004C2F2000880
:10180C00C2F2000BDAF800004EF2C0110130C0F247
:10181C00E4018842CAF80000C0F0878040F2000062
:10182C00C2F2000013A912AAFEF7ACFF002873D075
:10183C009DED120A9DED132A20EE081A22EE083AAD
:10184C00BDEEC11A46F2676711EE100ABDEEC31A5F
:10185C00C6F2666750FB07F111EE102A8B1052FB93
:10186C0007F403EBD171A31003EBD47301EB8101EB
:10187C00BDEEC00A5546CA46A0EB410903EB8300F6
:10188C0010EE104ABDEEC20AA2EB400843F26A41C8
:10189C008DED000A5046C0F2000122464B4610EE78
:1018AC00106ACDF80480FFF765FD0DF1080B43F2CB
:1018BC007A5258464021C0F20002234640F2A2540C
:1018CC00CDF80090D146AA4640F2E855C2F2000489
:1018DC00C2F2000500F056FE5846FFF729F80A2020
:1018EC004FF47A71FFF7EFF843F2895258464021D2
:1018FC00C0F200023346CDF8008000F043FE58469B
:10190C0040F2EC5B40F2F078C2F2000BC2F200083D
:10191C000026FFF70DF806E043F2A0314846C0F26E
:10192C000001FFF727FDCAF8006040F23400C2F254
:10193C000000407A012840F09D8040F23400C2F251
:10194C00000040F296414672C2F20001807A09789A
:10195C0000297AD02F46254640F296444A1CC2F202
:10196C000004D3B2227040F286422C463D46102B26
:10197C00C2F20002505477D340F28640C2F200000B
:10198C00B0F8070047F2A40201BA40BAC0F63D22F3
:10199C00A0FB0204C80C7C280FD840F28442C2F28F
:1019AC0000021088013081B2108032290AD343F230
:1019BC000160C0F20000FEF7BBFF40F28440C2F2AF
:1019CC000000068002AD43F2F05228462021C0F2FE
:1019DC000002234600F0D6FD2846FEF7A9FF40F290
:1019EC008042C2F2000210780130C1B2322910706C
:1019FC0009D314204FF47A71FFF765F840F2804058
:101A0C00C2F20000067040F28242C2F2000210885C
:101A1C0040F2E855013081B240F2A254B1F5967F04
:101A2C00C2F20005C2F20004108008D30FF2C840C5
:101A3C00FEF77EFF40F28240C2F20000068040F2C8
:101A4C009640C2F2000006700EE0FE280CD140F267
:101A5C0096410120C2F20001087040F28640C2F2A9
:101A6C000000FE21017000BF40F23400C2F2000001
:101A7C00FFF7B8FC40F21C00C2F20000407A0128CB
:101A8C0020D140F21C00C2F200004672807AA0F114
:101A9C0020015E290BD8298880F070020A4318BFF8
:101AAC0001223E2903D812B14A1C2A80605440F20C
:101ABC00E450C2F20000066040F21C00C2F20000CA
:101ACC00FFF790FC288800285BD040F2E452C2F269
:101ADC00000211684CF2513301319942116050D31C
:101AEC0043F2485126544846C0F200012246FFF703
:101AFC0041FC43F2EA512046C0F200010622FEF7F7
:101B0C0013FBD8B143F2FB512046C0F20001062270
:101B1C00FEF70AFB78BB43F2DC314846C0F2000109
:101B2C00FFF728FC40F2100042F6C861C2F2000038
:101B3C00C0F200010622FFF745FC1CE043F24641CF
:101B4C004846C0F20001FFF715FC40F2100042F6C7
:101B5C00CE61C2F20000C0F200010622FFF732FC97
:101B6C0040F644110120C2F20001087040F640100A
:101B7C00C2F20000066040F2E450C2F200002E8077
:101B8C00066040F64410C2F200000078012823D110
:101B9C0040F64011C2F20001086848F28042013060
:101BAC00C0F21E029042086016D343F2B731484689
:101BBC00C0F20001FFF7DEFB40F2100042F6C061FC
:101BCC00C2F20000C0F200010822FFF7FBFB40F656
:101BDC004410C2F20000067040F21000C2F2000085
:101BEC00407A012826D140F21000C2F20000467261
:101BFC0040F2A050C2F200000088FF280FD840F23B
:101C0C00100140F2A053C2F20001421CC2F20003C8
:101C1C00897A1A8040F29C42C2F20002115440F2BE
:101C2C009C50C2F20000066040F21000C2F20000AC
:101C3C00FFF7D8FB40F2A050C2F20000018899B324
:101C4C0040F29C52C2F20002106848F2A1630130CB
:101C5C00C0F201039842106026D309291AD340F22E
:101C6C009C40C2F200000830083900BF10F8082C64
:101C7C00EF2A0BD110F8072CAA2A07D110F8032C45
:101C8C001D2A00F0B280122A00F09D80013900F16B
:101C9C000100EBD140F2A050C2F20000068040F2ED
:101CAC009C50C2F20000066040F20400C2F2000038
:101CBC00407A012824D140F20400C2F2000046729E
:101CCC0040F2F470C2F200000088B6EB502F0FD136
:101CDC0040F2040140F2F473C2F20001421CC2F261
:101CEC000003897A1A8040F2F052C2F200021154B9
:101CFC0040F20400C2F20000C8F80060FFF772FB6B
:101D0C0040F2F470C2F2000002887AB3D8F80000F6
:101D1C004CF2513101308842C8F8000026D343F20E
:101D2C0007414846C0F20001FFF724FB40F2F47B68
:101D3C00C2F2000BBBF8002040F2F0514846C2F250
:101D4C000001FFF73FFB43F227414846C0F2000178
:101D5C00FFF710FBABF8006040F2EC5B40F2F07860
:101D6C00C2F2000BC2F20008C8F80060DBF80000F9
:101D7C0048F680510130C0F25B018842CBF800007C
:101D8C00FFF440AD40F6F800C2F2000002A9029642
:101D9C00FEF79CFC40B143F2295102464846C0F282
:101DAC000001FFF7E7FA0BE00298FEF7CAF90B46C1
:101DBC0043F2625102464846C0F20001FFF7DAFADC
:101DCC00CBF800601EE510F8024CECB143F2D65093
:101DDC00C0F20000FEF7ACFD43F293414846C0F25E
:101DEC0000012246FFF7C6FA1EE010F8022C02B3DF
:101DFC0043F2B9414846C0F20001FFF7BBFA43F287
:101E0C00C150C0F2000022E030F8010C43F2DF4177
:101E1C0042BA4846C0F20001FFF7ACFA43F2AD50AB
:101E2C00C0F20000FEF784FD40F2A254C2F200049E
:101E3C0030E730F8010C43F2045142BA4846C0F284
:101E4C000001FFF797FA43F29850C0F20000FEF73A
:101E5C006FFD1FE740F22800C2F2000013A1FFF74C
:101E6C0089FAB4204FF47A71FEF72DFEA4E400BF7A
:101E7C005B4932435D206F70656E206661696C65ED
:101E8C00642C206572723D25640D0A005B4248315A
:101E9C003735305D20696E6974206661696C6564E4
:101EAC002C206572723D25640D0A00005B4248319E
:101EBC003735305D20696E6974204F4B2028616482
:101ECC0064723D30783233290D0A00000D0A3D3D15
:101EDC003D2053797374656D20426F6F74204F4BA6
:101EEC00202841646465642042483137353029210B
:101EFC00203D3D3D0D0A0000636C6520312C310006
:101F0C0080B5FFF703FC002080BD000070B50446CF
:101F1C00FFF790FB40F6A81CEFF31080012181F332
:101F2C001088C2F2000CDCF8001039B940F60351ED
:101F3C00C4F2080100220A7040220A70DCF800107A
:101F4C000131CCF8001080F31088208818B340F6CB
:101F5C00000E0021C4F2080E606800EBC10250F8BC
:101F6C0031305268DD034FEA1220D2B20BD50EEBA2
:101F7C00801555F8226026F4803645F8226023F44B
:101F8C00803645F822600EEB8010013140F822308B
:101F9C0020888142E0D30120EFF3108180F3108878
:101FAC00DCF8000020B1DCF800000138CCF80000AF
:101FBC00DCF8000038B940F60350C4F208000022E7
:101FCC0002708022027081F3108870BDB0B584B0AD
:101FDC000446806A40B1D0E900CED0E90253CDE985
:101FEC0000CECDE9025300E06846E369D4F824C082
:101FFC001B78E56AC0E90032C0E90215E047A06A27
:10200C0010B19DE82E002EC004B0B0BD4068013860
:10201C00022888BF70474FF6F871C0F2FF0101EA41
:10202C00C000012140F6901221FA00F0C2F2000229
:10203C00107040F69110C2F2000001707047D0F899
:10204C0008C0C0E90812BCF1010F08D141684FF477
:10205C00807C43EA4101A0F831C080F83010002B9D
:10206C0018BF012380F835300021C0E90A2190F80F
:10207C00322080F8341080F8332080F8371080F844
:10208C00391080F83B1090F83510B422012904BFA8
:10209C00012180F8391001698A7090F83810B1B1BB
:1020AC00002180F8381090F832103122012908BF35
:1020BC003022815C0269D17090F8331090F8342092
:1020CC00013980F83310511C80F8341070470069C6
:1020DC005121C172704710B582B0EFF3038040F606
:1020EC009C216FF35F20C2F2000101EB800050F8DD
:1020FC00404C2069C17A01F0F701C17294F83700A5
:10210C00012817D12069F021C172206C012300280D
:10211C001ABFD0E90012CDE900126846E16B626C7F
:10212C00C0E900238847206CE0B3DDE90012C0E968
:10213C00001237E094F8321094F8340081420FD139
:10214C00A06A78BB94F835000321002818BF02213F
:10215C0094F838202069012A36D10022C2723AE064
:10216C0060B194F8351002284FF000000BD1C9076C
:10217C001CBF94F8310040F0010004E0312001292B
:10218C0008BF3020205C21690022CA722169C87006
:10219C0094F8330094F83410013884F83300481C58
:1021AC0084F83400EFF3038046F2C0216FF35F2014
:1021BC00C4F2000151F8202022F4803241F8202092
:1021CC0051F8200002B010BDF022C2722069827852
:1021DC0002F0CF028270206C00281ABFD0E90023D5
:1021EC00CDE900236846626CE36BC0E90021984797
:1021FC0099E7EFF3038046F2C0216FF35F20C4F23E
:10220C00000151F8202022F4803241F8202051F8AE
:10221C002000EFF3038040F69C216FF35F20C2F2A5
:10222C00000101EB800050F8400C01690A7BD207D9
:10223C0018D190F8323090F83420934220D1826A31
:10224C00002A3ED090F83530002B47D090F839302A
:10225C00012B4DD10023012A80F8393055D08B72D7
:10226C00826A4FE090F83520012A03D190F839208A
:10227C00012A1BD100228262012280F837202AE039
:10228C0090F83530022A03D1DA0701D0522023E02E
:10229C0090F83020CA7090F8331090F8342001393F
:1022AC0080F83310511C80F8341070474979026A59
:1022BC00C36AD154D0E90A230169013A0133C0E958
:1022CC000A2390F83620012A05D15222CA72012124
:1022DC0080F8381070475420C8727047D0F820C06E
:1022EC00C36A013A1CF803C00133C0E90A2311E0A8
:1022FC004979026AC36AD154D0E90A134A1E591C9F
:10230C00C0E90A210169012A02D120228A720169DD
:10231C004FF0FF0C81F803C07047B0B5EFF30380AA
:10232C006FF35F20A0F1100540F69C20C2F2000074
:10233C0050F825008178036A01F00301022912BFCD
:10234C005979198A6FF35F211A79D40602F0380291
:10235C0003D51C7FE40708BF40321C7904F0C70486
:10236C001C71436A0BB1FFF731FE46F20030C4F228
:10237C00000050F8251021F4803140F8251050F859
:10238C002500B0BD10B582B0EFF3038040F2FC71B4
:10239C0001EA800046F2C021C4F20001425822F446
:1023AC008032425040F69C22C2F200024158104446
:1023BC0050F8404CA07800F00302206A022A12BFA9
:1023CC004179018A6FF35F21A069019198B160692D
:1023DC0001A9FDF785FEA0786169A26900F00300F0
:1023EC000144101A6161A0610ED1606A60B120468F
:1023FC000021012203E0606A30B12046042202B0C1
:10240C00BDE81040FFF7E2BD02B010BD10B5EFF310
:10241C0003806FF35F20A0F1100440F69C20C2F201
:10242C00000050F82400016A8A7802F07B028A705E
:10243C00416A19B100210222FFF7C8FD46F20030B3
:10244C00C4F2000050F8241021F4803140F824101C
:10245C0050F8240010BDEFF3038040F2FC7101EA48
:10246C00800046F2C021C4F20001425822F48032AE
:10247C00425040F69C22C2F200024158104450F8DF
:10248C00400CC1694A6B0169C2B9C1B1817801F0D4
:10249C000302C168022A05D10988026A41F47E410F
:1024AC00D18102E00978026AD1708178026901F069
:1024BC000303D11AC26801611A44C26071B9016A7E
:1024CC008A7802F07B0204328A70416A00294FF04C
:1024DC000001C1601CBF8022FFF778BD70474068C7
:1024EC00012818BF704740F23400C2F200000121ED
:1024FC00417270474068022809D0012818BF704704
:10250C0040F21C00C2F2000001214172704740F2FF
:10251C001C00C2F2000001210172704740680228C1
:10252C0018BF704740F22800C2F20000012101726E
:10253C0070474068022809D0012818BF704740F244
:10254C000400C2F2000001214172704740F2040005
:10255C00C2F200000121017270474068022809D0C4
:10256C00012818BF704740F21000C2F20000012190
:10257C004172704740F21000C2F20000012101725A
:10258C00704700000FB47CB50C0009AD01D0611E82
:10259C0000E00021CDE90001064B6A462946089867
:1025AC0000F0E6F8002C02D0009A002111707CBCDF
:1025BC005DF814FBAB2E00007CB50C001D461646D6
:1025CC00014601D0601E00E00020CDE90010064B52
:1025DC006A462946304600F0CBF8002C02D0009A0F
:1025EC00002111707CBD0000AB2E00002DE9FF5FB7
:1025FC0082B00021DDE90430020DDDF840B0034368
:10260C0018D044F61050A2F2FF3242431514119820
:10261C0001281FD0A5EB0B00401C5FEA000A4FF00D
:10262C0000064E4FDFF83891B046504615D5CAF12A
:10263C00000413E0119801244AA3012801D16FEA88
:10264C000B010298119AC0E90031C0E9024206B0B0
:10265C00BDE8F09FCBF10000DFE704460021404AC3
:10266C00491842EB0450CDE9001012E0E00707D006
:10267C0032463B4640464946FDF764FE8046894655
:10268C0032463B4610461946FDF75CFE06460F46A1
:10269C006410002CEAD1DDE90401DDE90023BAF174
:1026AC00000F06DAFDF74EFE42464B46FDF74AFE9A
:1026BC0005E0FDF7B9FE42464B46FDF7B5FE044674
:1026CC000E460022284BFDF737FF03D84FF0FF30A2
:1026DC00014607E00022254B20463146FDF78BFDD5
:1026EC00FDF711FF102409E0002C0ADB0A2200235D
:1026FC00FDF750FD039B30321A55641E50EA01025F
:10270C00F2D1641C039AC4F111031444119A012AE6
:10271C0003D0012208430DD10AE0084304D0002065
:10272C004FF0110B119072E7A3EB0B056D1E0DE032
:10273C005B4504DD4FF0000205F1010504E003DA0E
:10274C004FF00002A5F10105002AECD00298119976
:10275C00C0E90231C0E9004579E7000000001440EF
:10276C000000F03F300000000000F0430000E03FAC
:10277C002DE9FF4F95B09B468946064600250FE292
:10278C00252877D100242746F84A0121059400E03A
:10279C00044316F8013F203B01FA03F01042F7D135
:1027AC0030782A2811D06FF02F033078A0F1300246
:1027BC00092A16D8059A44F0020402EB820203EBB4
:1027CC0042021044761C0590EFE759F8042B059251
:1027DC00002A03DA504244F40054059044F00204F9
:1027EC00761C30782E2816D116F8010F44F004040C
:1027FC002A280DD06FF02F023078A0F13003092B6E
:10280C0009D807EB870302EB4303C718761CF3E7E1
:10281C0059F8047B761C30786C280FD006DC4C28D9
:10282C0017D068280DD06A2814D104E0742810D071
:10283C007A280FD10DE044F400140AE044F480141B
:10284C0001E044F440147278824202D104F5801401
:10285C00761C761C307866280BD013DC582877D081
:10286C0009DC002875D04528F6D04628F4D0472836
:10287C001AD19DE118E0632835D0642879D06528F9
:10288C0012D195E1702873D008DC6728F1D0692843
:10289C006FD06E280DD06F2806D1B5E073282CD0E0
:1028AC00752875D0782874D05A46179990476D1CA6
:1028BC0075E1C4F30250022809D003280DD0D9F8D1
:1028CC00001004280DD00D6009F1040967E1D9F856
:1028DC000010EA17C1E90052F6E7D9F800100D8094
:1028EC00F2E70D70F0E719F8041B8DF800100020CA
:1028FC008DF80100EA46012003E059F804AB4FF0D3
:10290C00FF3061074FF0000102D40DE008F1010126
:10291C008846B9420FDA8045F8DB1AF8081000290E
:10292C00F4D108E008F1010188468142FADB1AF87B
:10293C0008100029F6D105985B46A0EB0807214644
:10294C003846179A00F094FA284400EB080507E083
:10295C004DE029E10DE01AF8010B5A461799904702
:10296C00B8F10108F7D25B4621463846179A13E1B5
:10297C0042E00A220092C4F302524FF0000A022AEB
:10298C0008D059F804CB032A4FEAEC710AD00DE0B9
:10299C0029E02AE009F1070121F00702F2E802C15F
:1029AC00914609E00FFA8CFC4FEAEC71042A03D132
:1029BC004FFA8CFC4FEAEC71002907DA0A46002129
:1029CC00DCF1000C61EB02012D2202E0220504D5A2
:1029DC002B228DF80420012203E0E20701D02022F3
:1029EC00F7E7904659E00A2102E010220DE0102191
:1029FC004FF0000A00910BE010224FF0000A44F057
:102A0C0004040827009203E008224FF0000A009209
:102A1C00C4F30252022A05D059F804CB0021032A30
:102A2C0008D009E009F1070121F00702F2E802C120
:102A3C00914605E01FFA8CFC042A01D10CF0FF0C26
:102A4C004FF00008220728D5702806D0009B83F091
:102A5C00100353EA0A0305D00EE040228DF804203F
:102A6C00012208E05CEA010206D030228DF8042035
:102A7C008DF8050002229046009B83F0080353EA70
:102A8C000A030AD15CEA010201D1620705D53022A2
:102A9C008DF804204FF001087F1E582804D034A074
:102AAC0003900EA802900DE036A0F9E7534660465D
:102ABC00009AFDF76FFB84460398825C0298401ED7
:102ACC00029002705CEA0100F0D1029806A9081A83
:102ADC0000F1200A600702D524F4803400E00127BD
:102AEC00574502DDA7EB0A0000E0002000EB0A01CD
:102AFC00009005984144401A0590E00306D45B46CB
:102B0C002146179A059800F0B3F90544002706E012
:102B1C0001A85A46C05D179990476D1C7F1C47450C
:102B2C00F6DBE0030CD55B462146179A059800F0BE
:102B3C009FF9054404E030205A46179990476D1CC4
:102B4C000099481E00900029F5DC08E002980299D3
:102B5C005A460078491C0291179990476D1CBAF19E
:102B6C000001AAF1010AF1DC65E10000092801006D
:102B7C0030313233343536373839616263646566E7
:102B8C0000000000303132333435363738394142A9
:102B9C00434445460000000000F058F90544761CFB
:102BAC00307800287FF4ECAD19B02846BDE8F08FE2
:102BBC00620700D4062709F1070222F0070CFCE893
:102BCC000223E14603F000485FEA080C02D00FF242
:102BDC00702C0DE05FEA045C02D50FF2682C07E064
:102BEC005FEAC47C02D00FF2602C01E0AFF2700CF3
:102BFC004FF0FF3823F00043CDF850C065280CD0BF
:102C0C0006DC452809D046281DD047283DD13DE09B
:102C1C00662818D067287ED138E00021112F01DBFF
:102C2C00112000E0781CCDE9000106A90EA8FFF7E1
:102C3C00DDFCDDE90F010E9A03910021009207F1F2
:102C4C00010A04914DE04FF000400097CDE90110CE
:102C5C0006A90EA8FFF7CAFCDDE90F0203920E9B32
:102C6C0011990022DDF80CA00093049211B9791C83
:102C7C0000EB010AB7EB0A0004D4C0F1FF3007F1F6
:102C8C00010A0490AAEB0700019044E0012F00DA3E
:102C9C0001270021112F01DD112000E03846CDE97C
:102CAC00000106A90EA8FFF7A1FCDDE90F010E9AA1
:102CBC000391002104910092BA4621070CD4039988
:102CCC00514500DA8A46BAF1010F05DD009AAAF1E6
:102CDC000101515C302908D0B84202DA10F1040F1E
:102CEC0006DA0121CDE9011015E0AAF10101E9E7AD
:102CFC00002805DC049901440491AAEB000102E0D0
:102D0C00411C514500DD8A460499401A401C019033
:102D1C004FF000400290200704D40198504501DB8D
:102D2C00CDF8048000208DF84F0002980DF14F076C
:102D3C00B0F1004F25D02B200E9002984FF00208D6
:102D4C0000280CDA404202902D200E9007E00A2158
:102D5C000298FDF709FA3031029007F8011DB8F11D
:102D6C000001A8F10108F2DC02980028EFD1791ECD
:102D7C000E980870307800F0200040F0450007F8FD
:102D8C00020D12A8C01B00F107081498007800B1BE
:102D9C00012000EB0A01019801EBE0710598414418
:102DAC00401A401E0590E00306D45B462146179A54
:102DBC00059800F05DF805441498007818B15A464F
:102DCC00179990476D1CE00324D55B462146179A52
:102DDC00059800F04DF805441CE00498002807DB2A
:102DEC00DDE90301884203DD0098405C179901E09E
:102DFC00179930205A469047049805F10105401C5C
:102E0C0004900198401E019004D12E205A46179927
:102E1C0090476D1CBAF10001AAF1010ADDDC05E056
:102E2C0017F8010B5A46179990476D1CB8F1000121
:102E3C00A8F10108F4DC5B462146179A0598ABE62D
:102E4C002D0000002B000000200000002DE9F041B7
:102E5C00044600251E461746880404D405E039466E
:102E6C002020B0476D1C641EF9D52846BDE8F081C2
:102E7C002DE9F041044600251E469046C80301D5B5
:102E8C00302700E02027880404D505E04146384669
:102E9C00B0476D1C641EF9D52846BDE8F0814A6820
:102EAC00002A06D00A68531C0B6010704868401E3C
:102EBC0048607047EFAA120002000515EFAA1D002A
:102ECC00001DEFAA10000010000000680000006850
:102EDC000000006000010C080000006800000068A1
:102EEC000000007000010908000000680000006884
:102EFC0000000008000102080000006800000068E3
:102F0C0098000000000101080000002000000020D3
:102F1C000000006000010C030000002000000020F5
:102F2C0000000070000109030000002000000020D8
:102F3C0000000008000002030000002054000020E4
:102F4C0098000000000001030F000000602F00003B
:102F5C000000000000000100080100000000010555
:102F6C000202000000000105030200000000010441
:102F7C000502000000000100000300000000010435
:102F8C000103000000000104020300000000010422
:102F9C000F030000500C010501050000500C010549
:102FAC0002050000000001040706000000000105F6
:102FBC000D060000000001050E06000000000104D3
:102FCC00000A0000040C00000A0A00004809002056
:102FDC00E42F00002430000005000000A086010052
:102FEC0000000000010000000B000000DFFFFFFFED
:102FFC00140000001500000000000000000000009C
:10300C000000000019200000000000001C3000002F
:10301C00011400AC1E010000110D00006B0E00002D
:10302C009D0E0000850C00007B0E0000AD0C000016
:10303C00850E0000BB0C0000040000000C360000E4
:10304C0008000000D42E00000200000090330000A5
:10305C008C0100008D0100008E0100008F0100002A
:10306C0098010000990100009A0100009B010000EA
:10307C00AA010000AB010000AC010000AD01000092
:10308C00B6010000B7010000B8010000B901000052
:10309C00B0010000B1010000B2010000B30100005A
:1030AC009F010000A00100000100020008001000B8
:1030BC0020000000020000000200000000000000E0
:1030CC00000000000C000000000000000C000000DC
:1030DC00010000000C000000020000000C000000C9
:1030EC00030000000000000000000000EB240000C2
:1030FC00000000000431000000000000010000008E
:10310C0000000000400000200F000000FFFF000046
:10311C00000000000000000000000000FFFF0000A5
:10312C00000000000400000002000000000000008D
:10313C00000000000C000000040000000C00000067
:10314C00050000000C000000060000000C00000050
:10315C000700000000000000000000000125000036
:10316C0000000000743100000000000001000000AD
:10317C0000000000440000200F000000FFFF0000D2
:10318C00000000000000000000000000FFFF000035
:10319C00000000000700000002000000000000001A
:1031AC00000000000C000000080000000C000000F3
:1031BC00090000000C0000000A0000000C000000D8
:1031CC000B0000000000000000000000292500009A
:1031DC0000000000E43100000000000001000000CD
:1031EC0000000000480000200F000000FFFF00005E
:1031FC00000000000000000000000000FFFF0000C5
:10320C0000000000080000000200000000000000A8
:10321C00000000000C000000100000000C0000007A
:10322C00110000000C000000120000000C00000057
:10323C001300000000000000000000003F2500000B
:10324C0000000000543200000000000001000000EB
:10325C00000000004C0000200F000000FFFF0000E9
:10326C00000000000000000000000000FFFF000054
:10327C000000000009000000020000000000000037
:10328C00000000000C0000000C0000000C0000000E
:10329C000D0000000C0000000E0000000C000000EF
:1032AC000F00000000000000000000006725000077
:1032BC0000000000C432000000000000010000000B
:1032CC0000000000500000200F000000FFFF000075
:1032DC00000000000000000000000000FFFF0000E4
:1032EC00000000000000000800000008003800008A
:1032FC00003800000000000090A1000110A20001A5
:10330C0010A2000190A2000190A2000190A1000166
:10331C00C0A1000140A2000140A20001C0A2000116
:10332C00C0A20001C0A1000110A1000110A1000168
:10333C0004A1000100A1000180A1000104A2000170
:10334C0000A2000184A2000180A2000180A1000162
:10335C00E0A1000160A2000160A20001E0A1000157
:10336C0000000068000000680000007000000070A1
:10337C000000006000000060000C0020000C002029
:10338C0000000020000000680000006860000020C1
:10339C00600000205B44485432325D205265616409
:1033AC00204661696C6564210D0A005B537461747D
:1033BC0075735D2046616365205265636F676E6946
:1033CC0074696F6E2053746172746564210D0A0008
:1033DC005B5374617475735D20456E726F6C6C28F1
:1033EC004661636520526567697374657229204371
:1033FC004D442053656E74210D0A000D0A2D2D2DA0
:10340C00205B554152543820525820256420627953
:10341C007465735D202D2D2D0D0A000D0A2D2D2D9B
:10342C002D2D2D2D2D2D2D2D2D2D2D2D2D2D2D2DC0
:10343C002D2D2D2D2D2D2D0D0A005B5374617475C2
:10344C00735D20526573657474696E6720466163A1
:10345C0065204D6F64756C652E2E2E0D0A005B4435
:10346C00485432325D2054656D703A2025642E2507
:10347C006420432C2048756D3A2025642E25642049
:10348C00252552480D0A005B466163655D20566533
:10349C0072696679204661696C65643A205374617F
:1034AC00747573203078253032580D0A005B4661F4
:1034BC0063655D20456E726F6C6C204661696C654E
:1034CC006421205374617475733D30782530325803
:1034DC000D0A005B466163655D205665726966790D
:1034EC00205375636365737321205573657220498E
:1034FC00443A2025640D0A005B466163655D2045F6
:10350C006E726F6C6C205375636365737321204608
:10351C006163655F49443A2025640D0A005B4248AB
:10352C00313735305D2052656164206661696C65A8
:10353C00642C206572723D25640D0A005B53746126
:10354C007475735D2053637265656E20434D443A08
:10355C002025730D0A005B4248313735305D204C15
:10356C0075783A20252E3266206C780D0A0074345A
:10357C002E7478743D2225642E2564220074352E19
:10358C007478743D2225642E256422007431302E0B
:10359C007478743D22D7A2B2E1B3C9B9A6A3A12213
:1035AC000074392E7478743D22CAB6B1F0B3C9B91F
:1035BC00A6A3A122007431302E7478743D22D7A2B8
:1035CC00B2E1CAA7B0DCA3A1220074392E747874BE
:1035DC003D22CAB6B1F0CAA7B0DCA3A12200535455
:1035EC004152540061646420312C312C2564007AE2
:1035FC0068756365007061676520626F7800000014
:10360C00000000680000006800010008000000686D
:10361C00000000680001000860000020600000202D
:10362C00000000037C040020F40A002000000003CA
:10363C0000000406362E342E30004275696C74205E
:10364C00776974682052656E657361732041647686
:10365C00616E63656420466C657869626C652053A5
:10366C006F667477617265205061636B616765206A
:10367C0076657273696F6E20362E342E3000000022
:020000040100F9
:04A10000FFFFFFFF5F
:020000040100F9
:04A20000FFFDFFFF60
:020000040100F9
:04A28000F8F8FFFFEC
:0400000500001241A4
:00000001FF
