:020000040000FA
:1000000000040020E10400008D00000089000000D1
:1000100089000000890000008900000089000000BC
:100020000000000000000000000000008900000047
:100030008900000000000000890000008900000025
:020000040000FA
:1000400040EA01039B0703D009E008C9121F08C05A
:10005000042AFAD203E011F8013B00F8013B521EDA
:10006000F9D27047D2B201E000F8012B491EFBD251
:1000700070470022F6E710B513460A4604461946B3
:10008000FFF7F0FF204610BD00BE70472DE9F0419C
:1000900046F22018C4F20008B8F80000B8F82010A2
:1000A00040F2204501EA0006B7B20024C2F2000582
:1000B00027FA04F0C00704D055F8241009B12046EF
:1000C00088470134102CF3D1A8F81060BDE8F08106
:1000D00040F63C20C0F2000081680068CB6940F225
:1000E0000E41012218470000B0B543F22404C4F2C7
:1000F00008040025C8200121257100F082F8257030
:1001000020780028FCD1207840F00200207000BF49
:1001100020788007FCD4002004F8020C14F8020CAC
:100120000028FBD1002004F11C0100BF11F81020B1
:1001300002F07F0201F8102011F91020002AFBD4F0
:1001400001300328F2D1012000F00BF84EF2BB423F
:100150000021C4F2010201201170BDE8B04000F09E
:1001600027B880B50122EFF3108182F3108840F2A6
:100170006842C2F2000232F810308BB94EF2FE3CF7
:1001800040F67C23C4F2010CC0F20003BCF800E08E
:1001900033F8103043EA0E0343F42543ACF8003043
:1001A00032F81030013322F8103081F3108880BD0E
:1001B0000122EFF3108182F3108840F26842C2F20C
:1001C000000232F8103023B132F81030013B22F82F
:1001D000103032F810208AB94EF2FE3CC4F2010C05
:1001E00040F67C22BCF80030C0F2000232F8100069
:1001F00043F4254222EA0000ACF8000081F31088A5
:10020000704740F21C42C2F20002126801FB00F08B
:1002100041F20021C0F27A018A420FD340F6FF0179
:10022000C0F23D0111444DF68362C4F21B32A1FBC2
:100230000212110DA0FB0101E9B11FE04CF60021F3
:10024000C3F69A3148F63813C0F24103B1FBF2F11C
:10025000984207D24FF47A7200FB02F0B0FBF1F043
:10026000800808E08900B0FBF1F0984206D24FF414
:100270007A7100FB01F028B100F0A3BA4FF0FF3013
:1002800000F09FBA70477047022818BF704740F2CD
:10029000604040F6F411C2F20000C0F2000100F02C
:1002A00005B80146002200200A60704780B545F27B
:1002B0005422C5F24F020260084600F0FBFA00200B
:1002C00080BD70B586B001A80126049003A814462D
:1002D0000D46CDE90121ADF80C6000F077FA40F24F
:1002E0007440EFF3108186F31088C2F200000268B8
:1002F0003AB940F60352C4F20802002313704023B7
:10030000137002680132026081F31088E10340F645
:100310000001C4F208014FEA152201D4EBB20CE04F
:1003200001EB8216EBB256F8235025F4803546F8DF
:10033000235024F4803546F8235001EB821101222A
:1003400041F82340EFF3108182F31088026812B164
:100350000268013A0260006838B940F60350C4F2FE
:100360000800002202708022027081F310880020B1
:1003700006B070BD4FF4FF5000EAD1000423C4F270
:100380000803C0580023CFF6FF7343EA1040C9B2F8
:10039000C84000F0010100201160704780B5C8B26C
:1003A0004FF0010C4FF4FF5303EAD1030CFA00FEA7
:1003B00040F20C0CC4F2080C53F80C10012A4CEA61
:1003C000030C08D14FF4803202FA00F021EA000059
:1003D00040EA0E0207E04FF4803221EA0E0102FAF1
:1003E00000F041EA00020020CCF8002080BD6FF050
:1003F0003F0000EA9100C9B200EB810040F6000125
:10040000C4F208014058C0F3400100201160704759
:10041000C8B2012383409BB24FF4803C002A08BF3E
:100420000CFA00F34FF4FF5000EAD1010822C4F2A5
:10043000080200208B50704780B5084600F03AFA59
:10044000002080BD80B54FF4FF5000EAD10140F29A
:10045000000CC4F2080C51F80CE003EA020040EA78
:100460000E0062EA03020240002041F80C2080BD29
:100470004FF4FF5000EAD1000421C4F208014058B3
:10048000010C00201180704703EA020023EA0202F7
:1004900040EA02424FF4FF5000EAD1010C23C4F2BB
:1004A00008030020CA5070474FF4FF5000EAD10003
:1004B0000421C4F20801415800201180704703EA6A
:1004C000020023EA020240EA02424FF4FF5000EA2F
:1004D000D1010823C4F208030020CA50704700006D
:1004E00000F01AF800F0E0F9FEE74EF22000C4F246
:1004F00001008179006840F20042C2F20002C0F3BC
:10050000026052F8211021FA00F040F21C41C2F2C0
:10051000000108607047000010B54EF60850CEF29A
:1005200000004FF47001C0F8801040F20001C0F2EA
:100530000001016000200024FFF7A6FE00F06CF827
:100540000120FFF7A1FE40F20000C2F2000080F39C
:100550000A88002000F032F8FFF7C7FFFFF7C4FD5C
:100560000320FFF7FEFD40F61050C4F208004FF6DE
:10057000FF7100BF20F8141001340C2CFAD10320B5
:10058000FFF716FE0320FFF7ECFD0420C4F20E0077
:100590000021016041608160C1600320FFF708FE17
:1005A0000220FFF771FE012000F008F800F0D4F8F7
:1005B0000020BDE8104000F0CDB80000F0B581B0DB
:1005C00040F62025C0F200052E68044676B1686822
:1005D000071D00BF7879844204D157E90101091A47
:1005E000FFF747FD013E07F10C07F3D1AE6886B176
:1005F000E86800F1080500BF6879844205D155E933
:1006000002022968121AFFF71BFD013E05F11005D1
:10061000F2D101B0F0BD00002DE9F0414EF2FE3400
:10062000C4F201044AF203504CF200152080C4F2D7
:1006300001050120A88000BFA8880028FCD147F24E
:1006400000010120C4F2000128808860086040F2A7
:10065000004642F6005041F20022C2F20006C0F20B
:100660003110C0F27A02C6E9000243F200604FF492
:100670000041C0F26E10C6E902104CF20020C0F634
:10068000EB304EF220073161C4F201077061B87996
:10069000396856F82000C1F3026140F21C48C84096
:1006A000C2F20008C8F8000000206075092087F831
:1006B000820094F8820018B994F88300800744D02F
:1006C00094F8820050B9012084F88200C8200121EA
:1006D000FFF797FD94F882000128FBD1002084F8F1
:1006E000830084F882000020B87400BF387F0007C0
:1006F000FCD543F2021038810020B872387F8006A2
:10070000FCD50320287741F22120C2F20100386095
:100710000520B871B879396856F82000C1F3026134
:10072000F022C840C8F8000042F20800C4F20000FD
:10073000F12101710121017002714FF425403974DA
:1007400087F832102080BDE8F0814FF47A70FFF70F
:100750009AFDC8E77047000070B584B048F24804BD
:100760000320C4F20004FFF7FCFC40F63821C0F27D
:1007700000010E686FF0FF0020604FF0FF30039023
:100780000290019016B16FF0010001904EF280329C
:10079000002001A9CEF2000251F8203004EB8005C0
:1007A000AB6242F8203001300328F5D10320FFF777
:1007B000FFFC26B146F20030C4F20000066004B02F
:1007C00070BD01380028FCD1704700002DE9F04FC2
:1007D00081B00446008800285AD043F240084EF207
:1007E000BB4B0025C4F208080FF2AC0AC4F2010B9F
:1007F0004FF00109002700BF60685AF8272000EB7E
:10080000C500416891423CD100689BF8001000F09F
:10081000B85009FA07F6B0F1807F06EA010015D159
:1008200050B90120FFF79DFC9BF8000030438BF886
:1008300000000120FFF7BCFC18F91700002820D4A5
:1008400018F8170040F0800015E000BF50B10120FB
:10085000FFF787FC9BF80000B0438BF800000120F5
:10086000FFF7A6FC18F91700B0F1FF3F09DC18F8F4
:10087000170000F07F0008F81700C8200121FFF7DB
:10088000C0FC0137032FB7D1208801358542B1D391
:1008900001B0BDE8F08F00BF0204000003040000B7
:1008A00004040000FFF714BC80B5FFF7FBFF002035
:1008B00080BD000070B50446FFF788FF40F2744C1D
:1008C000EFF31080012181F31088C2F2000CDCF8F4
:1008D000001039B940F60351C4F2080100220A7031
:1008E00040220A70DCF800100131CCF8001080F3CF
:1008F0001088208818B340F6000E0021C4F2080EBC
:10090000606800EBC10250F831305268DD034FEAF5
:100910001220D2B20BD50EEB801555F8226026F4CA
:10092000803645F8226023F4803645F822600EEBCD
:100930008010013140F8223020888142E0D301202C
:10094000EFF3108180F31088DCF8000020B1DCF8B0
:1009500000000138CCF80000DCF8000038B940F69F
:100960000350C4F20800002202708022027081F35A
:10097000108870BD00000068000000680000006082
:1009800000010C0800000068000000680000007012
:10099000000109080000006800000068000000086D
:1009A000000102080000006800000068400000002C
:1009B000000101080000002000000020000000608D
:1009C00000010C0300000020000000200000007067
:1009D00000010903000000200000002000000008C2
:1009E0000000020300000020000000204000000082
:1009F0000000010304000000000A000000000000E5
:100A000000000100080100000000010000030000D8
:100A10004500000000040000050000000E04000076
:100A200004000000380B00000800000074090000FA
:100A300002000000280B00000000000060040020FD
:100A4000F4090000480A0000AD020000A302000003
:100A500039040000C3020000750300009D0300007C
:100A6000EF030000110400004504000071040000C1
:100A700089040000A9040000BF0400000100020076
:100A8000080010002000000000000008000000081E
:100A9000000C0000000C00000000000090A100010C
:100AA00010A2000110A2000190A2000190A200017A
:100AB00090A10001C0A1000140A2000140A20001DC
:100AC000C0A20001C0A20001C0A1000110A100014C
:100AD00010A1000104A1000100A1000180A10001FA
:100AE00004A2000100A2000184A2000180A2000172
:100AF00080A10001E0A1000160A2000160A200014C
:100B0000E0A1000100000068000000680000007023
:100B1000000000700000006000000060000800207D
:100B200000080020000000200000006800000068AD
:100B300000000020000000200000006800000068A5
:100B400000010008000000680000006800010008C3
:100B50000000002000000020000000031C04002012
:100B6000780400200000000300000406362E342E16
:100B700030004275696C7420776974682052656E24
:100B80006573617320416476616E63656420466CB1
:100B9000657869626C6520536F6674776172652051
:100BA0005061636B6167652076657273696F6E2053
:080BB000362E342E3000000047
:020000040100F9
:04A10000FFFFFFFF5F
:020000040100F9
:04A20000FFFDFFFF60
:020000040100F9
:04A28000F8F8FFFFEC
:04000005000004E112
:00000001FF
