:020000040000FA
:1000000020040020B5080000210100009D00000030
:100010009D0000009D0000009D0000009D0000006C
:10002000000000000000000000000000C108000007
:100030009D0000000000000065010000D9080000DC
:10004000491800001B190000D1180000DF1700003C
:040050004000350037
:020000040000FA
:1000540040EA01039B0703D009E008C9121F08C046
:10006400042AFAD203E011F8013B00F8013B521EC6
:10007400F9D27047D2B201E000F8012B491EFBD23D
:1000840070470022F6E710B513460A46044619469F
:10009400FFF7F0FF204610BD00BE704710B582B0D8
:1000A40040F29040C2F20000016843F23C03013187
:1000B400016040F20D1040F23C444FF0010CC0F2DC
:1000C40000000BA1C0F200034FF48072C2F20004DE
:1000D400CDE900C402F05EFC012804BF02B010BDEB
:1000E4002068002102B0BDE8104001F074BB00BFDD
:1000F400496E7075745F7468726561640000000015
:10010400012001F015FFFBE710B5044601F032FBB6
:100114002046BDE81040FFF7F3BF00002DE9F04191
:1001240046F22018C4F20008B8F80000B8F820100D
:1001340040F2484501EA0006B7B20024C2F20005C5
:1001440027FA04F0C00704D055F8241009B120465A
:1001540088470134102CF3D1A8F81060BDE8F08171
:100164000F4B1968EFF309821EF0100F08BF22ED40
:10017400108A22E9F04FEFF30B8342F8043D0A6042
:100184004FF0500080F31188BFF34F8FBFF36F8F90
:1001940001F0BCFF4FF0000080F3118801F0A0BA19
:1001A400F8040020B0B543F22404C4F20804002586
:1001B400C8200121257100F082F8257020780028DC
:1001C400FCD1207840F00200207000BF2078800726
:1001D400FCD4002004F8020C14F8020C0028FBD113
:1001E400002004F11C0100BF11F8102002F07F026E
:1001F40001F8102011F91020002AFBD40130032843
:10020400F2D1012000F00BF84EF2BB420021C4F2FF
:10021400010201201170BDE8B04000F027B880B59C
:100224000122EFF3108182F3108840F2A042C2F25F
:10023400000232F810308BB94EF2FE3C43F21C132C
:10024400C4F2010CC0F20003BCF800E033F8103033
:1002540043EA0E0343F42543ACF8003032F810307F
:10026400013322F8103081F3108880BD0122EFF3AE
:10027400108182F3108840F2A042C2F2000232F8E8
:10028400103023B132F81030013B22F8103032F82C
:1002940010208AB94EF2FE3CC4F2010C43F21C1247
:1002A400BCF80030C0F2000232F8100043F42542DA
:1002B40022EA0000ACF8000081F31088704740F295
:1002C4004442C2F20002126801FB00F041F2002134
:1002D400C0F27A018A420FD340F6FF01C0F23D0119
:1002E40011444DF68362C4F21B32A1FB0212110DBC
:1002F400A0FB0101E9B11FE04CF60021C3F69A31DD
:1003040048F63813C0F24103B1FBF2F1984207D228
:100314004FF47A7200FB02F0B0FBF1F0800808E0C1
:100324008900B0FBF1F0984206D24FF47A7100FBD9
:1003340001F028B100F061BC4FF0FF3000F05DBC6B
:1003440070477047022818BF704740F2944043F248
:10035400C001C2F20000C0F20001AFF3008080B51A
:1003640045F25422C5F24F020260084601F038F902
:10037400002080BD6FF03F0000EA9100C9B200EB9D
:10038400810040F60001C4F208014058C0F3400166
:10039400002011607047C8B2012383409BB24FF420
:1003A400803C002A08BF0CFA00F34FF4FF5000EA27
:1003B400D1010822C4F2080200208B5070478A073A
:1003C40001D4062206E0026A937803F07B0393705B
:1003D40000220261C9071CBF0022826110467047D7
:1003E40010B5C2690123127803FA02F212F0060F63
:1003F40002D00A78120723D4026A4FF0000E92F852
:1004040002C00CF00B039370036A8A78C0F80CE006
:100414005A704A781C7802F0030204F0FC04224467
:100424001A70CA789A74DA79097802F0A30201F092
:100434005C011144D971006A0CF07B01817001E008
:100444004FF0030E704610BD8446C0E90913002026
:10045400CCF82C207047026A002141609170C16978
:100464004EF2801C4A69012102F01F0301FA03F3D2
:100474005209CEF2000C4CF82230BFF34F8FBFF379
:100484006F8FC269D26A02F01F0301FA03F35209A3
:100494004CF82230BFF34F8FBFF36F8FC269D2691C
:1004A40002F01F0301FA03F352094CF82230BFF3A0
:1004B4004F8FBFF36F8FC269526A02F01F0301FAB4
:1004C40003F352094CF82230BFF34F8FBFF36F8F01
:1004D400EFF3108281F3108844F20403C069C4F27C
:1004E400080300784FF0004C19682CFA00F0084318
:1004F4001860186882F31088002070474FF0FF32AC
:1005040000200A604A6070470A780123934013F080
:10051400060F05D00B6CDB681B781B0700F1E0802D
:100524002DE9F04748F20003C4F2110343EA022222
:10053400D1E90E364FF0000843628378C66223F097
:1005440003035E1C86704E68026280F80080C161FD
:10055400C0F8288016B943F002038370CF6A4EF2C4
:10056400001C07F01F034FF0010ECEF2000C0EFA30
:1005740003F30CF180047E0991F8285044F82630E6
:10058400BFF34F8F46F2003AC4F2000ABFF36F8FF5
:100594005AF827602A0126F480364AF827600CF5B9
:1005A40040755AF82760EA554A6940F2E04902F07A
:1005B4001F06C2F200090EFA06F6530949F827008D
:1005C4000F7C44F82360BFF34F8FBFF36F8F5AF84B
:1005D40022303E0123F480334AF822305AF8223084
:1005E400AE5449F82200CA690B7E02F01F060EFAC7
:1005F40006F6570944F82760BFF34F8FBFF36F8F98
:100604005AF822601B0126F480364AF822605AF810
:100614002260AB5449F822004A6A91F8203002F073
:100624001F060EFA06F6570944F82760BFF34F8FEA
:10063400BFF36F8F5AF822401B0124F480344AF828
:1006440022405AF82240AB5449F82200EFF31082BA
:100654008EF3108844F204050B78C4F208054FF0B9
:1006640000442E6824FA03F326EA03032B602B6864
:1006740082F31088026A82F80280026A82F8048097
:10068400026A82F80980026A82F80A80026A82F8A1
:100694000B80026AA2F81A800A780EFA02F340F27A
:1006A400F932134202D0036A4024DC74036A06243C
:1006B4001C770B780EFA03F3134203D0026A4FF44B
:1006C40078439382D1E90163CA684FEAC20242EADD
:1006D40003123EB1032E08BF42F04002F22602E0AC
:1006E4000322ADE0E226036A02271A70026A00259B
:1006F40096710A6C936907EA4307082B036A08BFDB
:100704000A275F73066AD2E9013735721668DB017E
:1007140026F00106022EDEB267F345160AD1036AFB
:10072400FF275F701268022A026A08BF46F01006AB
:10073400D67117E0036ADE71D268036A97785F7036
:1007440057781E7807F0030706F0FC0637441F703D
:10075400D7789F74DF79127807F0A30702F05C0260
:100764003A44DA710022C369C0E90322C0E90522D0
:10077400D1F840E05B699EF800105AF8234003F07A
:100784001F0524F480344AF823405AF823400124F6
:1007940004FA05F60CF5C0755B09BFF35F8F45F8E5
:1007A40023604CF82360C369DB6A5AF8236026F49B
:1007B40080364AF823605AF8236003F01F0604FACF
:1007C40006F65B09BFF35F8F45F823604CF823609E
:1007D400C369DB695AF8236026F480364AF823603B
:1007E4005AF8236003F01F0604FA06F65B09BFF308
:1007F4005F8F45F823604CF82360C3695B6A5AF83D
:10080400236026F480364AF823605AF8236003F004
:100814001F06B4405B09BFF35F8F45F823404CF8D3
:1008240023401C23076A63F39F01B970DEF8141098
:1008340044F65513C5F24333C0E90131BDE8F0472E
:100844001046704703460020C3E90512704702466C
:10085400806908600021002091617047062070477C
:100864000620704780B5D0F820E09EF802C00CF056
:100874007B038EF80230837803F00303A2EB030CAE
:100884000B44026AC0E9033C937843F080039370FD
:10089400827802F00302022A05D10988006A41F431
:1008A4007E41C18102E00978006AC170002080BDE8
:1008B40000F03AF800F08DFAFEE700001EF0040F95
:1008C4000CBFEFF30880EFF30980014908470000EB
:1008D400591D000010B55020EFF3118480F31188E6
:1008E40002F06CF930B14EF60450CEF200004FF035
:1008F4008051016084F3118810BD4EF22000C4F2CF
:1009040001008179006840F22042C2F20002C0F383
:10091400026052F8211021FA00F040F24441C2F280
:10092400000108607047000010B54EF60850CEF282
:1009340000004FF47001C0F8801040F20001C0F2D2
:100944000001016000200024FFF7FCFC00F070F8B7
:100954000120FFF7F7FC40F22000C2F2000080F310
:100964000A88002000F032F8FFF7C7FFFFF71AFCEF
:100974000320FFF754FC40F61050C4F208004FF671
:10098400FF7100BF20F8141001340C2CFAD103209D
:10099400FFF76CFC0320FFF742FC0420C4F20E00B6
:1009A4000021016041608160C1600320FFF75EFCAB
:1009B4000220FFF7C7FC012000F008F800F0D8F887
:1009C4000020BDE8104000F0D1B80000F0B581B0BF
:1009D40043F2F405C0F200052E68044676B1686857
:1009E400071D00BF7879844204D157E90101091A2F
:1009F400FFF747FB013E07F10C07F3D1AE6886B160
:100A0400E86800F1080500BF6879844205D155E91A
:100A140002022968121AFFF71BFB013E05F11005BB
:100A2400F2D101B0F0BD000000BE00BFFEE700003F
:100A34002DE9F0414EF2FE34C4F201044AF20350AF
:100A44004CF200152080C4F201050120A88000BFEB
:100A5400A8880028FCD147F200010120C4F200015B
:100A640028808860086040F2204642F6005041F237
:100A74000022C2F20006C0F23110C0F27A02C6E9C6
:100A8400000243F200604FF40041C0F26E10C6E968
:100A940002104CF20020C0F6EB304EF22007316118
:100AA400C4F201077061B879396856F82000C1F3BF
:100AB400026140F24448C840C2F20008C8F800008D
:100AC40000206075092087F8820094F8820018B924
:100AD40094F88300800744D094F8820050B9012030
:100AE40084F88200C8200121FFF7E9FB94F8820012
:100AF4000128FBD1002084F8830084F882000020C0
:100B0400B87400BF387F0007FCD543F20210388167
:100B14000020B872387F8006FCD50320287741F284
:100B24002120C2F2010038600520B871B879396813
:100B340056F82000C1F30261F022C840C8F8000052
:100B440042F20800C4F20000F12101710121017098
:100B540002714FF42540397487F832102080BDE8C3
:100B6400F0814FF47A70FFF7ECFBC8E770470000A0
:100B740070B584B048F248060320C4F20006FFF7BB
:100B84004EFB6FF0FF0043F20C1430604FF0FF3067
:100B94000021C0F200040122CDE9020054F8213002
:100BA40002FA01F5002B18BFA84301310429F5D13D
:100BB4004EF280320190002001A9CEF2000200BF63
:100BC40051F8203006EB8005AB6242F8203001304A
:100BD4000328F5D10320FFF749FB46F2003100203A
:100BE400C4F2000154F820200AB141F82020013059
:100BF400042804BF04B070BDF4E701380028FCD118
:100C0400704700002DE9F04F81B0044600880028A9
:100C14005AD043F240084EF2BB4B0025C4F20808F8
:100C24000FF2AC0AC4F2010B4FF00109002700BF18
:100C340060685AF8272000EBC500416891423CD116
:100C440000689BF8001000F0B85009FA07F6B0F1FC
:100C5400807F06EA010015D150B90120FFF7DFFAC1
:100C64009BF8000030438BF800000120FFF7FEFAE8
:100C740018F91700002820D418F8170040F0800055
:100C840015E000BF50B10120FFF7C9FA9BF800003E
:100C9400B0438BF800000120FFF7E8FA18F91700B9
:100CA400B0F1FF3F09DC18F8170000F07F0008F8E6
:100CB4001700C8200121FFF702FB0137032FB7D12A
:100CC400208801358542B1D301B0BDE8F08F00BF63
:100CD40002040000030400000404000080B5142092
:100CE4000421002201F098FA40F24041C2F20001CE
:100CF400086000B180BD00200021BDE8804000F004
:100D04006ABDFFF7EBBF000010B582B040F290401F
:100D1400C2F20000016843F270230131016040F621
:100D2400C55040F2F0444FF0010CC0F200000BA19A
:100D3400C0F200034FF40072C2F20004CDE900C413
:100D440001F028FE012804BF02B010BD2068002174
:100D540002B0BDE8104000F03EBD00BF6C65645FAA
:100D6400746872656164000082B040F2404640F2EB
:100D740094450020C2F2000601ACC2F200050190C5
:100D8400306821464FF0FF3201F02EFC0128F7D1E4
:100D94000198302808D031280DD128464FF48061BD
:100DA4000022FFF7F8FAEBE728464FF480610122AE
:100DB400FFF7F1FAE4E74FF4806000F0F0FDDFE7BD
:100DC40010B5044600F0D6FC2046BDE81040FFF7FD
:100DD400CBBF80B540F29040C2F200000021016018
:100DE40040F28840C2F2000001704FF4807001218B
:100DF40001F0F8F940F28C41C2F20001086018B920
:100E04000020002100F0E7FCFFF77EFF00F006FE63
:100E1400FFF744F901F01EF9002080BD2DE9F043ED
:100E240081B00E4642F69C61C2F200010D6840F2A8
:100E34000051C2F20001D1F8008040F2085140F2A2
:100E4400F844C2F20001C2F20004D1F80090216813
:100E54000746081D00F045FE781C16D1AEB142F6D7
:100E64007460C2F20000D0E90012236801319A6074
:100E740093682768FB60276804375F60236804333E
:100E8400936022680160506117E02068ED194560A5
:100E9400206800F1040105D3484601B0BDE8F043E1
:100EA40000F050BE404600F04DFE42F6F050C2F253
:100EB400000001688D4238BF056001B0BDE8F083D1
:100EC40070B500F05CFE42F6A066C2F2000630681F
:100ED40008BB42F69454C2F20004204600F023FEFC
:100EE40042F6A855C2F20005284600F01CFE40F266
:100EF400FC40C2F20000046040F20C50C2F2000058
:100F040005600A200C21002201F086F9306010B13E
:100F140003A100F0BBFFBDE8704000F057BE00BF66
:100F2400546D725100000000F0B581B042F6845552
:100F3400C2F200052868F8B142F6886642F6805786
:100F4400C2F20006C2F2000700F019FEF068C4689D
:100F5400201D00F0C6FD3868013838602868013863
:100F6400286000F033FE206B00F056FE204600F0AF
:100F740053FE28680028E7D101B0F0BD70B5866B38
:100F8400036C044643B31546CAB1E0681A46FFF73A
:100F94005FF8E168206C2268091A9142E16003D28B
:100FA400A16840420844E060A81EB0FA80F04009FD
:100FB4003146002E18BF01210840361A0CE0606843
:100FC4001A46FFF745F8D4E90101226C104488421F
:100FD400606001D320686060701CA06370BD000075
:100FE40040F210544EF60455C2F20004CEF200054D
:100FF4004FF08056FFF798FF2068022804D32E6034
:10100400BFF34F8FBFF36F8F00F081FDF2E78C4683
:10101400014641F804CF9445006108D940F2FC40F0
:101024009A42C2F200000AD29C450ED207E08069BF
:10103400D21A824209D240F20C50C2F2000080B5AA
:10104400006800F07FFD002080BD0120704770B56E
:1010540040F2FC42C2F2000212680646D2680D4613
:10106400D468201D00F03DFD94F82400410704D409
:1010740000F0FA0084F8240004E0204631462A46B1
:1010840000F006F8216A2046BDE8704008470000D9
:1010940070B50546806914460E460144284600BFD3
:1010A4003346FFF7B4FF48B1A869296A06442846C5
:1010B4008847A869224681192846F1E770BD0000D7
:1010C400F0B581B0044601F073FD40F2F446C2F27B
:1010D40000063168054688420ED240F2FC47C2F24F
:1010E400000700BF3868016841B1C0684FF0FF31A4
:1010F4000068FFF7ACFFF5E7002007E040F20C5171
:10110400C2F200010A68086001203A6020602846A3
:10111400356001B0F0BD000000BE00BFFEE7000076
:1011240084B040F2FC4842F6A065C2F2000801AC6B
:10113400C2F200054FF00009EB4600BFD8F80000EA
:10114400D0F800A0BAF1000F1ABFC06806680026E4
:1011540000F0D4FF2046FFF7B3FF019911B101F06D
:101164006FFE2DE00746BAF1000F08D0BE4206D844
:1011740001F066FE30463946FFF769FF20E0BAF118
:10118400000F01D0002208E040F20C50C2F200002F
:1011940000680068B0FA80F042092868F11B00F08A
:1011A400A4FE01F04DFE58B94EF604514FF08050A4
:1011B400CEF200010860BFF34F8FBFF36F8F00BF03
:1011C4002868CDE90299CDF8049000BF2146002299
:1011D40001F00AFA0028B1D0019800284CD4039EEB
:1011E400706910B1301D00F07CFC5846FFF768FFB1
:1011F4000199013908293FD80746DFE801F00505C0
:101204002C1C3F05052C1C0096F82400029BB16998
:1012140040F0010086F82400194430463A46FFF7AE
:10122400F6FE48B396F8240041071BD400F0FA00F8
:1012340086F824001DE096F8240040F0010102988D
:1012440086F82410B06108B3C11930463A463B46CB
:10125400FFF7DDFE10E096F8240000F0FE0086F8AB
:10126400240009E00298B1693A4601443046FFF788
:101274000FFF316A304688472868A7E796F82400AC
:101284008107EAD4304600F0C7FCF5E743F2F66183
:1012940003A0C0F200014FF48262FFF7C5FB00BF58
:1012A4002820707854696D65722D3E7854696D6597
:1012B40072506572696F64496E5469636B73203E42
:1012C4002030202900000000F0B581B0044600F071
:1012D40056FC94F94560012E0EDB04F1240500BF91
:1012E400286848B1284601F032FD08B100F058FEE4
:1012F40070B2013E0128F3DCFF2684F8456000F05B
:1013040065FC00F03CFC94F94470012F0EDB04F101
:10131400100500BF286848B1284601F018FD08B13F
:1013240000F03EFE78B2013F0128F3DC84F844600B
:1013340001B0BDE8F04000F049BC0000F0B581B058
:1013440000F10805092D05D310F0070103D0093970
:101354008D426DD9002500F0D1FE40F20450C2F256
:101364000000026832B142F6E450C2F20000D0F844
:1013740000C029E040F27C51C2F20001CA1D4B07B3
:1013840001F5205318BF22F0070142F66C62C2F245
:1013940000020027C2E9001723F00702A2F10803A4
:1013A400036042E90277026842F6EC50A3EB010CB9
:1013B400C2F20000C0F800C042F6E450C2F20000DD
:1013C400C1E9002CC0F800C0012D4FF0000477DB08
:1013D400654575D842F66C60C2F20000016840F2BF
:1013E4007C5EC2F2000E7145C0F0888042F2FF704C
:1013F4007044814200F282804B68AB4216D20F687F
:10140400DFB142F2FF700EEB000400BF77456AD3F0
:1014140008463946A74266D84B680026AB4238BF17
:1014240001260FD20F68002FF0D10BE0002605E053
:1014340020F0070000F110058DE7012642F66C60EC
:10144400C2F2000091421DD0026802F10804744502
:101454005FD342F2FF72724494425AD80A68002E53
:10146400026062D15B1B102B0ED94F197E0765D128
:10147400C7E9002342F6E452C2F20002D2F800C0E7
:10148400076002E000241BE04D6842F6EC50C2F213
:1014940000000368ACEB050242F6E457C2F2000711
:1014A4009A4242F6F8533A6038BF0260C2F200032F
:1014B4001F6845F000400022C1E90020781C186034
:1014C40001F0BEFC600702BF204601B0F0BD43F648
:1014D4001C2043F65521C0F20000C0F2000140F286
:1014E4005712FFF7A1FA43F2DF7043F65521C0F219
:1014F4000000C0F20001FB22FFF796FA43F2DF700E
:1015040043F65521C0F20000C0F20001F522FFF7B6
:101514008BFA43F6BF0043F65521C0F20000C0F237
:10152400000140F20512FFF77FFA43F6552115A09A
:10153400C0F2000140F20D12FFF776FA43F655218E
:1015440003A0C0F200014FF48B72FFF76DFA00BFE5
:1015540028202820282073697A655F742029207048
:10156400784E6577426C6F636B4C696E6B202920F3
:101574002620282030783030303720292029203D7B
:101584003D203000282028207078426C6F636B2D3A
:101594003E78426C6F636B53697A652029203C2046
:1015A40028207857616E74656453697A6520292010
:1015B40029203D3D20300000283140F8481D41F2EB
:1015C4001D11C0F200014FF0807C22F00102C163C2
:1015D4006FF002010264C0F844C0C0E90913704707
:1015E40070B50446FFF70EFB40F2AC4CEFF31080ED
:1015F400012181F31088C2F2000CDCF8001039B923
:1016040040F60351C4F2080100220A7040220A7015
:10161400DCF800100131CCF8001080F31088208829
:1016240018B340F6000E0021C4F2080E606800EB07
:10163400C10250F831305268DD034FEA1220D2B2B1
:101644000BD50EEB801555F8226026F4803645F84C
:10165400226023F4803645F822600EEB80100131BD
:1016640040F8223020888142E0D30120EFF310813A
:1016740080F31088DCF8000020B1DCF800000138A9
:10168400CCF80000DCF8000038B940F60350C4F28E
:101694000800002202708022027081F3108870BD5D
:1016A400B0B584B00446806A40B1D0E900CED0E938
:1016B4000253CDE900CECDE9025300E06846E36968
:1016C400D4F824C01B78E56AC0E90032C0E90215E9
:1016D400E047A06A10B19DE82E002EC004B0B0BD52
:1016E400074801680A6802CA81F30B88B2E8F04F20
:1016F4001EF0100F08BFB2EC108A82F309887047FD
:10170400F804002088B14EF20C00C4F20100B0F9D4
:101714000010B1F1FF3F09DDBFF34F8F30BFBFF3BE
:101724006F8F62B6BFF36F8F72B6704780B54EF29B
:10173400FE32C4F20102B2F800E04AF2025CCFF6D3
:10174400FF7C0023A2F800C003804EF425431380DD
:10175400BFF34F8F30BFBFF36F8F62B6BFF36F8F8E
:1017640072B61388A2F800C0018043F425401080AB
:1017740080BD0000B0B540F28C44C2F20004206881
:101784004FF0FF3100F0FEFF012803D02068002154
:1017940000F021F840F28840C2F20000017801B163
:1017A400B0BD01210170FFF7ACFA40F29045C2F2DE
:1017B400000500BF286801382860F1D020680021A6
:1017C4000022002300F0BCFD0128F3D02068002192
:1017D40000F001F8EEE700BE7047B0B5EFF3038008
:1017E4006FF35F20A0F1100540F2E040C2F2000068
:1017F40050F825008178036A01F00301022912BF21
:101804005979198A6FF35F211A79D40602F03802E4
:1018140003D51C7FE40708BF40321C7904F0C704D9
:101824001C71436A0BB1FFF73BFF46F20030C4F270
:10183400000050F8251021F4803140F8251050F8AC
:101844002500B0BD10B582B0EFF3038040F2FC7107
:1018540001EA800046F2C021C4F20001425822F499
:101864008032425040F2E042C2F200024158104439
:1018740050F8404CA07800F00302206A022A12BFFC
:101884004179018A6FF35F21A069019198B1606980
:1018940001A9FEF7DDFBA0786169A26900F00300ED
:1018A4000144101A6161A0610ED1606A60B12046E2
:1018B4000021012203E0606A30B12046042202B014
:1018C400BDE81040FFF7ECBE02B010BD10B5EFF359
:1018D40003806FF35F20A0F1100440F2E040C2F2F5
:1018E400000050F82400016A8A7802F07B028A70B2
:1018F400416A19B100210222FFF7D2FE46F20030FC
:10190400C4F2000050F8241021F4803140F824106F
:1019140050F8240010BDEFF3038040F2FC7101EA9B
:10192400800046F2C021C4F20001425822F4803201
:10193400425040F2E042C2F200024158104450F8D2
:10194400400CC1694A6B0169C2B9C1B1817801F027
:101954000302C168022A05D10988026A41F47E4162
:10196400D18102E00978026AD1708178026901F0BC
:101974000303D11AC26801611A44C26071B9016AD1
:101984008A7802F07B0204328A70416A00294FF09F
:101994000001C1601CBF8022FFF782BE7047B0B552
:1019A40082B040F294450446C2F2000501AA2846DA
:1019B4002146FEF7DFFC01982146B0FA80F0420987
:1019C4002846FEF7E8FC02B0B0BD70B582B04068AE
:1019D4000021012801911FD140F27454C2F2000485
:1019E40040F240402178C2F200000068009169464C
:1019F40001AA002300F078FD43F22810C0F2000091
:101A040086680568B36828462146012298477368AA
:101A1400284621460122984702B070BD10B582B015
:101A240040F29040C2F20000016843F6B82301314D
:101A3400016041F6D52040F278544FF0010CC0F219
:101A440000000BA1C0F200034FF48072C2F2000444
:101A5400CDE900C400F09EFF012804BF02B010BD10
:101A64002068002102B0BDE81040FFF7B4BE00BFFB
:101A7400756172745F7468726561640084B043F266
:101A84002810C0F200008568D0E900412A68204689
:101A940090470CA0017A0B4A8DF80C104068AB6893
:101AA4000192029001A92046082298476B6840F2EF
:101AB4007451C2F200012046012298470A2000F026
:101AC40037FAFBE731303061736B0D0A0000000018
:101AD40010B50446FFF74EFE2046BDE81040FFF760
:101AE400CDBFD0E901320169D1F804C09A608445C0
:101AF400536008BF4A600B6800220261581E0860E8
:101B0400704742F68050C2F200000068704780B50A
:101B140072B600F0F3FA0120FFF7F4FD62B6BDE8F7
:101B2400804001F08DB94FF0FF31024642F8081FA2
:101B34000021C0E90322C0E90012704700210161BD
:101B44007047000080B5D1F800C01CF1010207D035
:101B540000F108029646526813686345FAD903E017
:101B6400D0F810E0DEF804204A6091600268C1F801
:101B740008E0CEF804100861511C016080BD5021BA
:101B8400EFF3118081F3118842F67C51C2F2000117
:101B94000A68531C0B605AB940F29C41C2F200011E
:101BA40008604EF60450CEF200000068C00500D173
:101BB400704743F24E7043F29471C0F20000C0F2D9
:101BC400000140F2A442FEF72FFF000042F67C50D1
:101BD400C2F20000016859B10139016018BF7047B1
:101BE40040F29C40C2F20000006880F31188704704
:101BF40043F2947103A0C0F2000140F2AD42FEF73B
:101C040013FF00BF7578437269746963616C4E6534
:101C14007374696E6700000070B5002841D040F20B
:101C24007C56A0F10805C2F200060446B54253D31F
:101C340042F2FF70304485424ED854F8040C002818
:101C440056D5296800295FD120F0004044F8040CDF
:101C540000F054FA42F6E450C2F2000054F8041CB6
:101C6400026842F66C630A44C2F2000302601A4638
:101C740010461268AA42FBD3984206D0B0424CD315
:101C840042F2FF733344984247D84368C618AE42C1
:101C940002D11944054641606B18934202D01346A1
:101CA4000BE070BD40F20453C2F200031B689A4279
:101CB40003D0D2E9003211446960A8422B6018BFF6
:101CC400056042F6FC50C2F2000001680131016077
:101CD400BDE8704001F0B4B843F6500043F6552116
:101CE400C0F20000C0F200014FF4B572FEF79CFE92
:101CF40043F6A91043F65521C0F20000C0F20001DA
:101D040040F26B12FEF790FE43F6552109A0C0F293
:101D140000014FF4B672FEF787FE43F6321043F625
:101D24005521C0F20000C0F200014FF4FD72FEF72D
:101D34007BFE00BF70784C696E6B2D3E70784E65EB
:101D4400787446726565426C6F636B203D3D20304C
:101D540000000000806910F8020C022808BFFFF799
:101D6400BFBC042838BF704743F2947103A0C0F28B
:101D740000014FF47E72FEF757FE00BF75635356A1
:101D8400434E756D626572203C3D203300000000B7
:101D940040F24440C2F20000006844F6D351C1F25C
:101DA4006201A0FB01014FF0FF3000EB9111002014
:101DB400B0EB116F18BF70474EF21002CEF2000262
:101DC40051604EF62351CEF20001F0230B70906067
:101DD4000720106070470000EFF303806FF35F206B
:101DE400102806D34EF2F031CEF20001405C4F28A9
:101DF40010D94EF60C50CEF200000068400558BFD2
:101E0400704743F2947116A0C0F2000140F22162BF
:101E1400FEF70AFE43F2947103A0C0F2000140F2FF
:101E24000F62FEF701FE00BF756C43757272656E3A
:101E3400745072696F72697479203E3D2028282895
:101E440028352929203C3C202838202D20342929D4
:101E540029203E3E202838202D203429000000006F
:101E64005F5F4E5649435F4765745072696F72698C
:101E7400747947726F7570696E672829203C3D201C
:101E84002838202D203429202D203100B0B500B36E
:101E9400D1B142F6186E4FF0000C0023C2F2000ECE
:101EA400002200BF0EEB03046568A8420DD022B9DE
:101EB4002268002A18BF644622460833502BF1D109
:101EC400002A18BFC2E90010B0BD2246C2E90010C2
:101ED400B0BD43F2EE4043F29D41C0F20000C0F2B7
:101EE400000140F6C932FEF79FFD70B515460E4657
:101EF4000446FFF744FE94F84400FF2804BF002082
:101F040084F8440094F84500FF2804BF002084F8B6
:101F14004500FFF75BFEA06B28B904F124003146AD
:101F24002A4600F061F82046BDE87040FFF7CCB9BE
:101F340080B580B142F68851C2F200010A680132CC
:101F44000A600968012912D10021FEF767FF00F039
:101F540077FF00B180BD4EF60450CEF200004FF082
:101F640080510160BFF34F8FBFF36F8F80BD43F289
:101F7400596043F27461C0F20000C0F2000140F6FF
:101F84008E12FEF751FD42F6F451C2F200010968C7
:101F9400016042F69C61C2F2000109684160704729
:101FA40042F6A860C2F2000001210160704710B53A
:101FB40070B10C4640F2F841C2F2000109681831D0
:101FC400FFF7C0FD20460121BDE81040FEF726BF03
:101FD40043F2D26043F27461C0F20000C0F2000127
:101FE4004FF4A452FEF720FDB0B538B30346D0E950
:101FF40000C040F2F84EC2F2000EDEF80040002AA3
:10200400E0618468DEF800502C62DEF8005005F1CF
:1020140018056560DEF800400CF1010504F11804B0
:102024008460DEF80000836218BF4FF0FF31084679
:1020340011461D60BDE8B040FEF7F0BE43F2D26029
:1020440043F27461C0F20000C0F2000141F2BE42EA
:10205400FEF7EAFC80B586B044F24940C4F24C5025
:10206400029040F6E57042F6E85E4FF0000CC0F2D4
:10207400000002A98022C2F2000E00238DF80CC0D9
:10208400CDE900CE00F086FC012808BF00F0A4FFD3
:1020940001280AD001301FD143F2746112A0C0F2AA
:1020A400000140F6A962FEF7BFFC42F6F051C2F20D
:1020B40000014FF0FF32012080F310880A6042F6DD
:1020C4006861C2F20001086042F69C60C2F200003E
:1020D4000021016000F068F843F6BC20C0F2000063
:1020E400006806B080BD00BF7852657475726E20BA
:1020F400213D2028202D31202900000042F688505F
:10210400C2F20000016801310160704742F6885054
:10211400C2F20000006830B142F6A860C2F20000CA
:1021240001210160704742F6A860C2F2000000215C
:1021340042F6905C0160C2F2000CDCF8001040F240
:10214400105301EB8102C2F2000353F8220003EBA7
:10215400820228B9B9B152F8140D01390028F9D016
:102164005068436802F108008342536001D1D36888
:102174005360D86840F2F842C2F200021060CCF812
:1021840000101068704743F2746103A0C0F20001AC
:1021940041F2FA32FEF748FC7578546F7050726958
:1021A4006F726974790000004EF62250CEF200007E
:1021B400F0210170FFF7ECFD4EF63470CEF2000012
:1021C400016841F04041016062B6BFF36F8FEFF3E5
:1021D400148C2CF0040C8CF31488BFF36F8F02DF83
:1021E40000BEFDE710B548B10C46814206D8002177
:1021F400002200F011F800B1846310BD43F29D4148
:1022040003A0C0F2000140F29F32FEF70DFC00BFB4
:102214007848616E646C650070B5D8B104460D46AB
:10222400A0FB0101B1B905FB04F010F1490F11D86D
:102234004830FFF783F8064650B13046002D18BFEA
:102244004830306030460121C6E90F4500F012F8ED
:10225400304670BD43F29D4103A0C0F2000140F23C
:102264002A22FEF7E1FB00BF70784E657751756551
:102274007565000070B5002844D00446C06BC0B337
:102284000E46216CA0FB010199BBFFF778FCD4E951
:102294000F0122680025A56301FB0023013800FB20
:1022A4000120C4E90123E060FF2084F8440084F89D
:1022B400450004F110004EB1FFF735FC04F1240091
:1022C400FFF731FCFFF782FC012070BD0168002993
:1022D400F8D000F03CFD0028F4D04EF60450CEF2C5
:1022E40000004FF080510160BFF34F8FBFF36F8F39
:1022F400E8E743F29D4109A0C0F200014FF4B67231
:10230400FEF792FB43F2ED4043F29D41C0F2000020
:10231400C0F2000140F23712FEF786FB7852657472
:1023240075726E20213D20282028202820426173C8
:1023340065547970655F7420292030202920290094
:102344002DE9F04F85B00028049200F09D80994655
:102354001546044619B9206C002840F0B980B9F13B
:10236400020F03D1E06B012840F0A680019100F038
:102374000DFC10B9002D40F09380FFF700FCA06B1A
:10238400B9F1020F59D0E16B884256D304F110071A
:10239400012002AE4FF0000A04AD00BF04990029E9
:1023A40066D0C0071CBF3046FFF7EDFDFFF70EFCFB
:1023B400FFF7A4FEFFF7E3FB94F84400FF2808BFEF
:1023C40084F844A094F84500FF2808BF84F845A089
:1023D400FFF7FCFB3046294600F08EFA00284AD16C
:1023E400FFF7CDFBD4F838B0D4F83C80FFF7EEFB10
:1023F400C34515D104993846FFF7D9FD2046FEF7A9
:1024040063FF00F01DFD80B94EF60450CEF20000CB
:102414004FF080510160BFF34F8FBFF36F8F04E023
:102424002046FEF751FF00F00BFDFFF7A8FBA06B61
:10243400E16B88424FF00000B0D2019920464A4631
:10244400FEF79CFD54F8240F70B1204600F07FFC89
:1024540050B14EF60450CEF200004FF080510160AE
:10246400BFF34F8FBFF36F8FFFF7B0FB012008E07E
:10247400FFF7ACFB04E02046FEF726FF00F0E0FC8B
:10248400002005B0BDE8F08F43F2ED4043F29D41DA
:10249400C0F20000C0F2000140F2B632FEF7C4FA06
:1024A40043F2D12043F29D41C0F20000C0F200018A
:1024B40040F2BB32FEF7B8FA43F2243043F29D41B6
:1024C400C0F20000C0F200014FF46E72FEF7ACFAE5
:1024D40043F2C13043F29D41C0F20000C0F200015A
:1024E40040F2B732FEF7A0FA2DE9F04700284AD0AF
:1024F4001E46904605460F4611B9286C00285AD14D
:10250400022E02D1E86B012849D1FFF765FC502067
:10251400EFF3118980F31188022EA86B04D0E96BC4
:10252400884201D300202AE095F94540A86B28464B
:10253400394632465FFA84FAFEF720FDBAF1FF0FFE
:102544000BD0FFF7DEFAA04218D9BAF17F0F3ED0C4
:102554000AF1010085F8450010E055F8240F68B130
:10256400284600F0F4FB0146B8F1000F4FF00100DB
:1025740018BF002903D0C8F8000000E0012089F347
:102584001188BDE8F08743F2ED4043F29D41C0F26B
:102594000000C0F200014FF49262FEF745FA43F2E4
:1025A400243043F29D41C0F20000C0F2000140F229
:1025B4009242FEF739FA43F2C13043F29D41C0F230
:1025C4000000C0F2000140F29142FEF72DFA43F2FE
:1025D400564043F29D41C0F20000C0F2000140F2B7
:1025E4001E52FEF721FA00002DE9F04F83B00028B7
:1025F400029200F0A28016468946044619B9206C5E
:10260400002840F0B28000F0C1FA10B9002E40F06A
:10261400A080FFF7B4FAD4F838A0BAF1000F28D09C
:10262400226C52B1D4E902011144E160814224BF19
:102634002168E1604846FDF70BFD54F8100FAAF13C
:102644000101A16270B1204600F081FB50B14EF649
:102654000450CEF200004FF080510160BFF34F8F61
:10266400BFF36F8F0124FFF7B1FA204603B0BDE832
:10267400F08F04F1240801206F464FF0000B02AEE6
:102684000299002955D0C0071CBF3846FFF77BFCD0
:10269400FFF79CFAFFF732FDFFF771FA94F8440054
:1026A400FF2808BF84F844B094F84500FF2808BF09
:1026B40084F845B0FFF78AFA3846314600F01CF931
:1026C40060B12046FEF700FE00F0BAFBFFF757FAB0
:1026D400A56BFFF77BFA1DBB2DE000BFFFF74FFA98
:1026E400A56BFFF773FA2DB12046FEF7EDFD00F060
:1026F400A7FB15E002994046FFF759FC2046FEF778
:10270400E3FD00F09DFB58B94EF60450CEF20000F4
:102714004FF080510160BFF34F8FBFF36F8F00BF45
:10272400FFF72DFAD4F838A00020BAF1000FA7D093
:1027340076E7002497E7002497E743F2784043F2D2
:102744009D41C0F20000C0F2000140F2E952FEF7E0
:102754006BF943F2D12043F29D41C0F20000C0F274
:10276400000140F2F252FEF75FF943F2713043F296
:102774009D41C0F20000C0F2000140F2ED52FEF7AC
:1027840053F900002DE9F04F83B00028029100F0C6
:102794008E800446006C002840F095800D4600F0C1
:1027A400F5F910B9002D40F09A80FFF7E8F9A16B14
:1027B400D1B154F8100F0139A16270B1204600F074
:1027C400C6FA50B14EF60450CEF200004FF08051DC
:1027D4000160BFF34F8FBFF36F8F0124FFF7F6F94A
:1027E400204603B0BDE8F08F4EF6045904F12408E6
:1027F40001206E464FF0000B02AFCEF200094FF0FD
:10280400805A00BF029900294DD0C0071CBF304632
:10281400FFF7B9FBFFF7DAF9FFF770FCFFF7AFF941
:1028240094F84400FF2808BF84F844B094F84500A5
:10283400FF2808BF84F845B0FFF7C8F93046394689
:1028440000F05AF860B12046FEF73EFD00F0F8FAB9
:10285400FFF795F9A56BFFF7B9F9EDB925E000BFCE
:10286400FFF78DF9A56BFFF7B1F92DB12046FEF7FF
:102874002BFD00F0E5FA0FE002994046FFF797FBC5
:102884002046FEF721FD00F0DBFA28B9C9F800A0C4
:10289400BFF34F8FBFF36F8FFFF771F9A16B002068
:1028A4000029AFD085E7002498E7002498E743F295
:1028B400784043F29D41C0F20000C0F2000140F2B2
:1028C4008262FEF7B1F843F2844043F29D41C0F2C4
:1028D4000000C0F2000140F28662FEF7A5F843F260
:1028E400D12043F29D41C0F20000C0F2000140F249
:1028F4008B62FEF799F8000070B568B30D46B9B362
:102904000446FFF73CF942F69C6EC2F2000EDEF874
:10291400003029684A1C16D042F6F45CD4E900025F
:10292400C2F2000CDCF80060864201D093420CD263
:102934009A1A914209D9881A2860DCF800002060AC
:10294400DEF800006060002402E00020012428601A
:10295400FFF73CF9204670BD43F2DE6043F2746138
:10296400C0F20000C0F2000141F2A552FEF75CF88B
:1029740043F2746103A0C0F2000141F2A652FEF7D3
:1029840053F800BF70785469636B73546F5761696F
:10299400740000002DE9F04F81B081469000984604
:1029A40015460F46FEF7CAFC002865D0064660208F
:1029B400FEF7C4FC00285CD0DDF828A060210446A2
:1029C400FDF75FFB26636FB104F13400002100BF03
:1029D4007A5C42541AB10F2901F10101F8D10020A7
:1029E40084F84300BAF1050F80F0BC8006EB850043
:1029F400251D043820F007060B9F2846C4F82CA098
:102A0400FFF79CF804F11800FFF798F8CAF10500E5
:102A1400216BA06130464A46434624616462FEF756
:102A2400CBFD206007B13C60FFF7A9F842F6805067
:102A3400C2F20000016840F2F84B01310160C2F2B9
:102A4400000BDBF8001042F6686A40F21057C2F23D
:102A5400000AC2F2000791B1DAF80000002847D159
:102A6400DBF80000E16AC06A884298BFCBF80040F6
:102A74003EE03046FFF7D0F84FF0FF306FE0CBF880
:102A840000400068012833D1002600BFB819FFF7C1
:102A94004AF81436642EF9D142F6BC58C2F2000842
:102AA4004046FFF740F842F6D059C2F200094846C2
:102AB400FFF739F842F60460C2F20000FFF733F87A
:102AC40042F68860C2F20000FFF72DF842F6746007
:102AD400C2F20000FFF727F840F20050C2F20000F3
:102AE400C0F8008040F20850C2F20000C0F8009024
:102AF40042F68C50C2F2000001680131016042F6D6
:102B04009051C2F20001E06A0A68904288BF0860EE
:102B140000EB800007EB80014A6861619368C4E9B7
:102B24000223956057F820205D60511C47F820105F
:102B3400FFF74CF8DAF8000080B1DBF80000E16A36
:102B4400C06A88420AD24EF60450CEF200004FF01A
:102B540080510160BFF34F8FBFF36F8F012001B02D
:102B6400BDE8F08F43F2746103A0C0F2000140F2AB
:102B74006472FDF759FF00BF75785072696F72690E
:102B84007479203C202835290000000042F6686052
:102B9400C2F20000006848B142F68850C2F2000058
:102BA4000068B0FA80F04009400070470120704787
:102BB40042F69C60C2F20000006870472DE9F04FB5
:102BC40081B042F68850C2F20000006840B142F67B
:102BD4000060C2F200000168013101600020A7E03A
:102BE40042F69C60C2F20000016842F6F05211F114
:102BF400010BC2F20002C0F800B021D340F2005031
:102C0400C2F2000001680968002940F0948040F293
:102C14000853C2F2000301681F680760196042F696
:102C2400F451C2F200010B6801330B6001680968BA
:102C340019B10068C068006801E04FF0FF3010600F
:102C44001068834501D200206AE040F2005AC2F2C3
:102C5400000ADAF80000006800285DD042F69059B6
:102C640040F2105E40F2F848C2F20009C2F2000ECF
:102C7400C2F20008002000BFDAF80010C968CE686C
:102C8400374657F8045FAB4541D3D6E9023571693D
:102C94004A689D60BA426B6008BF4D600A68B56AB5
:102CA400013A0A607DB1D6E90721D5F804C006F1DE
:102CB40018039C4591604A6008BF69602968002236
:102CC4000139B2622960F56AD9F800108D4288BFD3
:102CD400C9F8005005EB85010EEB8102536872615F
:102CE4009C68C6E902349F605EF8213067605A1C14
:102CF4004EF82120D8F80010C96ADAF800208D4275
:102D040088BF012011680029B6D14FF0FF3542F683
:102D1400F052C2F2000202E04FF0FF3500201560CD
:102D240042F6A861C2F200010968002918BF012017
:102D340001B0BDE8F08F43F2F54043F27461C0F294
:102D44000000C0F2000141F25F22FDF76DFEB0B554
:102D5400C068C068002867D0D0E90713826A00F110
:102D6400180CD2F804E08B60E645596008BF536044
:102D7400136800218162591E116042F68851C2F223
:102D84000001096889B142F60461C2F20001D1E987
:102D9400002381629D68C0E90735C3F808C0531C4D
:102DA400C26AC5F804C00B602DE0D0E90213426981
:102DB40000F1040CD2F804E08B60E645596008BFCA
:102DC4005360116842F6905301391160C2F2000356
:102DD400C26A196840F2105E8A4288BF1A6002EB28
:102DE4008201C2F2000E0EEB81035C684361A568A8
:102DF400C0E90245C5F804C05EF82150C4F808C013
:102E0400681C4EF8210040F2F840C2F2000000684D
:102E1400C06A824291BF002042F6A861C2F200015A
:102E2400012088BF0860B0BD43F21A6043F27461A8
:102E3400C0F20000C0F2000141F2F542FDF7F4FDDA
:102E44002DE9F04F81B0FEF79AFE42F68850C2F2A7
:102E540000000168002900F0A880016801390160C0
:102E6400006830B10024FEF7B1FE204601B0BDE891
:102E7400F08F42F68050C2F2000000680028F1D0C2
:102E840042F6046BC2F2000BDBF8001042F6A869AC
:102E940040F2F8480029C2F20009C2F200085FD0EB
:102EA40042F6905A40F210534FF0000EC2F2000A5C
:102EB400C2F200034FF0010CDBF80C70FC68A76A47
:102EC400D4E90756796804F118029142AE6075603E
:102ED40008BF7E603968C4F828E001393960261DCE
:102EE4006769D4E902157A68B2428D60696008BFE7
:102EF4007D60396801393960E76ADAF800108F4279
:102F040088BFCAF8007007EB870103EB810255689C
:102F14006261A868C4E90250466053F82100AE60BB
:102F2400013043F82100D8F80000C06A874288BF06
:102F3400C9F800C0DBF800000028BDD140F2005001
:102F4400C2F200000168096819B10068C06800682D
:102F540001E04FF0FF3042F6F051C2F20001086088
:102F640042F60064C2F20004266856B1012700BF8D
:102F7400FFF724FE08B1C9F80070013EF8D1002023
:102F84002060D9F8000000283FF46CAFD8F80000A6
:102F94004EF60450CEF200004FF080510160BFF3B2
:102FA4004F8FBFF36F8F01245DE743F2746103A079
:102FB400C0F2000140F68B72FDF736FD757853635D
:102FC400686564756C657253757370656E64656469
:102FD40020213D203055000080B582B0FDF770FF00
:102FE40042F6A060C2F20000006898B141F22510D8
:102FF40042F6A46E4FF0030CC0F200000AA1802236
:10300400C2F2000E0023CDE900CEFFF7C3FC08B1E5
:1030140002B080BD43F2F66105A0C0F200014FF496
:10302400A372FDF701FD00BF546D72205376630057
:103034007852657475726E0000000000000000682C
:10304400000000680000006000010C080000006837
:10305400000000680000007000010908000000681A
:103064000000006800000008000102080000006879
:10307400000000685000000000010108000000206A
:10308400000000200000006000010C03000000208C
:10309400000000200000007000010903000000206F
:1030A40000000020000000080000020300000020CF
:1030B400040000205000000000000103050000008F
:1030C400CC300000000000000000010008010000F6
:1030D40000000100000300000404000000040000DC
:1030E400000001050D060000000001050E060000A9
:1030F40004000000C03A0000080000004030000056
:103104000200000074320000AA010000AB010000BC
:10311400AC010000AD010000010002000800100035
:1031240020000000B004002034310000A43100006D
:103134000700000002000000000000000000000082
:103144000C000000000000000C0000000100000062
:103154000C000000020000000C000000030000004E
:103164000000000000000000CF1900000000000073
:1031740078310000000000000100000000000000A1
:10318400000000200F000000FFFF0000000000000E
:103194000000000000000000FFFF0000000000002D
:1031A4000D0500004908000069080000E50300005F
:1031B40001050000C30300004D0400005B0400008F
:1031C40053080000650800006108000000000008C2
:1031D40000000008003C0000003C0000000000006B
:1031E40090A1000110A2000110A2000190A2000110
:1031F40090A2000190A10001C0A1000140A2000121
:1032040040A20001C0A20001C0A20001C0A10001AF
:1032140010A1000110A1000104A1000100A10001FE
:1032240080A1000104A2000100A2000184A2000107
:1032340080A2000180A10001E0A1000160A20001C0
:1032440060A20001E0A10001000000680000006825
:1032540000000070000000700000006000000060CA
:10326400003000200030002000000020000000009A
:1032740000000068000000682000002020000020FA
:103284002128202820707851756575652D3E70635E
:1032940048656164203D3D203020292026262028D1
:1032A40020707851756575652D3E752E7853656D62
:1032B4006170686F72652E784D75746578486F6CAF
:1032C40064657220213D20302029202900212820F6
:1032D4002820785461736B4765745363686564751B
:1032E4006C657253746174652829203D3D20282043
:1032F400282042617365547970655F7420292030F9
:1033040020292029202626202820785469636B73DD
:10331400546F5761697420213D20302029202900F1
:10332400212820282078436F7079506F736974695D
:103334006F6E203D3D20282028204261736554791A
:1033440070655F7420292032202920292026262018
:103354002820707851756575652D3E75784C656EBD
:1033640067746820213D203120292029002128204C
:103374002820282070764275666665722029203DD3
:103384003D2030202920262620282028207078510E
:103394007565756520292D3E75784974656D536989
:1033A4007A6520213D202820554261736554797047
:1033B400655F7420292030552029202900212820E8
:1033C400282070764974656D546F51756575652054
:1033D4003D3D203020292026262028207078517554
:1033E4006575652D3E75784974656D53697A6520F8
:1033F400213D2028205542617365547970655F74BE
:103404002029203055202920290021282028207017
:1034140076427566666572203D3D2030202920265F
:1034240026202820707851756575652D3E7578497C
:1034340074656D53697A6520213D202820554261C9
:103444007365547970655F742029203055202920D4
:10345400290028206354784C6F636B202920213D78
:103464002028202820696E74385F74202920313286
:10347400372029002820707851756575652029004A
:10348400707851756575652D3E75784974656D5311
:10349400697A65203D3D203000453A2F50726F6AAD
:1034A400656374732F524150726F6A656374732F2E
:1034B4004672656552544F535F50726F6A65637408
:1034C4002F72612F6177732F4672656552544F5383
:1034D4002F4672656552544F532F536F757263654F
:1034E4002F71756575652E63007078517565756506
:1034F400002820282028202820707844656C6179D1
:1035040065645461736B4C69737420292D3E75781E
:103514004E756D6265724F664974656D73203D3DED
:103524002028205542617365547970655F742029A1
:1035340020302029203F2028202820426173655410
:103544007970655F74202920312029203A202820B1
:10355400282042617365547970655F742029203096
:10356400202920292029007578496E646578546FD4
:10357400576169744F6E203C2028312900757849C1
:103584006E646578546F436C656172203C20283109
:1035940029007578496E646578546F4E6F74696656
:1035A40079203C2028312900785469636B436F7576
:1035B4006E74203D3D2028205469636B54797065F6
:1035C4005F742029203000282028202628207078A5
:1035D4005443422D3E784576656E744C6973744944
:1035E40074656D202920292D3E7078436F6E7461B7
:1035F400696E65722029203D3D2030007578536343
:10360400686564756C657253757370656E64656422
:10361400203D3D2030007078556E626C6F636B65A1
:10362400645443420049444C4500757853636865CB
:1036340064756C657253757370656E64656420217E
:103644003D2028205542617365547970655F74206C
:10365400292030550075785363686564756C65720C
:1036640053757370656E646564203D3D203155006B
:10367400453A2F50726F6A656374732F52415072CA
:103684006F6A656374732F4672656552544F535F56
:1036940050726F6A6563742F72612F6177732F465E
:1036A40072656552544F532F4672656552544F5399
:1036B4002F536F757263652F7461736B732E630080
:1036C400785461736B546F526573756D65007078CF
:1036D4004576656E744C69737400707854696D65D1
:1036E4004F757400785461736B546F4E6F746966D0
:1036F4007900453A2F50726F6A656374732F524193
:1037040050726F6A656374732F4672656552544FC5
:10371400535F50726F6A6563742F72612F617773A0
:103724002F4672656552544F532F46726565525445
:103734004F532F536F757263652F74696D65727380
:103744002E63007854696D6572002828285343421B
:103754005F54797065202A29202828307845303034
:103764003045303030554C29202B203078304430CF
:1037740030554C2920292D3E4943535220262028D8
:103784003078314646554C202929203D3D203000D3
:10379400453A2F50726F6A656374732F52415072A9
:1037A4006F6A656374732F4672656552544F535F35
:1037B40050726F6A6563742F72612F6673702F7312
:1037C40072632F726D5F6672656572746F735F707A
:1037D4006F72742F706F72742E6300282028207506
:1037E400696E74385F74202A20292028207078425A
:1037F4006C6F636B2029203E3D202628207563488A
:103804006561705B2030205D202920292026262038
:103814002820282075696E74385F74202A20292096
:1038240028207078426C6F636B2029203C3D202651
:1038340028207563486561705B202831303234304C
:1038440029202D2031205D2029202900282028200E
:1038540075696E74385F74202A20292028207078B6
:103864004C696E6B2029203E3D2026282075634834
:103874006561705B2030205D2029202920262620C8
:103884002820282075696E74385F74202A20292026
:10389400282070784C696E6B2029203C3D20262816
:1038A400207563486561705B2028313032343029DB
:1038B400202D2031205D2029202900282028207552
:1038C400696E74385F74202A20292028207076526B
:1038D400657475726E2029203E3D2026282075636C
:1038E400486561705B2030205D2029202920262630
:1038F400202820282075696E74385F74202A2029B6
:10390400202820707652657475726E2029203C3D03
:10391400202628207563486561705B202831303289
:10392400343029202D2031205D2029202900282011
:10393400282075696E74385F74202A202920282075
:1039440070784974657261746F722029203E3D203D
:103954002628207563486561705B2030205D20292E
:103964002029202626202820282075696E74385F97
:1039740074202A2029202820707849746572617483
:103984006F722029203C3D202628207563486561FC
:10399400705B2028313032343029202D2031205DD5
:1039A400202920290028202820282070784C696E9E
:1039B4006B2D3E78426C6F636B53697A65202920C6
:1039C400262028202820282073697A655F742029FE
:1039D40020312029203C3C202820282073697A6546
:1039E4006F66282073697A655F742029202A20284D
:1039F40020282073697A655F7420292038202920C3
:103A040029202D203120292029202920213D203042
:103A1400202920213D2030002820282028207369D7
:103A24007A655F74202920707652657475726E20F1
:103A340029202620282073697A655F74202920288C
:103A44002030783030303720292029203D3D203067
:103A540000453A2F50726F6A656374732F52415058
:103A6400726F6A656374732F4672656552544F535F
:103A74005F50726F6A6563742F72612F6177732F61
:103A84004672656552544F532F4672656552544FC2
:103A9400532F536F757263652F706F727461626C0C
:103AA400652F4D656D4D616E672F686561705F347C
:103AB4002E63000000000000040000000000006805
:103AC40000000068000100080000006800000068B1
:103AD4000001000820000020200000200000000356
:103AE4003C040020AC2E002000000003000004066B
:103AF400362E342E30004275696C742077697468F0
:103B04002052656E6573617320416476616E6365EE
:103B14006420466C657869626C6520536F667477BF
:103B2400617265205061636B6167652076657273AD
:0C3B3400696F6E20362E342E3000000029
:020000040100F9
:04A10000FFFFFFFF5F
:020000040100F9
:04A20000FFFDFFFF60
:020000040100F9
:04A28000F8F8FFFFEC
:04000005000008B53A
:00000001FF
