:020000040000FA
:10000000402400202511000005060000FF05000027
:10001000FF050000FF050000FF050000FF050000D0
:10002000000000000000000000000000FF050000CC
:10003000FF05000000000000FF050000FF050000B4
:100040007F1A0000511B0000071B0000151A00005A
:100050009D120000000018180000000000000000C1
:0800600000000400400035001F
:020000040000FA
:1000680040EA01039B0703D009E008C9121F08C032
:10007800042AFAD203E011F8013B00F8013B521EB2
:10008800F9D27047D2B201E000F8012B491EFBD229
:1000980070470022F6E710B513460A46044619468B
:1000A800FFF7F0FF204610BD421C10F8011B002985
:1000B800FBD1801A70472DE9FE4F81EA030404F052
:1000C800004421F0004100944FF0000B23F000435E
:1000D80050EA01045ED052EA03045BD0C3F30A5429
:1000E800C1F30A552C44A4F2F3340194A0FB025442
:1000F800C1F3130141F48011C3F3130343F48013D4
:1001080001FB024400FB034E840A970A44EA815427
:1001180047EA8357A4FB076802958D0A05FB078504
:100128004FEA932C04FB0C542705029D4FEA06580E
:1001380047EA1637B5EB08056EEB070C870E920EEB
:1001480047EA811742EA8312A7FB0201B6EB0B01CB
:1001580064EB00042B0D43EA0C335E1844EB1C508F
:10016800DA465146E7FB0201C5F313044FEA0B33A5
:1001780043EA14534FEA0432019C43EA0603A4F10C
:100188000C040294009CCDE900B400F06FF803B0B1
:10019800BDE8F08F00200146F9E700F0004230F09A
:1001A80000400AD0C10D01F56071C0F3160042EAA3
:1001B8000151C208400711437047002001467047AB
:1001C80030B50B46014600202022012409E021FA1F
:1001D80002F59D4205D303FA02F5491B04FA02F51C
:1001E8002844151EA2F10102F1DC30BD2DE9F05FB3
:1001F8000546002092469B4688460646814640248E
:100208001BE0284641464746224600F0D2F95346AD
:100218005A46C01A914110D311461846224600F09A
:10022800B9F92D1A67EB01084F4622460120002133
:1002380000F0B0F917EB00094E41201EA4F10104AB
:10024800DFDC484631462A464346BDE8F09F10B5F4
:10025800141E73F1000408DA401C41F100019218E1
:100268005B411A4301D120F0010010BD2DE9F04D8A
:1002780092469B4611B1B1FA81F202E0B0FA80F2DF
:100288002032904600F086F904460F4640EA0A00FC
:1002980041EA0B0153465A46084313D0114653EA24
:1002A800010019D0C8F14002504600F082F9054615
:1002B8000E4650465946424600F06CF9084305D0B0
:1002C800012004E020463946BDE8F08D00200543B2
:1002D80046EAE0762C4337430A986305E40AA0EB24
:1002E80008000022FD0A44EA47540A3002D50020DB
:1002F8000146E9E7010510196941DDE908450019DA
:100308006941BDE8F04DA2E72DE9FE4F804681EA3C
:100318000300C00F0C46009021F0004123F0004577
:10032800B8EB0200A94105D24046214690461C463A
:100338000B46024623F00040104347D0270DC7F371
:100348000A00C3F30A510290401A019040286BDA60
:10035800C3F3130040F4801B0098924620B1002399
:10036800D2EB030A63EB0B0B01985946C0F140022C
:10037800504600F00FF906460D4650465946019A78
:1003880000F027F910EB08006141002487EA1152B8
:1003980084EAE7731A4340D0009A62B3019A012AAB
:1003A8004FEA075215DC001B61EB02014FF00042D7
:1003B80002EA0752CDE90042001C41F5801132469D
:1003C8002B46FFF753FF03B0BDE8F08F40462146A8
:1003D800F9E7001B61EB0201001C41F580130018CE
:1003E8005B412018A2F5001747EB030140EAD570DE
:1003F800B6196D4111E06D084FEA360645EAC07539
:100408004FEA0752001B61EB0201001C41F5801105
:1004180049084FEA30000019514132462B4603B0D3
:10042800BDE8F04FFFF713BF0098012240000023FA
:10043800D0EB020263EBE073009821464FEAE074C8
:10044800B8EB000061EB0401E9E783F000435BE7E8
:1004580081F0004158E72DE9F04D81EA030404F0EA
:10046800004B21F0004514464FF0000A23F00041EC
:1004780050EA050220D054EA01021DD0C5F30A57FC
:100488000246C5F31303C1F31300C1F30A5640F43F
:10049800801543F48013A7EB0608101BD64608F214
:1004A800FD3873EB050002D308F1010801E092184A
:1004B8005B41B8F1000F03DA00200146BDE8F08D7A
:1004C80000204FF48011064684460EE0171B73EB9C
:1004D800050705D3121B63EB050306434CEA010C21
:1004E80049084FEA300092185B4150EA0107EDD104
:1004F80052EA030012D082EA040083EA05010843A5
:1005080005D0101BAB4106D20122002306E00022D1
:100518004FF0004302E06FF0010253101AEB06009F
:100528004CEB085110EB0A0041EB0B01BDE8F04D14
:10053800FFF78DBEC1F30A52C1F3130140F2FF3336
:1005480041F480119A4202DA00200146704740F2D5
:1005580033439A42A2F2334202DC524200F029B8F5
:1005680000F018B830B5041E71F1000404DB4FF038
:100578000044404264EB0101141E73F1000405DBE2
:100588001C464FF00043524263EB0403994208BFF4
:10059800904230BD202A04DB203A00FA02F1002004
:1005A80070479140C2F1200320FA03F319439040A9
:1005B8007047202A04DB203A21FA02F00021704714
:1005C80021FA02F3D040C2F12002914008431946B3
:1005D8007047202A06DBCB17203A41FA02F043EA9B
:1005E800E07306E041FA02F3D040C2F120029140E4
:1005F80008431946704700BE704700002DE9F041D6
:1006080046F22018C4F20008B8F80000B8F8201024
:1006180042F2904501EA0006B7B20024C2F2000592
:1006280027FA04F0C00704D055F8241009B1204671
:1006380088470134102CF3D1A8F81060BDE8F08188
:100648002DE9F04F81B00D46D5E90937CE6A4160F2
:100658004968836107622B88002704460020C4F29A
:10066800170706F1080207EB4323E0614F0307CAA7
:10067800236000284FF41073D5E90289D6E900EA0F
:1006880008BF07F580773F2808BF48F24023002AB3
:1006980018BF4FF430731F43A782EFF310834FF056
:1006A800010B8BF310882A8800F03F0001F03F010E
:1006B80041EA002CC2F1100144F20C02C4F2080213
:1006C80010680BFA01F188431060106883F31088F2
:1006D80046F2C0102268384010804FEAC9312068BD
:1006E80041EA4801A0F810C041EA4A1120682246B0
:1006F800C181206880F80CE0307E21680138B0FAAA
:1007080080F0400981F8D000686995F8201001F060
:1007180056F8A86995F82110224601F050F8F069BA
:1007280096F82410224601F04AF8306A96F8251007
:10073800224601F044F844F243410020C5F2412129
:100748002061A16001B0BDE8F08FF0B50246D0E9A4
:10075800000391E8700024F0C04ED3F82CC08480C8
:1007680010684FEA1E438582106806811068C380AE
:1007780049F6FF7000EA1543146800EA1640E38260
:10078800136858814EF22000C4F20100006842F25A
:100798005C43C2F200031B68C0F30264C0F302109A
:1007A800A34023FA00F044F6D353C1F26203A0FB3E
:1007B8000303980941F2360300FB03F04DF6836307
:1007C800C4F21B33D1E90045A0FB0303980C0628AB
:1007D8004FF0060088BF980C45EA04039C0000F11E
:1007E800010001D4002423E00125EFF3108485F3F0
:1007F800108844F20C05C4F208052E6826F4800619
:100808002E602D6843F2000584F31088C4F20F05AA
:1008180090262E7014684FF4807584F8DE00CC782A
:10082800A4068C6858BF4FF48065C4F340742C4408
:100838005B000FD51368022583F8DF00C8788B6842
:1008480040064FF4007005EA537358BF4FF4006038
:100858001844044310684482C86800283ED083685E
:100868001C051C4629D51468A4F89030848915689D
:10087800A5F89C40C4891568A5F89E4004681568C9
:10088800A5F8944049F6FF7505EA14461768C4F3BD
:100898004174A7F89660166886F89240446816680E
:1008A80005EA1445A6F898401668C4F34174A6F8FA
:1008B8009A50156885F893408468A4050FD5D0E947
:1008C800054516682C4386F8A640048A1568A5F8DD
:1008D800A840408A1468A4F8AA0000E00023106821
:1008E800A0F8903008691368A3F88000DCF81000BD
:1008F80058B11068BEFA8EF7038823F01F03DB1B7C
:100908001F330380908A1843908244F24340C5F213
:1009180041200968D06000201161F0BD818A026819
:1009280000201180704700680088C20B00200A6010
:1009380070470000B0B543F22404C4F2080400254F
:10094800C8200121257100F082F825702078002840
:10095800FCD1207840F00200207000BF207880078A
:10096800FCD4002004F8020C14F8020C0028FBD177
:10097800002004F11C0100BF11F8102002F07F02D2
:1009880001F8102011F91020002AFBD401300328A7
:10099800F2D1012000F00BF84EF2BB420021C4F264
:1009A800010201201170BDE8B04000F027B880B501
:1009B8000122EFF3108182F3108842F2D842C2F28A
:1009C800000232F810308BB94EF2FE3C42F234632A
:1009D800C4F2010CC0F20003BCF800E033F8103098
:1009E80043EA0E0343F42543ACF8003032F81030E4
:1009F800013322F8103081F3108880BD0122EFF313
:100A0800108182F3108842F2D842C2F2000232F812
:100A1800103023B132F81030013B22F8103032F890
:100A280010208AB94EF2FE3CC4F2010C42F2346244
:100A3800BCF80030C0F2000232F8100043F425423E
:100A480022EA0000ACF8000081F31088704742F2F7
:100A58005C42C2F20002126801FB00F041F2002180
:100A6800C0F27A018A420FD340F6FF01C0F23D017D
:100A780011444DF68362C4F21B32A1FB0212110D20
:100A8800A0FB0101E9B11FE04CF60021C3F69A3141
:100A980048F63813C0F24103B1FBF2F1984207D28D
:100AA8004FF47A7200FB02F0B0FBF1F0800808E026
:100AB8008900B0FBF1F0984206D24FF47A7100FB3E
:100AC80001F028B100F0CFBC4FF0FF3000F0CBBCF4
:100AD80070477047022818BF704742F2D04042F270
:100AE800C451C2F20000C0F2000100F093B841689E
:100AF80046F20032C4F2000252F8210040F080733E
:100B0800002042F821307047F0B581B042F23452EB
:100B1800C2F20002137840F200060D460446C2F203
:100B28000006D3B9012744F200011770EFF31080D3
:100B380087F31088C4F208010A6822F480020A6068
:100B4800096880F3108830461421FFF7A2FA45F2AD
:100B58000C40C4F2000086600770686800680028CE
:100B680004D456F8201019B108200DE00B200BE032
:100B78002968606011B1204600F0A6FE44F20030FA
:100B8800C4F254402060002001B0F0BD10B582B01E
:100B980001910092416840F2000246F2003CC2F224
:100BA8000002C4F2000C52F821E05CF8212022F087
:100BB80080724CF82120426845F20E41C4F20001CF
:100BC80042F400420C88A242FCD008228A70019AA2
:100BD80012B1019ACEF80420009A12B1009ACEF808
:100BE80008209EF8032002F0C004802C02D1AEF841
:100BF8000C3003E03F2A98BFAEF80E3018228A70F6
:100C080041685CF8210040F0807200204CF82120F7
:100C180002B010BD80B545F25422C5F24F02026001
:100C2800084600F073FE002080BD8A0701D4062222
:100C380006E0026A937803F07B0393700022026156
:100C4800C9071CBF002282611046704710B5C269EF
:100C58000123127803FA02F212F0060F02D00A7882
:100C6800120723D4026A4FF0000E92F802C00CF06B
:100C78000B039370036A8A78C0F80CE05A704A78BC
:100C88001C7802F0030204F0FC0422441A70CA78AB
:100C98009A74DA79097802F0A30201F05C01114430
:100CA800D971006A0CF07B01817001E04FF0030EEE
:100CB800704610BD8446C0E909130020CCF82C20EA
:100CC8007047026A002141609170C1694EF2801C30
:100CD8004A69012102F01F0301FA03F35209CEF217
:100CE800000C4CF82230BFF34F8FBFF36F8FC269EF
:100CF800D26A02F01F0301FA03F352094CF82230BA
:100D0800BFF34F8FBFF36F8FC269D26902F01F0321
:100D180001FA03F352094CF82230BFF34F8FBFF3A7
:100D28006F8FC269526A02F01F0301FA03F3520976
:100D38004CF82230BFF34F8FBFF36F8FEFF3108261
:100D480081F3108844F20403C069C4F208030078F0
:100D58004FF0004C19682CFA00F008431860186826
:100D680082F31088002070474FF0FF3200200A609D
:100D78004A6070470A780123934013F0060F05D0A4
:100D88000B6CDB681B781B0700F1E0802DE9F0474E
:100D980048F20003C4F2110343EA0222D1E90E36F5
:100DA8004FF0000843628378C66223F003035E1C99
:100DB80086704E68026280F80080C161C0F82880A1
:100DC80016B943F002038370CF6A4EF2001C07F095
:100DD8001F034FF0010ECEF2000C0EFA03F30CF1D4
:100DE80080047E0991F8285044F82630BFF34F8FCD
:100DF80046F2003AC4F2000ABFF36F8F5AF8276030
:100E08002A0126F480364AF827600CF540755AF80E
:100E18002760EA554A6942F2205902F01F06C2F2D9
:100E280000090EFA06F6530949F827000F7C44F822
:100E38002360BFF34F8FBFF36F8F5AF822303E0104
:100E480023F480334AF822305AF82230AE5449F855
:100E58002200CA690B7E02F01F060EFA06F6570931
:100E680044F82760BFF34F8FBFF36F8F5AF82260A3
:100E78001B0126F480364AF822605AF82260AB54E7
:100E880049F822004A6A91F8203002F01F060EFA4B
:100E980006F6570944F82760BFF34F8FBFF36F8FEB
:100EA8005AF822401B0124F480344AF822405AF8A8
:100EB8002240AB5449F82200EFF310828EF31088D9
:100EC80044F204050B78C4F208054FF000442E687C
:100ED80024FA03F326EA03032B602B6882F31088B5
:100EE800026A82F80280026A82F80480026A82F842
:100EF8000980026A82F80A80026A82F80B80026A14
:100F0800A2F81A800A780EFA02F340F2F932134274
:100F180002D0036A4024DC74036A06241C770B7829
:100F28000EFA03F3134203D0026A4FF47843938214
:100F3800D1E90163CA684FEAC20242EA03123EB12C
:100F4800032E08BF42F04002F22602E00322ADE081
:100F5800E226036A02271A70026A002596710A6C53
:100F6800936907EA4307082B036A08BF0A275F73D8
:100F7800066AD2E9013735721668DB0126F00106E8
:100F8800022EDEB267F345160AD1036AFF275F70A7
:100F98001268022A026A08BF46F01006D67117E0E6
:100FA800036ADE71D268036A97785F7057781E7893
:100FB80007F0030706F0FC0637441F70D7789F74C4
:100FC800DF79127807F0A30702F05C023A44DA717D
:100FD8000022C369C0E90322C0E90522D1F840E034
:100FE8005B699EF800105AF8234003F01F0524F4AB
:100FF80080344AF823405AF82340012404FA05F6BD
:101008000CF5C0755B09BFF35F8F45F823604CF89A
:101018002360C369DB6A5AF8236026F480364AF8ED
:1010280023605AF8236003F01F0604FA06F65B09EA
:10103800BFF35F8F45F823604CF82360C369DB6911
:101048005AF8236026F480364AF823605AF8236059
:1010580003F01F0604FA06F65B09BFF35F8F45F835
:1010680023604CF82360C3695B6A5AF8236026F44E
:1010780080364AF823605AF8236003F01F06B4400C
:101088005B09BFF35F8F45F823404CF823401C23CE
:10109800076A63F39F01B970DEF8141044F655131C
:1010A800C5F24333C0E90131BDE8F0471046704747
:1010B80003460020C3E905127047024680690860AC
:1010C8000021002091617047062070470620704774
:1010D80080B5D0F820E09EF802C00CF07B038EF8B3
:1010E8000230837803F00303A2EB030C0B44026A7B
:1010F800C0E9033C937843F080039370827802F050
:101108000302022A05D10988006A41F47E41C1819F
:1011180002E00978006AC170002080BD00F01AF86A
:1011280000F048FBFEE74EF22000C4F2010081798E
:10113800006842F24042C2F20002C0F3026052F874
:10114800211021FA00F042F25C41C2F2000108606D
:101158007047000010B54EF60850CEF200004FF46C
:101168007001C0F8801040F20001C0F20001016077
:1011780000200024FFF7AEFC00F090F80120FFF7F4
:10118800A9FC42F24000C2F2000080F30A88002065
:1011980000F032F8FFF7C7FFFFF7CCFB0320FFF79B
:1011A80006FC40F61050C4F208004FF6FF7100BF6D
:1011B80020F8141001340C2CFAD10320FFF71EFC80
:1011C8000320FFF7F4FB0420C4F20E0000210160A5
:1011D80041608160C1600320FFF710FC0220FFF727
:1011E80079FC012000F008F800F0F8F80020BDE8CC
:1011F800104000F0F1B80000F0B581B042F2086587
:10120800C0F200052E68044676B16868071D00BF65
:101218007879844204D157E90101091AFEF739FFA8
:10122800013E07F10C07F3D1AE6886B1E86800F11A
:10123800080500BF6879844205D155E9020229688A
:10124800121AFEF70DFF013E05F11005F2D101B0AB
:10125800F0BD000000BE00BFFEE7406800B1704767
:1012680080B542F2E840202142F26042C2F200001A
:10127800C4F21701C2F200020123FFF787FC42F211
:101288006841C2F2000100280860BDE88040E6D04D
:1012980001BE7047002000F0BEBA00002DE9F04101
:1012A8004EF2FE34C4F201044AF203504CF2001527
:1012B8002080C4F201050120A88000BFA88800286A
:1012C800FCD147F200010120C4F2000128808860A7
:1012D800086042F2404642F6005041F20022C2F253
:1012E8000006C0F23110C0F27A02C6E9000243F2E9
:1012F80000604FF40041C0F26E10C6E902104CF2D3
:101308000020C0F6EB304EF220073161C4F201072D
:101318007061B879396856F82000C1F3026142F269
:101328005C48C840C2F20008C8F800000020607598
:10133800092087F8820094F8820018B994F883008D
:10134800800744D094F8820050B9012084F88200C4
:10135800C8200121FFF77BFB94F882000128FBD10C
:10136800002084F8830084F882000020B87400BF4D
:10137800387F0007FCD543F2021038810020B8728C
:10138800387F8006FCD50320287741F22120C2F25D
:10139800010038600520B871B879396856F820001E
:1013A800C1F30261F022C840C8F8000042F2080008
:1013B800C4F20000F12101710121017002714FF4A2
:1013C8002540397487F832102080BDE8F0814FF449
:1013D8007A70FFF77EFBC8E77047000070B584B0ED
:1013E80048F248060320C4F20006FFF7E0FA6FF05F
:1013F800FF0042F2206430604FF0FF300021C0F25D
:1014080000040122CDE9020054F8213002FA01F566
:10141800002B18BFA84301310529F5D14EF28032BF
:101428000190002001A9CEF2000200BF51F820303F
:1014380006EB8005AB6242F8203001300328F5D175
:101448000320FFF7DBFA46F200310020C4F2000166
:1014580054F820200AB141F820200130052804BFA3
:1014680004B070BDF4E701380028FCD170470000D3
:101478002DE9F04F81B00446008800285AD043F285
:1014880040084EF2BB4B0025C4F208080FF2AC0A24
:10149800C4F2010B4FF00109002700BF60685AF839
:1014A800272000EBC500416891423CD100689BF8B9
:1014B800001000F0B85009FA07F6B0F1807F06EA8C
:1014C800010015D150B90120FFF771FA9BF800000F
:1014D80030438BF800000120FFF790FA18F9170045
:1014E800002820D418F8170040F0800015E000BF4D
:1014F80050B10120FFF75BFA9BF80000B0438BF86E
:1015080000000120FFF77AFA18F91700B0F1FF3F41
:1015180009DC18F8170000F07F0008F81700C82049
:101528000121FFF794FA0137032FB7D1208801353D
:101538008542B1D301B0BDE8F08F00BF02040000BE
:1015480003040000040400009AB042F24C60C0F2A8
:101558000000D0F808A0D0E90051DAF800202846A9
:10156800904785480822179083A0017A40688DF833
:101578006410DAF80830189017A9284698470A2006
:101588004FF47A71FFF763FA42F26C4042F2545119
:10159800C2F20000C0F20001FFF752F842F26848B8
:1015A800C2F200080028C8F8000040F0B58042F2F6
:1015B8006C40C2F2000006A9FFF7B5F90028C8F888
:1015C800000040F0B48042F26C4042F2AC51C2F2EA
:1015D8000000C0F20001FFF7B8F842F24061C0F223
:1015E80000010A68C8F800002020C4F21700506003
:1015F80042F2604B42F2E840C2F2000BC2F2000035
:10160800C2F808B0FFF780FA0028C8F8000040F0D8
:10161800998042F2E840C2F20000FFF768FA002819
:10162800C8F8000040F0998042F26C40C2F2000015
:10163800FFF774F90028C8F8000062D19FED4C0B41
:101648009FED508A50EC109B059000BFBBF800003E
:1016580000EE100AB8EE400A80EE080A10EE100AF2
:10166800FEF79BFD059E4A463346FEF724FDBBF870
:101678000220044600EE102A0F46B8EE400A80EE1B
:10168800080A10EE100AFEF788FD4A463346FEF7B0
:1016980012FDBBF8042041EC190B00EE102AB8EE3D
:1016A800400A80EE080A10EE100AFEF776FD4A4658
:1016B8003346FEF700FD41EC100B07AE8DED009BA5
:1016C80030468DED020B30A122463B4600F08CFAE5
:1016D800DAF808403046FEF7E7FC0246284631466D
:1016E800A0474FF47A704FF47A71FFF7B0F942F2DD
:1016F8006C40C2F20000FFF711F90028C8F800009A
:10170800A4D042F2B47042F2A471C0F20000C0F258
:1017180000015C22FFF79EFD42F2C77042F2A471FD
:10172800C0F20000C0F200014422FFF793FD42F22C
:10173800C77042F2A471C0F20000C0F20001462254
:10174800FFF788FD42F2B47042F2A471C0F20000C3
:10175800C0F200015222FFF77DFD42F2B47042F25E
:10176800A471C0F20000C0F200015522FFF772FD1B
:101778006666666666660A4031303061736B0D0ACC
:101788000000000000F07F456164635B305D5F76B8
:101798003D25660A2C206164635B315D5F763D25DB
:1017A800660A2C206164635B325D5F763D25660ABC
:1017B8000000000080B5FFF7C7FE002080BD0028AC
:1017C80028D44EF2001CCEF2000C090100EB0C03E9
:1017D80083F8001342F22051C2F2000141F82020A0
:1017E80046F20031C4F2000151F82020012322F40E
:1017F800803241F8202051F8201000F01F024009E3
:1018080003FA02F20CEB8003BFF35F8FC3F8802169
:101818004CF8202070472DE9F04190B0EFF3038198
:1018280042F220526FF35F21C2F2000202EB810103
:1018380046F2C02251F8404CEFF303816FF35F2169
:10184800C4F2000252F8213023F4803342F82130E8
:1018580052F8211001906068A1690088226AADF8E9
:10186800000000200390029251B3E069C0B100F17A
:10187800140890E80E5098E8600108AF87E80E5009
:10188800CDE90D56059D9DE8CE00456180E8CE0066
:10189800DDE90621CDF83C80C0E90621A16900E018
:1018A80068468847E06958B1DDE90C65DDE90E4C0A
:1018B80008AF8ECFC0E9046580E88E00C0E9064C09
:1018C80010B0BDE8F081000001F10E0212F80B3CE7
:1018D800402B06D3B2F800C05FFA8CF343EA0C231E
:1018E800138012F80C3C10323F2BEFD845F210420F
:1018F800C4F2000208231370406840F20003C2F2E9
:10190800000343F8201018201070704770B5044683
:10191800FFF7AEFD42F2E44CEFF31080012181F3B2
:101928001088C2F2000CDCF8001039B940F60351F7
:10193800C4F2080100220A7040220A70DCF8001084
:101948000131CCF8001080F31088208818B340F6D5
:10195800000E0021C4F2080E606800EBC10250F8C6
:1019680031305268DD034FEA1220D2B20BD50EEBAC
:10197800801555F8226026F4803645F8226023F455
:10198800803645F822600EEB8010013140F8223095
:1019980020888142E0D30120EFF3108180F3108882
:1019A800DCF8000020B1DCF800000138CCF80000B9
:1019B800DCF8000038B940F60350C4F208000022F1
:1019C80002708022027081F3108870BDB0B584B0B7
:1019D8000446806A40B1D0E900CED0E90253CDE98F
:1019E80000CECDE9025300E06846E369D4F824C08C
:1019F8001B78E56AC0E90032C0E90215E047A06A31
:101A080010B19DE82E002EC004B0B0BDB0B5EFF304
:101A180003806FF35F20A0F1100542F22050C2F25C
:101A2800000050F825008178036A01F003010229BB
:101A380012BF5979198A6FF35F211A79D40602F017
:101A4800380203D51C7FE40708BF40321C7904F034
:101A5800C7041C71436A0BB1FFF7B8FF46F20030A8
:101A6800C4F2000050F8251021F4803140F8251008
:101A780050F82500B0BD10B582B0EFF3038040F2F6
:101A8800FC7101EA800046F2C021C4F2000142580C
:101A980022F48032425042F22052C2F200024158EF
:101AA800104450F8404CA07800F00302206A022A43
:101AB80012BF4179018A6FF35F21A069019198B142
:101AC800606901A9FEF7CCFAA0786169A26900F003
:101AD80003000144101A6161A0610ED1606A60B10F
:101AE80020460021012203E0606A30B1204604222A
:101AF80002B0BDE81040FFF769BF02B010BD10B5D5
:101B0800EFF303806FF35F20A0F1100442F220503E
:101B1800C2F2000050F82400016A8A7802F07B02C1
:101B28008A70416A19B100210222FFF74FFF46F27D
:101B38000030C4F2000050F8241021F4803140F83D
:101B4800241050F8240010BDEFF3038040F2FC711C
:101B580001EA800046F2C021C4F20001425822F492
:101B68008032425042F22052C2F2000241581044E0
:101B780050F8400CC1694A6B0169C2B9C1B181789A
:101B880001F00302C168022A05D10988026A41F4FA
:101B98007E41D18102E00978026AD17081780269B8
:101BA80001F00303D11AC26801611A44C26071B915
:101BB800016A8A7802F07B0204328A70416A00293D
:101BC8004FF00001C1601CBF8022FFF7FFBE7047C5
:101BD8004068022818BF704742F23550C2F2000030
:101BE80001210170704700000FB4084B10B504A91B
:101BF80002AA039800F0CEF8044602A9002000F0DB
:101C080060FC204610BC5DF814FB0000CB240000EB
:101C18002DE9FF5F82B00021DDE90430020DDDF817
:101C280040B0034318D044F61050A2F2FF324243AA
:101C38001514119801281FD0A5EB0B00401C5FEA72
:101C4800000A4FF000064E4FDFF83891B046504674
:101C580015D5CAF1000413E0119801244AA30128FC
:101C680001D16FEA0B010298119AC0E90031C0E96D
:101C7800024206B0BDE8F09FCBF10000DFE7044662
:101C88000021404A491842EB0450CDE9001012E007
:101C9800E00707D032463B4640464946FEF70BFA76
:101CA8008046894632463B4610461946FEF703FAF7
:101CB80006460F466410002CEAD1DDE90401DDE98F
:101CC8000023BAF1000F06DAFEF7F5F942464B4653
:101CD800FEF7F1F905E0FEF7BEFB42464B46FEF77C
:101CE800BAFB04460E460022284BFEF73BFC03D8FD
:101CF8004FF0FF30014607E00022254B20463146D1
:101D0800FEF702FBFEF716FC102409E0002C0ADBA4
:101D18000A220023FEF76AFA039B30321A55641E22
:101D280050EA0102F2D1641C039AC4F1110314446D
:101D3800119A012A03D0012208430DD10AE0084371
:101D480004D000204FF0110B119072E7A3EB0B05A4
:101D58006D1E0DE05B4504DD4FF0000205F1010545
:101D680004E003DA4FF00002A5F10105002AECD0E7
:101D780002981199C0E90231C0E9004579E70000ED
:101D8800000014400000F03F300000000000F04365
:101D98000000E03F2DE9FF4F95B09B468946064677
:101DA80000250FE2252877D100242746F84A01218B
:101DB800059400E0044316F8013F203B01FA03F0C4
:101DC8001042F7D130782A2811D06FF02F033078DD
:101DD800A0F13002092A16D8059A44F0020402EB51
:101DE800820203EB42021044761C0590EFE759F893
:101DF800042B0592002A03DA504244F4005405905B
:101E080044F00204761C30782E2816D116F8010FFB
:101E180044F004042A280DD06FF02F023078A0F186
:101E28003003092B09D807EB870302EB4303C718D4
:101E3800761CF3E759F8047B761C30786C280FD0B1
:101E480006DC4C2817D068280DD06A2814D104E085
:101E5800742810D07A280FD10DE044F400140AE059
:101E680044F4801401E044F440147278824202D1B0
:101E780004F58014761C761C307866280BD013DCA9
:101E8800582877D009DC002875D04528F6D0462890
:101E9800F4D047281AD19DE118E0632835D064288A
:101EA80079D0652812D195E1702873D008DC6728AD
:101EB800F1D069286FD06E280DD06F2806D1B5E013
:101EC80073282CD0752875D0782874D05A4617995D
:101ED80090476D1C75E1C4F30250022809D003280D
:101EE8000DD0D9F8001004280DD00D6009F10409AF
:101EF80067E1D9F80010EA17C1E90052F6E7D9F806
:101F080000100D80F2E70D70F0E719F8041B8DF84A
:101F1800001000208DF80100EA46012003E059F87E
:101F280004AB4FF0FF3061074FF0000102D40DE021
:101F380008F101018846B9420FDA8045F8DB1AF842
:101F480008100029F4D108E008F10101884681420F
:101F5800FADB1AF808100029F6D105985B46A0EBC1
:101F6800080721463846179A00F094FA284400EBEF
:101F7800080507E04DE029E10DE01AF8010B5A4683
:101F880017999047B8F10108F7D25B4621463846C1
:101F9800179A13E142E00A220092C4F302524FF06A
:101FA800000A022A08D059F804CB032A4FEAEC7138
:101FB8000AD00DE029E02AE009F1070121F0070223
:101FC800F2E802C1914609E00FFA8CFC4FEAEC7185
:101FD800042A03D14FFA8CFC4FEAEC71002907DA86
:101FE8000A460021DCF1000C61EB02012D2202E01F
:101FF800220504D52B228DF80420012203E0E207F4
:1020080001D02022F7E7904659E00A2102E0102289
:102018000DE010214FF0000A00910BE010224FF064
:10202800000A44F004040827009203E008224FF055
:10203800000A0092C4F30252022A05D059F804CBD0
:102048000021032A08D009E009F1070121F007025D
:10205800F2E802C1914605E01FFA8CFC042A01D17E
:102068000CF0FF0C4FF00008220728D5702806D086
:10207800009B83F0100353EA0A0305D00EE04022C8
:102088008DF80420012208E05CEA010206D0302223
:102098008DF804208DF8050002229046009B83F0FD
:1020A800080353EA0A030AD15CEA010201D1620774
:1020B80005D530228DF804204FF001087F1E5828DE
:1020C80004D034A003900EA802900DE036A0F9E7E2
:1020D80053466046009AFEF789F884460398825C66
:1020E8000298401E029002705CEA0100F0D102984A
:1020F80006A9081A00F1200A600702D524F48034E2
:1021080000E00127574502DDA7EB0A0000E00020A8
:1021180000EB0A01009005984144401A0590E0033D
:1021280006D45B462146179A059800F0B3F9054492
:10213800002706E001A85A46C05D179990476D1C14
:102148007F1C4745F6DBE0030CD55B462146179A12
:10215800059800F09FF9054404E030205A46179985
:1021680090476D1C0099481E00900029F5DC08E096
:10217800029802995A460078491C0291179990478B
:102188006D1CBAF10001AAF1010AF1DC65E1000059
:102198000928010030313233343536373839616235
:1021A80063646566000000003031323334353637F9
:1021B80038394142434445460000000000F058F9D0
:1021C8000544761C307800287FF4ECAD19B0284619
:1021D800BDE8F08F620700D4062709F1070222F054
:1021E800070CFCE80223E14603F000485FEA080C0C
:1021F80002D00FF2702C0DE05FEA045C02D50FF2FA
:10220800682C07E05FEAC47C02D00FF2602C01E082
:10221800AFF2700C4FF0FF3823F00043CDF850C0F8
:1022280065280CD006DC452809D046281DD047284B
:102238003DD13DE0662818D067287ED138E00021DE
:10224800112F01DB112000E0781CCDE9000106A95F
:102258000EA8FFF7DDFCDDE90F010E9A03910021BE
:10226800009207F1010A04914DE04FF000400097F9
:10227800CDE9011006A90EA8FFF7CAFCDDE90F0297
:1022880003920E9B11990022DDF80CA00093049292
:1022980011B9791C00EB010AB7EB0A0004D4C0F1AC
:1022A800FF3007F1010A0490AAEB0700019044E00F
:1022B800012F00DA01270021112F01DD112000E094
:1022C8003846CDE9000106A90EA8FFF7A1FCDDE913
:1022D8000F010E9A0391002104910092BA4621073A
:1022E8000CD40399514500DA8A46BAF1010F05DD8D
:1022F800009AAAF10101515C302908D0B84202DAEB
:1023080010F1040F06DA0121CDE9011015E0AAF158
:102318000101E9E7002805DC049901440491AAEBCE
:10232800000102E0411C514500DD8A460499401A2B
:10233800401C01904FF000400290200704D40198FF
:10234800504501DBCDF8048000208DF84F0002983D
:102358000DF14F07B0F1004F25D02B200E900298B9
:102368004FF0020800280CDA404202902D200E900F
:1023780007E00A210298FDF723FF3031029007F8A1
:10238800011DB8F10001A8F10108F2DC029800284B
:10239800EFD1791E0E980870307800F0200040F0D8
:1023A800450007F8020D12A8C01B00F10708149891
:1023B800007800B1012000EB0A01019801EBE071FF
:1023C80005984144401A401E0590E00306D45B4638
:1023D8002146179A059800F05DF80544149800788E
:1023E80018B15A46179990476D1CE00324D55B46EF
:1023F8002146179A059800F04DF805441CE004980A
:10240800002807DBDDE90301884203DD0098405C12
:10241800179901E0179930205A469047049805F11A
:102428000105401C04900198401E019004D12E2003
:102438005A46179990476D1CBAF10001AAF1010A92
:10244800DDDC05E017F8010B5A46179990476D1C1B
:10245800B8F10001A8F10108F4DC5B462146179A9F
:102468000598ABE62D0000002B00000020000000BE
:102478002DE9F041044600251E461746880404D479
:1024880005E039462020B0476D1C641EF9D5284662
:10249800BDE8F0812DE9F041044600251E4690462E
:1024A800C80301D5302700E02027880404D505E0BB
:1024B80041463846B0476D1C641EF9D52846BDE82C
:1024C800F0810A68531C0B601070704700000068A8
:1024D800000000680000006000010C0800000068AF
:1024E8000000006800000070000109080000006892
:1024F80000000068000000080001020800000068F1
:1025080000000068540000000001010814000020C9
:10251800140000200000006000010C0314000020DB
:1025280014000020000000700001090314000020BE
:10253800140000200000000800000203140000201E
:1025480028000020540000000000010300000000E3
:102558000000000000000000000000000F00000064
:1025680004000000DFFFFFFF0000000002FF000082
:102578006312000000000000842500000000000035
:10258800010000003F0000003F00000000000000C4
:102598000000000000000000DFFFFFFFDFFFFFFF7B
:1025A800FFFF00000E000000000000000000000017
:1025B80000000000000000000018000007000000F4
:1025C800D02500000000000000800000010000008D
:1025D80000800000020000000080000003000000EE
:1025E80000000100080100000000010000030000D5
:1025F800000001050D060000000001050E060000A0
:1026080004000000D827000008000000D4240000BF
:102618000200000094270000AA010000AB0100009E
:10262800AC010000AD0100006001000001000200E3
:1026380008001000200000001400002048260000B8
:1026480004000000F024002058260000C8260000DE
:102658000700000002000000000000000000000069
:102668000C000000000000000C0000000100000049
:102678000C000000020000000C0000000300000035
:102688000000000000000000D91B0000000000004E
:102698009C2600000000000001000000000000006F
:1026A800240000200F000000FFFF000000000000D1
:1026B8000000000000000000FFFF00000000000014
:1026C8007D0D0000B9100000D9100000550C000065
:1026D800710D0000330C0000BD0C0000CB0C000095
:1026E800C3100000D5100000D11000000000000841
:1026F80000000008002C0000002C00000000000072
:1027080090A1000110A2000110A2000190A20001F6
:1027180090A2000190A10001C0A1000140A2000107
:1027280040A20001C0A20001C0A20001C0A1000196
:1027380010A1000110A1000104A1000100A10001E5
:1027480080A1000104A2000100A2000184A20001EE
:1027580080A2000180A10001E0A1000160A20001A7
:1027680060A20001E0A1000100000068000000680C
:1027780000000070000000700000006000000060B1
:102788000028002000280020000000200000006829
:102798000000006840000020400000207372632F92
:1027A80068616C5F656E7472792E63004653505F82
:1027B80053554343455353203D3D206572720046AF
:1027C80053505F535543434553533D3D6572720023
:1027D80000000068000000680001000800000068B0
:1027E80000000068000100084000002040000020B0
:1027F800000000035C2400203825002000000003AE
:1028080000000406362E342E30004275696C7420A0
:10281800776974682052656E6573617320416476C8
:10282800616E63656420466C657869626C652053E7
:102838006F667477617265205061636B61676520AC
:1028480076657273696F6E20362E342E3000000064
:020000040100F9
:04A10000FFFFFFFF5F
:020000040100F9
:04A20000FFFDFFFF60
:020000040100F9
:04A28000F8F8FFFFEC
:0400000500001125C1
:00000001FF
