:020000040000FA
:10000000402400201919000075090000E5080000CF
:10001000E5080000E5080000E5080000E50800002C
:10002000000000000000000000000000E5080000E3
:10003000E508000000000000E5080000E5080000F9
:10004000F1250000C3260000792600008725000066
:10005000ED1A00005F240000432300000000C144AB
:100060000080364400001818000000000000000066
:0800700000000400400035000F
:020000040000FA
:1000780040EA01039B0703D009E008C9121F08C022
:10008800042AFAD203E011F8013B00F8013B521EA2
:10009800F9D27047D2B201E000F8012B491EFBD219
:1000A80070470022F6E710B513460A46044619467B
:1000B800FFF7F0FF204610BD421C10F8011B002975
:1000C800FBD1801A70472DE9FE4F81EA030404F042
:1000D800004421F0004100944FF0000B23F000434E
:1000E80050EA01045ED052EA03045BD0C3F30A5419
:1000F800C1F30A552C44A4F2F3340194A0FB025432
:10010800C1F3130141F48011C3F3130343F48013C3
:1001180001FB024400FB034E840A970A44EA815417
:1001280047EA8357A4FB076802958D0A05FB0785F4
:100138004FEA932C04FB0C542705029D4FEA0658FE
:1001480047EA1637B5EB08056EEB070C870E920EDB
:1001580047EA811742EA8312A7FB0201B6EB0B01BB
:1001680064EB00042B0D43EA0C335E1844EB1C507F
:10017800DA465146E7FB0201C5F313044FEA0B3395
:1001880043EA14534FEA0432019C43EA0603A4F1FC
:100198000C040294009CCDE900B400F08FF903B080
:1001A800BDE8F08F00200146F9E72DE9F04D81EA1E
:1001B800030404F0004B21F0004514464FF0000AF8
:1001C80023F0004150EA050220D054EA01021DD074
:1001D800C5F30A570246C5F31303C1F31300C1F36D
:1001E8000A5640F4801543F48013A7EB0608101B49
:1001F800D64608F2FD3873EB050002D308F1010872
:1002080001E092185B41B8F1000F03DA00200146C3
:10021800BDE8F08D00204FF48011064684460EE0BC
:10022800171B73EB050705D3121B63EB0503064386
:100238004CEA010C49084FEA300092185B4150EA39
:100248000107EDD152EA030012D082EA040083EAE2
:100258000501084305D0101BAB4106D2012200233B
:1002680006E000224FF0004302E06FF00102531055
:100278001AEB06004CEB085110EB0A0041EB0B019E
:10028800BDE8F04D00F00BB930B5041E71F1000463
:1002980004DB4FF00044404264EB0101141E73F18B
:1002A800000405DB1C464FF00043524263EB040395
:1002B800101A8B4101D2012030BD002030BD30B56D
:1002C800041E71F1000404DB4FF00044404264EB6B
:1002D8000101141E73F1000405DB1C464FF00043B6
:1002E800524263EB0403101A8B4101D3012030BD45
:1002F800002030BD30B5041E71F1000404DB4FF05E
:100308000044404264EB0101141E73F1000405DB54
:100318001C464FF00043524263EB0403801A994194
:1003280001D2012030BD002030BD0EB540F233416E
:1003380002910021CDE900110A460B4600F0BEF8F3
:1003480003B000BD00F0004230F000400AD0C10DFB
:1003580001F56071C0F3160042EA0151C208400776
:100368001143704700200146704701F0004330B444
:1003780021F0004150EA010206D00A0DA2F5607290
:10038800C1F31301002A02DC30BC00207047440F7F
:1003980044EAC104C100E01830BC00EBC25000F0D0
:1003A80047B830B50B46014600202022012409E059
:1003B80021FA02F59D4205D303FA02F5491B04FA16
:1003C80002F52844151EA2F10102F1DC30BD2DE929
:1003D800F05F0546002092469B46884606468146C1
:1003E80040241BE0284641464746224600F09BF938
:1003F80053465A46C01A914110D311461846224610
:1004080000F082F92D1A67EB01084F4622460120B9
:10041800002100F079F917EB00094E41201EA4F1E4
:100428000104DFDC484631462A464346BDE8F09FD2
:100438000029A8BF7047401C490008BF20F00100F0
:10044800704710B4B0FA80FC00FA0CF050EA0104CE
:1004580004BF10BC704749B1CCF1200421FA04F460
:1004680011FA0CF118BF012121430843A3EB0C0139
:10047800CB1D4FEA00614FEA102042BF002010BC9C
:10048800704700EBC35010440029A4BF10BC70474C
:10049800401C490008BF20F0010010BC704710B58F
:1004A800141E73F1000408DA401C41F1000192188F
:1004B8005B411A4301D120F0010010BD2DE9F04D38
:1004C80092469B4611B1B1FA81F202E0B0FA80F28D
:1004D8002032904600F018F904460F4640EA0A0018
:1004E80041EA0B0153465A46084313D0114653EAD2
:1004F800010019D0C8F14002504600F014F9054631
:100508000E4650465946424600F0FEF8084305D0CC
:10051800012004E020463946BDE8F08D002005435F
:1005280046EAE0762C4337430A986305E40AA0EBD1
:1005380008000022FD0A44EA47540A3002D5002088
:100548000146E9E7010510196941DDE90845001987
:100558006941BDE8F04DA2E72DE9FE4F804681EAEA
:100568000300C00F0C46009021F0004123F0004525
:10057800B8EB0200A94105D24046214690461C46E8
:100588000B46024623F00040104347D0270DC7F31F
:100598000A00C3F30A510290401A019040286BDA0E
:1005A800C3F3130040F4801B0098924620B1002347
:1005B800D2EB030A63EB0B0B01985946C0F14002DA
:1005C800504600F0A1F806460D4650465946019A95
:1005D80000F0B9F810EB08006141002487EA1152D5
:1005E80084EAE7731A4340D0009A62B3019A012A59
:1005F8004FEA075215DC001B61EB02014FF0004285
:1006080002EA0752CDE90042001C41F5801132464A
:100618002B46FFF753FF03B0BDE8F08F4046214655
:10062800F9E7001B61EB0201001C41F5801300187B
:100638005B412018A2F5001747EB030140EAD5708B
:10064800B6196D4111E06D084FEA360645EAC075E6
:100658004FEA0752001B61EB0201001C41F58011B3
:1006680049084FEA30000019514132462B4603B081
:10067800BDE8F04FFFF713BF0098012240000023A8
:10068800D0EB020263EBE073009821464FEAE07476
:10069800B8EB000061EB0401E9E783F000435BE796
:1006A80081F0004158E7C1F30A52C1F3130140F247
:1006B800FF3341F480119A4202DA00200146704764
:1006C80040F233439A42A2F2334202DC524200F033
:1006D8002AB800F019B8000030B5041E71F1000402
:1006E80004DB4FF00044404264EB0101141E73F137
:1006F800000405DB1C464FF00043524263EB040341
:10070800994208BF904230BD202A04DB203A00FA03
:1007180002F1002070479140C2F1200320FA03F350
:10072800194390407047202A04DB203A21FA02F04E
:100738000021704721FA02F3D040C2F12002914013
:10074800084319467047202A06DBCB17203A41FA9E
:1007580002F043EAE07306E041FA02F3D040C2F146
:100768002002914008431946704780B542F2704014
:1007780043F2C401C2F20000C0F2000100F039F9EE
:1007880058B942F2704043F21C11C2F20000C0F2A4
:10079800000100F0B3F958B980BD43F2E73043F2E5
:1007A800E031C0F20000C0F20001072201F05AF95E
:1007B80043F2E73043F2E031C0F20000C0F200013A
:1007C8000A2201F04FF970B582B043F29011C0F2DD
:1007D80000018D680E680120D5F808C08DF8050065
:1007E8000DF10502304623210123E0470A204FF48A
:1007F8007A7100F0FEFA0720AC688DF806000DF15A
:100808000602304623210123A0470A204FF47A71BB
:1008180000F0EFFA1020AD688DF807000DF107021F
:10082800304623210123A847B4204FF47A7100F001
:10083800E0FA02B070BD000080B582B043F29010BB
:10084800C0F20000826800210068D2F804C0ADF848
:1008580006100DF1060223210123E047BDF806002A
:100868009FED051A00BA000C00EE100AB8EE400A17
:1008780080EE010A02B080BD9A99993F80B543F293
:100888007C21C0F200010A682023C4F217035360D8
:10089800906042F23450C2F2000000F007FB38B911
:1008A80042F23450C2F2000000F0F3FA58B980BDA9
:1008B80043F2FE3043F2F831C0F20000C0F200010A
:1008C800082201F0CFF843F2FE3043F2F831C0F2CB
:1008D8000000C0F200010B2201F0C4F800BE70470E
:1008E80000EE100A9FED0D1AB8EE400A9FED0C2A93
:1008F80020EE010A9FED0C3A80EE020A9FED092ACC
:1009080080EE011AB4EE403A9FED080AF1EE10FAB3
:1009180021EE021A30FE010A704700BF33335340FC
:1009280000F07F45000048430AD7233C0000000040
:1009380080B543F29011C0F2000107C912689047D0
:1009480000B980BD02A007A1062201F08BF800BF04
:100958004653505F53554343455353203D3D20650F
:1009680072723100693263342E6300002DE9F04160
:1009780046F22018C4F20008B8F80000B8F82010B1
:1009880042F2944501EA0006B7B20024C2F200051B
:1009980027FA04F0C00704D055F8241009B12046FE
:1009A80088470134102CF3D1A8F81060BDE8F08115
:1009B80043F23020C0F2000081680068CB6940F241
:1009C8000E410022184743F23020C0F2000081682F
:1009D8000068CB6940F20E410022184743F23020EC
:1009E800C0F2000081680068CB6940F20E41012224
:1009F80018472DE9F04F81B00D46D5E90937CE6A81
:100A080041604968836107622B88002704460020FB
:100A1800C4F2170706F1080207EB4323E0614F030E
:100A280007CA236000284FF41073D5E90289D6E974
:100A380000EA08BF07F580773F2808BF48F240233F
:100A4800002A18BF4FF430731F43A782EFF31083B7
:100A58004FF0010B8BF310882A8800F03F0001F05B
:100A68003F0141EA002CC2F1100144F20C02C4F229
:100A7800080210680BFA01F188431060106883F3CC
:100A8800108846F2C0102268384010804FEAC931F9
:100A9800206841EA4801A0F810C041EA4A112068DC
:100AA8002246C181206880F80CE0307E2168013838
:100AB800B0FA80F0400981F8D000686995F82010F4
:100AC80001F04FFAA86995F82110224601F049FA79
:100AD800F06996F82410224601F043FA306A96F835
:100AE8002510224601F03DFA44F243410020C5F2A8
:100AF80041212061A16001B0BDE8F08FF0B5024648
:100B0800D0E9000391E8700024F0C04ED3F82CC05F
:100B1800848010684FEA1E43858210680681106839
:100B2800C38049F6FF7000EA1543146800EA1640CE
:100B3800E382136858814EF22000C4F20100006875
:100B480042F25C43C2F200031B68C0F30264C0F3C4
:100B58000210A34023FA00F044F6D353C1F2620313
:100B6800A0FB0303980941F2360300FB03F04DF69E
:100B78008363C4F21B33D1E90045A0FB0303980C3F
:100B880006284FF0060088BF980C45EA04039C002D
:100B980000F1010001D4002423E00125EFF31084C3
:100BA80085F3108844F20C05C4F208052E6826F473
:100BB80080062E602D6843F2000584F31088C4F285
:100BC8000F0590262E7014684FF4807584F8DE00A7
:100BD800CC78A4068C6858BF4FF48065C4F3407481
:100BE8002C445B000FD51368022583F8DF00C87812
:100BF8008B6840064FF4007005EA537358BF4FF4F2
:100C080000601844044310684482C86800283ED035
:100C180083681C051C4629D51468A4F8903084897B
:100C28001568A5F89C40C4891568A5F89E40046815
:100C38001568A5F8944049F6FF7505EA1446176843
:100C4800C4F34174A7F89660166886F89240446821
:100C5800166805EA1445A6F898401668C4F3417466
:100C6800A6F89A50156885F893408468A4050FD5AE
:100C7800D0E9054516682C4386F8A640048A15680D
:100C8800A5F8A840408A1468A4F8AA0000E0002348
:100C98001068A0F8903008691368A3F88000DCF8A1
:100CA800100058B11068BEFA8EF7038823F01F03AE
:100CB800DB1B1F330380908A1843908244F2434021
:100CC800C5F241200968D06000201161F0BD818A19
:100CD8000268002011807047B0B543F22404C4F2C2
:100CE80008040025C8200121257100F082F825702C
:100CF80020780028FCD1207840F00200207000BF46
:100D080020788007FCD4002004F8020C14F8020CA8
:100D18000028FBD1002004F11C0100BF11F81020AD
:100D280002F07F0201F8102011F91020002AFBD4EC
:100D380001300328F2D1012000F00BF84EF2BB423B
:100D48000021C4F2010201201170BDE8B04000F09A
:100D580027B880B50122EFF3108182F3108842F2A0
:100D68002452C2F2000232F810308BB94EF2FE3C27
:100D780043F27023C4F2010CC0F20003BCF800E097
:100D880033F8103043EA0E0343F42543ACF800303F
:100D980032F81030013322F8103081F3108880BD0A
:100DA8000122EFF3108182F3108842F22452C2F23A
:100DB800000232F8103023B132F81030013B22F82B
:100DC800103032F810208AB94EF2FE3CC4F2010C01
:100DD80043F27022BCF80030C0F2000232F8100072
:100DE80043F4254222EA0000ACF8000081F31088A1
:100DF800704742F25C42C2F20002126801FB00F046
:100E080041F20021C0F27A018A420FD340F6FF0175
:100E1800C0F23D0111444DF68362C4F21B32A1FBBE
:100E28000212110DA0FB0101E9B11FE04CF60021EF
:100E3800C3F69A3148F63813C0F24103B1FBF2F118
:100E4800984207D24FF47A7200FB02F0B0FBF1F03F
:100E5800800808E08900B0FBF1F0984206D24FF410
:100E68007A7100FB01F028B100F025BF4FF0FF3088
:100E780000F021BF70477047022818BF704742F240
:100E88001C5043F23411C2F20000C0F2000100F01D
:100E980098B8416846F20032C4F2000252F82100C4
:100EA80040F08073002042F821307047F0B581B0DF
:100EB80042F28852C2F20002137840F200060D4650
:100EC8000446C2F20006D3B9012744F200011770A4
:100ED800EFF3108087F31088C4F208010A6822F43F
:100EE80080020A60096880F3108830461C21FFF7E9
:100EF800D8F845F20C40C4F20000866007706868B4
:100F08000068002804D456F8201019B108200DE014
:100F18000B200BE02968606011B1204601F0A6F8AB
:100F280044F20030C4F254402060002001B0F0BD0B
:100F380010B582B001910092416840F2000246F279
:100F4800003CC2F20002C4F2000C52F821E05CF846
:100F5800212022F080724CF82120426845F20E418F
:100F6800C4F2000142F400420C88A242FCD00822DC
:100F78008A70019A12B1019ACEF80420009A12B12F
:100F8800009ACEF808209EF8032002F0C004802CB6
:100F980002D1AEF80C3003E03F2A98BFAEF80E300D
:100FA80018228A7041685CF8210040F080720020A5
:100FB8004CF8212002B010BD0146002200200A6032
:100FC800704780B545F25422C5F24F0202600846C8
:100FD80001F06EF8002080BD70B586B001A801262A
:100FE800049003A814460D46CDE90121ADF80C6024
:100FF80000F066FE42F23050EFF3108186F310885D
:10100800C2F2000002683AB940F60352C4F208027C
:10101800002313704023137002680132026081F3C9
:101028001088E10340F60001C4F208014FEA1522D6
:1010380001D4EBB20CE001EB8216EBB256F8235068
:1010480025F4803546F8235024F4803546F823509B
:1010580001EB8211012241F82340EFF3108182F362
:101068001088026812B10268013A0260006838B953
:1010780040F60350C4F20800002202708022027079
:1010880081F31088002006B070BD4FF4FF5000EACD
:10109800D1000423C4F20803C0580023CFF6FF731D
:1010A80043EA1040C9B2C84000F0010100201160B5
:1010B800704780B5C8B24FF0010C4FF4FF5303EAF4
:1010C800D1030CFA00FE40F20C0CC4F2080C53F8E1
:1010D8000C10012A4CEA030C08D14FF4803202FAB2
:1010E80000F021EA000040EA0E0207E04FF48032E7
:1010F80021EA0E0102FA00F041EA00020020CCF8D1
:10110800002080BD6FF03F0000EA9100C9B200EBFB
:10111800810040F60001C4F208014058C0F34001C4
:10112800002011607047C8B2012383409BB24FF47E
:10113800803C002A08BF0CFA00F34FF4FF5000EA85
:10114800D1010822C4F2080200208B50704780B5F4
:10115800084600F0ADFF002080BD80B54FF4FF5079
:1011680000EAD10140F2000CC4F2080C51F80CE07E
:1011780003EA020040EA0E0062EA0302024000208D
:1011880041F80C2080BD4FF4FF5000EAD100042143
:10119800C4F208014058010C00201180704703EA8E
:1011A800020023EA020240EA02424FF4FF5000EA3A
:1011B800D1010C23C4F208030020CA5070474FF431
:1011C800FF5000EAD1000421C4F208014158002070
:1011D8001180704703EA020023EA020240EA024251
:1011E8004FF4FF5000EAD1010823C4F2080300209D
:1011F800CA50704701460069002282700869F023CE
:10120800C37281F8382081F83620486AC1E90A207B
:1012180091F83220002081F8342070478446C0E9D4
:101228000F130020CCF844207047016900228A700F
:101238000169F0238A7001694FF0004CCB7280F885
:10124800382080F8362090F83210436A80F834103D
:10125800C0E90A23C260EFF31082012181F31088EC
:10126800006844F204030078C4F2080319682CFAF1
:1012780000F008431860186882F31088002070474F
:101288002DE9F0410A7848F20003C4F2110303EB98
:101298000223024603610160D1E902034FF0000E08
:1012A800C2F840E04FF0010CC2E90103D1E90B0399
:1012B80044F20405D063C4F208055364EFF31083C5
:1012C8008CF310884FF0004408782E6824FA00F058
:1012D80026EA00002860286883F31088F024106844
:1012E8001369406B83F802E0136942F26C58DC72B0
:1012F8008378146903F0030323701369FA249C713B
:1013080043781469C2F200086370037814699B007B
:101318002033E3714379146946F200362372C378A7
:101328001469C4F20006A37400791369C00001307F
:10133800587210692323837210694EF2001380F8E3
:101348000DE0087C8C69CEF20003000103F54075BE
:10135800285548F8242056F8247003F5C07027F45F
:10136800803746F8247056F8247004F01F070CFAEA
:1013780007F76409BFF35F8F40F8247043F82470BF
:101388000C7CC96924016C5448F8212056F8214086
:1013980024F4803446F8214056F8214001F01F0417
:1013A8000CFA04F74909BFF35F8F40F8217043F83E
:1013B800217043F24321C5F249310020C2E908EE09
:1013C800C2E90AEE82F835E082F836E082F837E0C2
:1013D80082F838E0D160BDE8F08180B580F8363019
:1013E800012300F056FF002080BD03460020C3E91A
:1013F80001127047C0684CF6BD52CAF6B642104496
:10140800B0FA80F0420900200A70704780B580F871
:101418003630002300F03DFF002080BD8A0701D44C
:10142800062206E0026A937803F07B039370002299
:101438000261C9071CBF002282611046704710B5BF
:10144800C2690123127803FA02F212F0060F02D0E1
:101458000A78120723D4026A4FF0000E92F802C0ED
:101468000CF00B039370036A8A78C0F80CE05A708A
:101478004A781C7802F0030204F0FC0422441A7033
:10148800CA789A74DA79097802F0A30201F05C014B
:101498001144D971006A0CF07B01817001E04FF0B2
:1014A800030E704610BD8446C0E909130020CCF82D
:1014B8002C207047026A002141609170C1694EF288
:1014C800801C4A69012102F01F0301FA03F3520943
:1014D800CEF2000C4CF82230BFF34F8FBFF36F8F62
:1014E800C269D26A02F01F0301FA03F352094CF8E9
:1014F8002230BFF34F8FBFF36F8FC269D26902F0FA
:101508001F0301FA03F352094CF82230BFF34F8F3F
:10151800BFF36F8FC269526A02F01F0301FA03F327
:1015280052094CF82230BFF34F8FBFF36F8FEFF3A0
:10153800108281F3108844F20403C069C4F20803DE
:1015480000784FF0004C19682CFA00F00843186036
:10155800186882F31088002070474FF0FF3200208F
:101568000A604A6070470A780123934013F0060F17
:1015780005D00B6CDB681B781B0700F1E0802DE9B8
:10158800F04748F20003C4F2110343EA0222D1E90A
:101598000E364FF0000843628378C66223F00303D7
:1015A8005E1C86704E68026280F80080C161C0F8D7
:1015B800288016B943F002038370CF6A4EF2001CEC
:1015C80007F01F034FF0010ECEF2000C0EFA03F3E2
:1015D8000CF180047E0991F8285044F82630BFF3B6
:1015E8004F8F46F2003AC4F2000ABFF36F8F5AF8E1
:1015F80027602A0126F480364AF827600CF54075E2
:101608005AF82760EA554A6942F26C5902F01F06F7
:10161800C2F200090EFA06F6530949F827000F7CB2
:1016280044F82360BFF34F8FBFF36F8F5AF822300F
:101638003E0123F480334AF822305AF82230AE545F
:1016480049F82200CA690B7E02F01F060EFA06F658
:10165800570944F82760BFF34F8FBFF36F8F5AF8CD
:1016680022601B0126F480364AF822605AF822606C
:10167800AB5449F822004A6A91F8203002F01F065C
:101688000EFA06F6570944F82760BFF34F8FBFF3E9
:101698006F8F5AF822401B0124F480344AF8224004
:1016A8005AF82240AB5449F82200EFF310828EF327
:1016B800108844F204050B78C4F208054FF0004482
:1016C8002E6824FA03F326EA03032B602B6882F3BF
:1016D8001088026A82F80280026A82F80480026A2C
:1016E80082F80980026A82F80A80026A82F80B800E
:1016F800026AA2F81A800A780EFA02F340F2F93266
:10170800134202D0036A4024DC74036A06241C775F
:101718000B780EFA03F3134203D0026A4FF47843AE
:101728009382D1E90163CA684FEAC20242EA03120E
:101738003EB1032E08BF42F04002F22602E0032227
:10174800ADE0E226036A02271A70026A0025967144
:101758000A6C936907EA4307082B036A08BF0A273C
:101768005F73066AD2E9013735721668DB0126F025
:101778000106022EDEB267F345160AD1036AFF2777
:101788005F701268022A026A08BF46F01006D67116
:1017980017E0036ADE71D268036A97785F7057783A
:1017A8001E7807F0030706F0FC0637441F70D77849
:1017B8009F74DF79127807F0A30702F05C023A44BD
:1017C800DA710022C369C0E90322C0E90522D1F811
:1017D80040E05B699EF800105AF8234003F01F05AB
:1017E80024F480344AF823405AF82340012404FAA8
:1017F80005F60CF5C0755B09BFF35F8F45F82360EC
:101808004CF82360C369DB6A5AF8236026F48036F3
:101818004AF823605AF8236003F01F0604FA06F614
:101828005B09BFF35F8F45F823604CF82360C369F9
:10183800DB695AF8236026F480364AF823605AF8A0
:10184800236003F01F0604FA06F65B09BFF35F8FF7
:1018580045F823604CF82360C3695B6A5AF8236033
:1018680026F480364AF823605AF8236003F01F06EE
:10187800B4405B09BFF35F8F45F823404CF8234021
:101888001C23076A63F39F01B970DEF8141044F64D
:101898005513C5F24333C0E90131BDE8F04710469E
:1018A800704703460020C3E9051270470246806965
:1018B80008600021002091617047062070470620CB
:1018C800704780B5D0F820E09EF802C00CF07B038A
:1018D8008EF80230837803F00303A2EB030C0B4469
:1018E800026AC0E9033C937843F0800393708278DE
:1018F80002F00302022A05D10988006A41F47E41F8
:10190800C18102E00978006AC170002080BD000032
:1019180000F01AF800F020FBFEE74EF22000C4F2B7
:1019280001008179006842F24042C2F20002C0F32D
:10193800026052F8211021FA00F042F25C41C2F232
:10194800000108607047000010B54EF60850CEF24E
:1019580000004FF47001C0F8801040F20001C0F29E
:101968000001016000200024FFF786FA00F0BEF8AD
:101978000120FFF781FA42F24000C2F2000080F332
:101988000A88002000F032F8FFF7C7FFFFF7A4F934
:101998000320FFF7DEF940F61050C4F208004FF6B6
:1019A800FF7100BF20F8141001340C2CFAD1032069
:1019B800FFF7F6F90320FFF7CCF90420C4F20E0074
:1019C8000021016041608160C1600320FFF7E8F9F0
:1019D8000220FFF751FA012000F008F800F026F97C
:1019E8000020BDE8104000F01FB90000F0B581B03C
:1019F80043F2FC15C0F200052E68044676B168680B
:101A0800071D00BF7879844204D157E90101091AFA
:101A1800FEF747FB013E07F10C07F3D1AE6886B12C
:101A2800E86800F1080500BF6879844205D155E9E6
:101A380002022968121AFEF71BFB013E05F1100588
:101A4800F2D101B0F0BD80B543F28821C0F20001A7
:101A580007C9126890470A204FF47A71BDE88040A0
:101A6800FFF7C7B900BE00BFFEE7000080B542F22D
:101A78007040C2F20000FFF72AF900B980BD43F2B6
:101A8800E03103A0C0F200011022FFF7EBFF00BF16
:101A98004653505F53554343455353203D3D2065BE
:101AA80072720000406800B1704780B542F234504D
:101AB800202142F26042C2F20000C4F21701C2F2D1
:101AC80000020423FFF734FA42F26842014642F268
:101AD8007040C2F20002C2F200001160BDE880400E
:101AE800FFF7F5B8002000F068BA00002DE9F041D2
:101AF8004EF2FE34C4F201044AF203504CF20015CF
:101B08002080C4F201050120A88000BFA888002811
:101B1800FCD147F200010120C4F20001288088604E
:101B2800086042F2404642F6005041F20022C2F2FA
:101B38000006C0F23110C0F27A02C6E9000243F290
:101B480000604FF40041C0F26E10C6E902104CF27A
:101B58000020C0F6EB304EF220073161C4F20107D5
:101B68007061B879396856F82000C1F3026142F211
:101B78005C48C840C2F20008C8F800000020607540
:101B8800092087F8820094F8820018B994F8830035
:101B9800800744D094F8820050B9012084F882006C
:101BA800C8200121FFF725F994F882000128FBD10C
:101BB800002084F8830084F882000020B87400BFF5
:101BC800387F0007FCD543F2021038810020B87234
:101BD800387F8006FCD50320287741F22120C2F205
:101BE800010038600520B871B879396856F82000C6
:101BF800C1F30261F022C840C8F8000042F20800B0
:101C0800C4F20000F12101710121017002714FF449
:101C18002540397487F832102080BDE8F0814FF4F0
:101C28007A70FFF728F9C8E77047000070B584B0EC
:101C380048F248060320C4F20006FFF78AF86FF05E
:101C4800FF0043F2142430604FF0FF300021C0F24F
:101C580000040122CDE9020054F8213002FA01F50E
:101C6800002B18BFA84301310729F5D14EF2803265
:101C78000190002001A9CEF2000200BF51F82030E7
:101C880006EB8005AB6242F8203001300328F5D11D
:101C98000320FFF785F846F200310020C4F2000166
:101CA80054F820200AB141F820200130072804BF49
:101CB80004B070BDF4E701380028FCD1704700007B
:101CC8002DE9F04F81B00446008800285AD043F22D
:101CD80040084EF2BB4B0025C4F208080FF2AC0ACC
:101CE800C4F2010B4FF00109002700BF60685AF8E1
:101CF800272000EBC500416891423CD100689BF861
:101D0800001000F0B85009FA07F6B0F1807F06EA33
:101D1800010015D150B90120FFF71BF89BF800000E
:101D280030438BF800000120FFF73AF818F9170044
:101D3800002820D418F8170040F0800015E000BFF4
:101D480050B10120FFF705F89BF80000B0438BF86D
:101D580000000120FFF724F818F91700B0F1FF3F41
:101D680009DC18F8170000F07F0008F81700C820F1
:101D78000121FFF73EF80137032FB7D1208801353D
:101D88008542B1D301B0BDE8F08F00BF0204000066
:101D9800030400000404000000EE100A40F21C00D6
:101DA800C2F20000B8EE400A90ED001A40F220009E
:101DB800C2F20000B4EE401A90ED002AF1EE10FADB
:101DC8000FDBB4EE402AF1EE10FA0ADC30EE410ADD
:101DD80032EE411A80EE010A9FED0C1A20EE010A3C
:101DE8007047B4EE402A0020F1EE10FAC8BF012077
:101DF8009FED062A9FED063AC007B4EE401A03FE8F
:101E0800020AF1EE10FA20FE030A70470000C842E9
:101E180000000000A4B0FEF7CBFDFFF714FE42F26D
:101E28006C40C2F200000068FEF782FDFEF7CBFCB2
:101E380042F26844C2F200042068FEF796FC42F2BF
:101E480060492168C2F200094846FEF717FD20687C
:101E5800FFF70CFE43F28820B3EE049AC0F20000AC
:101E6800D0F800A0D0F808B042F29058C2F20008AA
:101E780004AF00BFB9F80200FFF78EFFB9F804609D
:101E880088ED000A3046FEF72BFD42F28C50C2F274
:101E9800000080ED000AFEF7CFFC98ED001AB0EEC6
:101EA800408AB4EE491AF1EE10FA09DCFEF796FD05
:101EB80040F6B8304FF47A71FEF79BFFFEF783FDCA
:101EC800304600F075F90646D8F80000FEF73AFAF1
:101ED800044618EE100A0D46FEF734FA41EC100BD2
:101EE800384611A18DED020B22462B46009600F0D4
:101EF80033FC42F29450C2F2000000210170DBF87A
:101F080008403846FEF7D8F8024650463946A047FA
:101F180042F26841C2F2000108604FF4FA704FF4CF
:101F28007A71FEF766FFA5E768756D693D252E3362
:101F38006625250A207261696E66616C6C3D6C6568
:101F480076656C25640A204C69676874203D2025F5
:101F58002E32660D0A00000080B5FFF75BFF0020F7
:101F680080BD002828D44EF2001CCEF2000C0901D6
:101F780000EB0C0383F8001342F26C51C2F200012B
:101F880041F8202046F20031C4F2000151F8202027
:101F9800012322F4803241F8202051F8201000F06B
:101FA8001F02400903FA02F20CEB8003BFF35F8FB4
:101FB800C3F880214CF8202070472DE9F04190B0FB
:101FC800EFF3038142F26C526FF35F21C2F2000219
:101FD80002EB810146F2C02251F8404CEFF3038135
:101FE8006FF35F21C4F2000252F8213023F48033EA
:101FF80042F8213052F8211001906068A1690088E8
:10200800226AADF8000000200390029251B3E06903
:10201800C0B100F1140890E80E5098E8600108AFCC
:1020280087E80E50CDE90D56059D9DE8CE00456127
:1020380080E8CE00DDE90621CDF83C80C0E9062124
:10204800A16900E068468847E06958B1DDE90C6598
:10205800DDE90E4C08AF8ECFC0E9046580E88E003C
:10206800C0E9064C10B0BDE8F081000001F10E0295
:1020780012F80B3C402B06D3B2F800C05FFA8CF381
:1020880043EA0C23138012F80C3C10323F2BEFD894
:1020980045F21042C4F2000208231370406840F26F
:1020A8000003C2F2000343F8201018201070704794
:1020B80070B50446FFF704FE42F2305CEFF310807F
:1020C800012181F31088C2F2000CDCF8001039B944
:1020D80040F60351C4F2080100220A7040220A7037
:1020E800DCF800100131CCF8001080F3108820884B
:1020F80018B340F6000E0021C4F2080E606800EB29
:10210800C10250F831305268DD034FEA1220D2B2D2
:102118000BD50EEB801555F8226026F4803645F86D
:10212800226023F4803645F822600EEB80100131DE
:1021380040F8223020888142E0D30120EFF310815B
:1021480080F31088DCF8000020B1DCF800000138CA
:10215800CCF80000DCF8000038B940F60350C4F2AF
:102168000800002202708022027081F3108870BD7E
:10217800B0B584B00446806A40B1D0E900CED0E959
:102188000253CDE900CECDE9025300E06846E36989
:10219800D4F824C01B78E56AC0E90032C0E902150A
:1021A800E047A06A10B19DE82E002EC004B0B0BD73
:1021B80070B5FEF7BAF89FED2A0B53EC102BFDF71C
:1021C80082FF9FED290B53EC102BFDF7EEFFFEF776
:1021D800CCF8FEF7B7F89FED260B044653EC102B0E
:1021E8000D46FEF787F850B99FED230B204653ECB8
:1021F800102B2946FEF763F808B101262EE09FED63
:102208001E0B204653EC102B2946FEF758F850B900
:102218009FED1B0B204653EC102B2946FEF74FF879
:1022280008B102261AE09FED180B204653EC102B3C
:102238002946FEF75FF89FED120B002818BF012012
:1022480053EC102B00F0010620462946FEF71CF837
:10225800002E18BF0326002808BF0646B0B270BD7E
:102268006666666666660A400000000000FEAF40CB
:10227800CDCCCCCCCCCC08409A9999999999054069
:102288003333333333330340105839B4C876FC3F03
:10229800704780B5D0E901CEC0E90812BEF1010F40
:1022A80005D143EA4C0C01214FF0000E05E00E2148
:1022B80001EADC1161F00F0E991C80F831E080F81A
:1022C80030C080F83210002B18BF012380F8353059
:1022D800002380F83430C0E90A2380F8331080F8EE
:1022E800373080F8393080F83B3090F83510B42218
:1022F800012904BF012180F8391001698A7090F81A
:102308003810B1B1002180F8381090F8321031221D
:10231800012908BF3022815C0269D17090F833101E
:1023280090F83420013980F83310511C80F83410AB
:1023380080BD00695121C17280BD10B582B0EFF334
:10234800038042F26C516FF35F20C2F2000101EB8F
:10235800800050F8404C2069C17A01F0F701C17241
:1023680094F83700012817D12069F021C172206C38
:10237800012300281ABFD0E90012CDE900126846EF
:10238800E16B626CC0E900238847206CE0B3DDE9AB
:102398000012C0E9001237E094F8321094F83400C3
:1023A80081420FD1A06A78BB94F835000321002838
:1023B80018BF022194F838202069012A36D100225A
:1023C800C2723AE060B194F8351002284FF000006C
:1023D8000BD1C9071CBF94F8310040F0010004E09C
:1023E8003120012908BF3020205C21690022CA72EF
:1023F8002169C87094F8330094F83410013884F8CF
:102408003300481C84F83400EFF3038046F2C021FF
:102418006FF35F20C4F2000151F8202022F48032CB
:1024280041F8202051F8200002B010BDF022C272FD
:102438002069827802F0CF028270206C00281ABFCF
:10244800D0E90023CDE900236846626CE36BC0E95C
:102458000021984799E7EFF3038046F2C0216FF314
:102468005F20C4F2000151F8202022F4803241F8A4
:10247800202051F82000EFF3038042F26C516FF3F3
:102488005F20C2F2000101EB800050F8400C0169A6
:102498000A7BD20718D190F8323090F83420934252
:1024A80020D1826A002A3ED090F83530002B47D0E0
:1024B80090F83930012B4DD10023012A80F83930AA
:1024C80055D08B72826A4FE090F83520012A03D1EB
:1024D80090F83920012A1BD100228262012280F85B
:1024E80037202AE090F83530022A03D1DA0701D0E4
:1024F800522023E090F83020CA7090F8331090F8FA
:102508003420013980F83310511C80F8341070479A
:102518004979026AC36AD154D0E90A230169013AA8
:102528000133C0E90A2390F83620012A05D1522246
:10253800CA72012180F8381070475420C872704759
:10254800D0F820C0C36A013A1CF803C00133C0E9BF
:102558000A2311E04979026AC36AD154D0E90A13FF
:102568004A1E591CC0E90A210169012A02D1202208
:102578008A7201694FF0FF0C81F803C07047B0B54B
:10258800EFF303806FF35F20A0F1100542F26C5067
:10259800C2F2000050F825008178036A01F00301B7
:1025A800022912BF5979198A6FF35F211A79D40663
:1025B80002F0380203D51C7FE40708BF40321C79BB
:1025C80004F0C7041C71436A0BB1FFF7D1FD46F252
:1025D8000030C4F2000050F8251021F4803140F892
:1025E800251050F82500B0BD10B582B0EFF3038078
:1025F80040F2FC7101EA800046F2C021C4F20001F9
:10260800425822F48032425042F26C52C2F2000226
:102618004158104450F8404CA07800F00302206A5A
:10262800022A12BF4179018A6FF35F21A0690191E3
:1026380098B1606901A9FDF71BFDA0786169A269DD
:1026480000F003000144101A6161A0610ED1606AB4
:1026580060B120460021012203E0606A30B12046C3
:10266800042202B0BDE81040FFF782BD02B010BDE1
:1026780010B5EFF303806FF35F20A0F1100442F26E
:102688006C50C2F2000050F82400016A8A7802F007
:102698007B028A70416A19B100210222FFF768FDA6
:1026A80046F20030C4F2000050F8241021F48031C2
:1026B80040F8241050F8240010BDEFF3038040F2D6
:1026C800FC7101EA800046F2C021C4F200014258C0
:1026D80022F48032425042F26C52C2F20002415857
:1026E800104450F8400CC1694A6B0169C2B9C1B1C4
:1026F800817801F00302C168022A05D10988026ABB
:1027080041F47E41D18102E00978026AD170817872
:10271800026901F00303D11AC26801611A44C26058
:1027280071B9016A8A7802F07B0204328A70416AC0
:1027380000294FF00001C1601CBF8022FFF718BDBF
:1027480070474068022818BF704742F29450C2F29E
:1027580000000121017070470FB4084B10B504A99F
:1027680002AA039800F0CEF8044602A9002000F05F
:1027780060FC204610BC5DF814FB00003B300000F4
:102788002DE9FF5F82B00021DDE90430020DDDF89C
:1027980040B0034318D044F61050A2F2FF3242432F
:1027A8001514119801281FD0A5EB0B00401C5FEAF7
:1027B800000A4FF000064E4FDFF83891B0465046F9
:1027C80015D5CAF1000413E0119801244AA3012881
:1027D80001D16FEA0B010298119AC0E90031C0E9F2
:1027E800024206B0BDE8F09FCBF10000DFE70446E7
:1027F8000021404A491842EB0450CDE9001012E08C
:10280800E00707D032463B4640464946FDF75BFCA9
:102818008046894632463B4610461946FDF753FC2A
:1028280006460F466410002CEAD1DDE90401DDE913
:102838000023BAF1000F06DAFDF745FC42464B4685
:10284800FDF741FC05E0FDF7B0FC42464B46FDF7BD
:10285800ACFC04460E460022284BFDF73DFF03D88A
:102868004FF0FF30014607E00022254B2046314655
:10287800FDF772FEFDF717FF102409E0002C0ADBB4
:102888000A220023FDF7A3FD039B30321A55641E6C
:1028980050EA0102F2D1641C039AC4F111031444F2
:1028A800119A012A03D0012208430DD10AE00843F6
:1028B80004D000204FF0110B119072E7A3EB0B0529
:1028C8006D1E0DE05B4504DD4FF0000205F10105CA
:1028D80004E003DA4FF00002A5F10105002AECD06C
:1028E80002981199C0E90231C0E9004579E7000072
:1028F800000014400000F03F300000000000F043EA
:102908000000E03F2DE9FF4F95B09B4689460646FB
:1029180000250FE2252877D100242746F84A01210F
:10292800059400E0044316F8013F203B01FA03F048
:102938001042F7D130782A2811D06FF02F03307861
:10294800A0F13002092A16D8059A44F0020402EBD5
:10295800820203EB42021044761C0590EFE759F817
:10296800042B0592002A03DA504244F400540590DF
:1029780044F00204761C30782E2816D116F8010F80
:1029880044F004042A280DD06FF02F023078A0F10B
:102998003003092B09D807EB870302EB4303C71859
:1029A800761CF3E759F8047B761C30786C280FD036
:1029B80006DC4C2817D068280DD06A2814D104E00A
:1029C800742810D07A280FD10DE044F400140AE0DE
:1029D80044F4801401E044F440147278824202D135
:1029E80004F58014761C761C307866280BD013DC2E
:1029F800582877D009DC002875D04528F6D0462815
:102A0800F4D047281AD19DE118E0632835D064280E
:102A180079D0652812D195E1702873D008DC672831
:102A2800F1D069286FD06E280DD06F2806D1B5E097
:102A380073282CD0752875D0782874D05A461799E1
:102A480090476D1C75E1C4F30250022809D0032891
:102A58000DD0D9F8001004280DD00D6009F1040933
:102A680067E1D9F80010EA17C1E90052F6E7D9F88A
:102A780000100D80F2E70D70F0E719F8041B8DF8CF
:102A8800001000208DF80100EA46012003E059F803
:102A980004AB4FF0FF3061074FF0000102D40DE0A6
:102AA80008F101018846B9420FDA8045F8DB1AF8C7
:102AB80008100029F4D108E008F101018846814294
:102AC800FADB1AF808100029F6D105985B46A0EB46
:102AD800080721463846179A00F094FA284400EB74
:102AE800080507E04DE029E10DE01AF8010B5A4608
:102AF80017999047B8F10108F7D25B462146384646
:102B0800179A13E142E00A220092C4F302524FF0EE
:102B1800000A022A08D059F804CB032A4FEAEC71BC
:102B28000AD00DE029E02AE009F1070121F00702A7
:102B3800F2E802C1914609E00FFA8CFC4FEAEC7109
:102B4800042A03D14FFA8CFC4FEAEC71002907DA0A
:102B58000A460021DCF1000C61EB02012D2202E0A3
:102B6800220504D52B228DF80420012203E0E20778
:102B780001D02022F7E7904659E00A2102E010220E
:102B88000DE010214FF0000A00910BE010224FF0E9
:102B9800000A44F004040827009203E008224FF0DA
:102BA800000A0092C4F30252022A05D059F804CB55
:102BB8000021032A08D009E009F1070121F00702E2
:102BC800F2E802C1914605E01FFA8CFC042A01D103
:102BD8000CF0FF0C4FF00008220728D5702806D00B
:102BE800009B83F0100353EA0A0305D00EE040224D
:102BF8008DF80420012208E05CEA010206D03022A8
:102C08008DF804208DF8050002229046009B83F081
:102C1800080353EA0A030AD15CEA010201D16207F8
:102C280005D530228DF804204FF001087F1E582862
:102C380004D034A003900EA802900DE036A0F9E766
:102C480053466046009AFDF7C2FB84460398825CAF
:102C58000298401E029002705CEA0100F0D10298CE
:102C680006A9081A00F1200A600702D524F4803466
:102C780000E00127574502DDA7EB0A0000E000202D
:102C880000EB0A01009005984144401A0590E003C2
:102C980006D45B462146179A059800F0B3F9054417
:102CA800002706E001A85A46C05D179990476D1C99
:102CB8007F1C4745F6DBE0030CD55B462146179A97
:102CC800059800F09FF9054404E030205A4617990A
:102CD80090476D1C0099481E00900029F5DC08E01B
:102CE800029802995A460078491C02911799904710
:102CF8006D1CBAF10001AAF1010AF1DC65E10000DE
:102D080009280100303132333435363738396162B9
:102D1800636465660000000030313233343536377D
:102D280038394142434445460000000000F058F954
:102D38000544761C307800287FF4ECAD19B028469D
:102D4800BDE8F08F620700D4062709F1070222F0D8
:102D5800070CFCE80223E14603F000485FEA080C90
:102D680002D00FF2702C0DE05FEA045C02D50FF27E
:102D7800682C07E05FEAC47C02D00FF2602C01E007
:102D8800AFF2700C4FF0FF3823F00043CDF850C07D
:102D980065280CD006DC452809D046281DD04728D0
:102DA8003DD13DE0662818D067287ED138E0002163
:102DB800112F01DB112000E0781CCDE9000106A9E4
:102DC8000EA8FFF7DDFCDDE90F010E9A0391002143
:102DD800009207F1010A04914DE04FF0004000977E
:102DE800CDE9011006A90EA8FFF7CAFCDDE90F021C
:102DF80003920E9B11990022DDF80CA00093049217
:102E080011B9791C00EB010AB7EB0A0004D4C0F130
:102E1800FF3007F1010A0490AAEB0700019044E093
:102E2800012F00DA01270021112F01DD112000E018
:102E38003846CDE9000106A90EA8FFF7A1FCDDE997
:102E48000F010E9A0391002104910092BA462107BE
:102E58000CD40399514500DA8A46BAF1010F05DD11
:102E6800009AAAF10101515C302908D0B84202DA6F
:102E780010F1040F06DA0121CDE9011015E0AAF1DD
:102E88000101E9E7002805DC049901440491AAEB53
:102E9800000102E0411C514500DD8A460499401AB0
:102EA800401C01904FF000400290200704D4019884
:102EB800504501DBCDF8048000208DF84F000298C2
:102EC8000DF14F07B0F1004F25D02B200E9002983E
:102ED8004FF0020800280CDA404202902D200E9094
:102EE80007E00A210298FDF75CFA3031029007F8F2
:102EF800011DB8F10001A8F10108F2DC02980028D0
:102F0800EFD1791E0E980870307800F0200040F05C
:102F1800450007F8020D12A8C01B00F10708149815
:102F2800007800B1012000EB0A01019801EBE07183
:102F380005984144401A401E0590E00306D45B46BC
:102F48002146179A059800F05DF805441498007812
:102F580018B15A46179990476D1CE00324D55B4673
:102F68002146179A059800F04DF805441CE004988E
:102F7800002807DBDDE90301884203DD0098405C97
:102F8800179901E0179930205A469047049805F19F
:102F98000105401C04900198401E019004D12E2088
:102FA8005A46179990476D1CBAF10001AAF1010A17
:102FB800DDDC05E017F8010B5A46179990476D1CA0
:102FC800B8F10001A8F10108F4DC5B462146179A24
:102FD8000598ABE62D0000002B0000002000000043
:102FE8002DE9F041044600251E461746880404D4FE
:102FF80005E039462020B0476D1C641EF9D52846E7
:10300800BDE8F0812DE9F041044600251E469046B2
:10301800C80301D5302700E02027880404D505E03F
:1030280041463846B0476D1C641EF9D52846BDE8B0
:10303800F0810A68531C0B6010707047000000682C
:10304800000000680000006000010C080000006833
:103058000000006800000070000109080000006816
:103068000000006800000008000102080000006875
:10307800000000685C000000000101081C0000203E
:103088001C0000200000006000010C031C00002050
:103098001C00002000000070000109031C00002033
:1030A8001C00002000000008000002031C00002093
:1030B800380000205C000000000001030000000050
:1030C8000200000000000000000000000F000000E7
:1030D80004000000DFFFFFFF0000000002FF000007
:1030E800AD1A000000000000F430000000000000ED
:1030F800010000003F0000003F0000000000000049
:103108000000000000000000DFFFFFFFDFFFFFFFFF
:10311800FFFF00000E00000000000000000000009B
:103128000000000000000000001800000A00000075
:103138004031000000000000008000000100000095
:103148000080000002000000008000000300000072
:103158000000010008010000400001040502000011
:10316800000001000003000000000104010300004A
:103178000000010402030000400001040F030000E6
:10318800050000000E040000D42400209C3100003B
:10319800DC31000004000000A086010023000000CC
:1031A8000100000004000000DFFFFFFF0500000031
:1031B8000600000000000000000000000000000001
:1031C8009922000000000000D4310000011400AC76
:1031D8001E01000089120000E3130000151400000E
:1031E800FD110000F313000025120000FD1300007C
:1031F800331200000400000014340000080000002E
:103208004430000002000000D03300008C010000B0
:103218008D0100008E0100008F0100006001000098
:10322800990100009A0100001C250020343100009B
:103238003C320000CB0F0000C10F00005711000006
:10324800E10F000093100000BB1000000D110000FA
:103258002F110000631100008F110000A71100005A
:10326800C7110000DD110000010002000800100075
:103278002000000024000020843200000400000028
:103288003C250020943200000433000002000000B6
:103298000200000000000000000000000C00000018
:1032A800000000000C000000010000000C000000FD
:1032B800020000000C0000000300000000000000F5
:1032C800000000004B27000000000000D83200007A
:1032D8000000000001000000000000003400002091
:1032E8000F000000FFFF00000000000000000000C9
:1032F80000000000FFFF0000000000006F15000044
:10330800AB180000CB18000047140000631500003C
:1033180025140000AF140000BD140000B51800000B
:10332800C7180000C31800000000000800000008CB
:1033380000380000003800000000000090A10001E3
:1033480010A2000110A2000190A2000190A20001A9
:1033580090A10001C0A1000140A2000140A200010B
:10336800C0A20001C0A20001C0A1000110A100017B
:1033780010A1000104A1000100A1000180A1000129
:1033880004A2000100A2000184A2000180A20001A1
:1033980080A10001E0A1000160A2000160A200017B
:1033A800E0A1000100000068000000680000007053
:1033B800000000700000006000000060002800208D
:1033C80000280020000000200000006800000068BD
:1033D8004000002040000020616463302E630046F6
:1033E80053505F535543434553533D3D65727200F7
:1033F8004454432E63004653505F5355434345534B
:1034080053203D3D206572720000000000000068F6
:103418000000006800010008000000680000006863
:1034280000010008400000204000002000000003C8
:103438005C240020982500200000000300000406FA
:10344800362E342E30004275696C742077697468A2
:103458002052656E6573617320416476616E6365A1
:103468006420466C657869626C6520536F66747772
:10347800617265205061636B616765207665727360
:0C348800696F6E20362E342E30000000DC
:020000040100F9
:04A10000FFFFFFFF5F
:020000040100F9
:04A20000FFFDFFFF60
:020000040100F9
:04A28000F8F8FFFFEC
:0400000500001919C5
:00000001FF
