:020000040000FA
:1000000060040020611B0000290A0000250A00008E
:10001000250A0000250A0000250A0000250A000024
:100020000000000000000000000000006D1B000048
:10003000250A0000000000006D0A0000871E000075
:10004000493200001B330000D1320000DF310000D4
:10005000493200001B330000D1320000DF310000C4
:10006000493200001B330000D1320000DF310000B4
:1000700059200000000018180000000000000000D7
:0C00800000000400400035004000350086
:020000040000FA
:10008C0040EA01039B0703D009E008C9121F08C00E
:10009C00042AFAD203E011F8013B00F8013B521E8E
:1000AC00F9D27047D2B201E000F8012B491EFBD205
:1000BC0070470022F6E710B513460A460446194667
:1000CC00FFF7F0FF204610BD421C10F8011B002961
:1000DC00FBD1801A70472DE9FE4F81EA030404F02E
:1000EC00004421F0004100944FF0000B23F000433A
:1000FC0050EA01045ED052EA03045BD0C3F30A5405
:10010C00C1F30A552C44A4F2F3340194A0FB02541D
:10011C00C1F3130141F48011C3F3130343F48013AF
:10012C0001FB024400FB034E840A970A44EA815403
:10013C0047EA8357A4FB076802958D0A05FB0785E0
:10014C004FEA932C04FB0C542705029D4FEA0658EA
:10015C0047EA1637B5EB08056EEB070C870E920EC7
:10016C0047EA811742EA8312A7FB0201B6EB0B01A7
:10017C0064EB00042B0D43EA0C335E1844EB1C506B
:10018C00DA465146E7FB0201C5F313044FEA0B3381
:10019C0043EA14534FEA0432019C43EA0603A4F1E8
:1001AC000C040294009CCDE900B400F06FF803B08D
:1001BC00BDE8F08F00200146F9E700F0004230F076
:1001CC0000400AD0C10D01F56071C0F3160042EA7F
:1001DC000151C20840071143704700200146704787
:1001EC0030B50B46014600202022012409E021FAFB
:1001FC0002F59D4205D303FA02F5491B04FA02F5F8
:10020C002844151EA2F10102F1DC30BD2DE9F05F8E
:10021C000546002092469B46884606468146402469
:10022C001BE0284641464746224600F0D2F9534689
:10023C005A46C01A914110D311461846224600F076
:10024C00B9F92D1A67EB01084F462246012000210F
:10025C0000F0B0F917EB00094E41201EA4F1010487
:10026C00DFDC484631462A464346BDE8F09F10B5D0
:10027C00141E73F1000408DA401C41F100019218BD
:10028C005B411A4301D120F0010010BD2DE9F04D66
:10029C0092469B4611B1B1FA81F202E0B0FA80F2BB
:1002AC002032904600F086F904460F4640EA0A00D8
:1002BC0041EA0B0153465A46084313D0114653EA00
:1002CC00010019D0C8F14002504600F082F90546F1
:1002DC000E4650465946424600F06CF9084305D08C
:1002EC00012004E020463946BDE8F08D002005438E
:1002FC0046EAE0762C4337430A986305E40AA0EB00
:10030C0008000022FD0A44EA47540A3002D50020B6
:10031C000146E9E7010510196941DDE908450019B5
:10032C006941BDE8F04DA2E72DE9FE4F804681EA18
:10033C000300C00F0C46009021F0004123F0004553
:10034C00B8EB0200A94105D24046214690461C4616
:10035C000B46024623F00040104347D0270DC7F34D
:10036C000A00C3F30A510290401A019040286BDA3C
:10037C00C3F3130040F4801B0098924620B1002375
:10038C00D2EB030A63EB0B0B01985946C0F1400208
:10039C00504600F00FF906460D4650465946019A54
:1003AC0000F027F910EB08006141002487EA115294
:1003BC0084EAE7731A4340D0009A62B3019A012A87
:1003CC004FEA075215DC001B61EB02014FF00042B3
:1003DC0002EA0752CDE90042001C41F58011324679
:1003EC002B46FFF753FF03B0BDE8F08F4046214684
:1003FC00F9E7001B61EB0201001C41F580130018AA
:10040C005B412018A2F5001747EB030140EAD570B9
:10041C00B6196D4111E06D084FEA360645EAC07514
:10042C004FEA0752001B61EB0201001C41F58011E1
:10043C0049084FEA30000019514132462B4603B0AF
:10044C00BDE8F04FFFF713BF0098012240000023D6
:10045C00D0EB020263EBE073009821464FEAE074A4
:10046C00B8EB000061EB0401E9E783F000435BE7C4
:10047C0081F0004158E72DE9F04D81EA030404F0C6
:10048C00004B21F0004514464FF0000A23F00041C8
:10049C0050EA050220D054EA01021DD0C5F30A57D8
:1004AC000246C5F31303C1F31300C1F30A5640F41B
:1004BC00801543F48013A7EB0608101BD64608F2F0
:1004CC00FD3873EB050002D308F1010801E0921826
:1004DC005B41B8F1000F03DA00200146BDE8F08D56
:1004EC0000204FF48011064684460EE0171B73EB78
:1004FC00050705D3121B63EB050306434CEA010CFD
:10050C0049084FEA300092185B4150EA0107EDD1DF
:10051C0052EA030012D082EA040083EA0501084380
:10052C0005D0101BAB4106D20122002306E00022AD
:10053C004FF0004302E06FF0010253101AEB06007B
:10054C004CEB085110EB0A0041EB0B01BDE8F04DF0
:10055C00FFF78DBEC1F30A52C1F3130140F2FF3312
:10056C0041F480119A4202DA00200146704740F2B1
:10057C0033439A42A2F2334202DC524200F029B8D1
:10058C0000F018B830B5041E71F1000404DB4FF014
:10059C000044404264EB0101141E73F1000405DBBE
:1005AC001C464FF00043524263EB0403994208BFD0
:1005BC00904230BD202A04DB203A00FA02F10020E0
:1005CC0070479140C2F1200320FA03F31943904085
:1005DC007047202A04DB203A21FA02F000217047F0
:1005EC0021FA02F3D040C2F120029140084319468F
:1005FC007047202A06DBCB17203A41FA02F043EA77
:10060C00E07306E041FA02F3D040C2F120029140BF
:10061C0008431946704780B540F2A84045F27C412A
:10062C00C2F20000C0F2000100F06EFA58B940F2BC
:10063C00A84045F2D441C2F20000C0F2000100F023
:10064C00E8FA58B980BD45F6031045F6FC01C0F236
:10065C000000C0F200010C2201F0B8FC45F60310BA
:10066C0045F6FC01C0F20000C0F200010F2201F0BF
:10067C00ADFC000010B582B040F21450C2F2000084
:10068C00016845F2EC330131016040F6C10040F2E3
:10069C007C444FF0010CC0F200000BA1C0F200032F
:1006AC004FF48072C2F20004CDE900C403F0D4FE12
:1006BC00012804BF02B010BD2068002102B0BDE8C3
:1006CC00104002F084BD00BF424C545F74687265E8
:1006DC0061640000BEB045F2A070C0F20000D0F81A
:1006EC000880D0E90041D8F800202046904745F218
:1006FC002470C0F200008668D0E9005132682846A8
:10070C009047D8F8043040F2B061C2F200012046A4
:10071C00012205944FF001099847736840F2B161CA
:10072C00C2F200012846012206960795984740F22E
:10073C00E45540F2B054C2F20005C2F200040DF1CF
:10074C00850700BF40F2B460C2F2000000683BA90C
:10075C00322203F0ABFC002845D00DF1EC0A4646E2
:10076C009AE80105FFF729FD814640468B46FFF7C5
:10077C0024FD41EC180B5046FFF71FFD41EC100B0C
:10078C0038468DED008B3CA18DED020B4A465B4645
:10079C0004F0B4F92878012804D1012003F02AF9D7
:1007AC00F8E700BF4FF0010985F80090B046B66835
:1007BC003846FFF789FC024605983946B04700BF1A
:1007CC002078012804D1012003F014F9F8E700BFC8
:1007DC0084F80090069886683846FFF775FC024648
:1007EC0007983946B04740F29C40C2F200000068BE
:1007FC000DF1E901322203F059FC0028A2D09DF83A
:10080C00E9209DF8EA309DF8EB600DF1210023A161
:10081C00009604F073F900BF2878012804D1012058
:10082C0003F0E8F8F8E700BF85F80090C346D8F865
:10083C0008600DF121084046BA46FFF745FC024618
:10084C0005984146B04700BF2078012804D101200B
:10085C0003F0D0F8F8E700BF84F8009006980DF18B
:10086C00210786683846FFF72FFC02460798394661
:10087C00B0475746D84665E7536F696C3A252E3119
:10088C0066205261696E3A252E3166204C69676884
:10089C00743A252E31660D0A00000000414C41527D
:1008AC004D20533A256420523A2564204C3A256455
:1008BC000D0A000010B5044602F058FC2046BDE8B5
:1008CC001040FFF707BF000010B582B040F2145083
:1008DC00C2F20000016845F2F0330131016040F6CC
:1008EC00B31040F280444FF0010CC0F200000BA199
:1008FC00C0F200034FF48072C2F20004CDE900C4D0
:10090C0003F0AAFD012804BF02B010BD206800212D
:10091C0002B0BDE8104002F05ABC00BF436F6E74C9
:10092C00726F6C5F746872656164000082B040F233
:10093C00A04540F23456C2F200050DF10504C2F296
:10094C0000060027286821464FF0FF3203F0AEFB6B
:10095C000128F7D1306830B13068652810D3306881
:10096C006438306010E09DF807009DF80610C0B2A6
:10097C00084307D001F084FD022001F0C1FC03E024
:10098C00376001E001F096FD9DF8050028B100F0FC
:10099C00A2F8022001F0B4FC01E000F083F864201E
:1009AC0003F028F8CEE710B5044602F0DFFB204632
:1009BC00BDE81040FFF7BABF80B545F21871C0F220
:1009CC0000010A682023C4F217035360906040F2C0
:1009DC007850C2F2000000F0F5FA38B940F27850C5
:1009EC00C2F2000000F0E1FA58B980BD45F61A10C9
:1009FC0045F61411C0F20000C0F20001082201F00B
:100A0C00E5FA45F61A1045F61411C0F20000C0F2D2
:100A1C0000010B2201F0DAFA00BE70472DE9F0411B
:100A2C0046F22018C4F20008B8F80000B8F82010FC
:100A3C0040F2CC4501EA0006B7B20024C2F2000530
:100A4C0027FA04F0C00704D055F8241009B1204649
:100A5C0088470134102CF3D1A8F81060BDE8F08160
:100A6C000F4B1968EFF309821EF0100F08BF22ED2F
:100A7C00108A22E9F04FEFF30B8342F8043D0A6031
:100A8C004FF0500080F31188BFF34F8FBFF36F8F7F
:100A9C0003F09EF84FF0000080F3118802F01CBBAD
:100AAC002C06002080B582B040F21850C2F2000033
:100ABC0001AA40F20E4100F0AEFD0198012808D1C8
:100ACC0040F21850C2F2000040F20E41002200F039
:100ADC00B3FD02B080BD80B582B040F21850C2F2B6
:100AEC00000001AA40F20E4100F095FD019801288A
:100AFC0008D040F21850C2F2000040F20E41012220
:100B0C0000F09AFD02B080BD2DE9F04F81B00D468A
:100B1C00D5E90937CE6A41604968836107622B8841
:100B2C00002704460020C4F2170706F1080207EB61
:100B3C004323E0614F0307CA236000284FF410736E
:100B4C00D5E90289D6E900EA08BF07F580773F2886
:100B5C0008BF48F24023002A18BF4FF430731F43DC
:100B6C00A782EFF310834FF0010B8BF310882A88C8
:100B7C0000F03F0001F03F0141EA002CC2F11001EE
:100B8C0044F20C02C4F2080210680BFA01F188431B
:100B9C001060106883F3108846F2C0102268384049
:100BAC0010804FEAC931206841EA4801A0F810C012
:100BBC0041EA4A1120682246C181206880F80CE085
:100BCC00307E21680138B0FA80F0400981F8D000FD
:100BDC00686995F8201002F059F9A86995F8211068
:100BEC00224602F053F9F06996F82410224602F0DE
:100BFC004DF9306A96F82510224602F047F944F276
:100C0C0043410020C5F241212061A16001B0BDE843
:100C1C00F08FF0B50246D0E9000391E8700024F0A3
:100C2C00C04ED3F82CC0848010684FEA1E438582D6
:100C3C00106806811068C38049F6FF7000EA1543FE
:100C4C00146800EA1640E382136858814EF22000C3
:100C5C00C4F20100006840F29043C2F200031B682A
:100C6C00C0F30264C0F30210A34023FA00F044F670
:100C7C00D353C1F26203A0FB0303980941F236037C
:100C8C0000FB03F04DF68363C4F21B33D1E900453E
:100C9C00A0FB0303980C06284FF0060088BF980CA5
:100CAC0045EA04039C0000F1010001D4002423E078
:100CBC000125EFF3108485F3108844F20C05C4F27F
:100CCC0008052E6826F480062E602D6843F2000578
:100CDC0084F31088C4F20F0590262E7014684FF41C
:100CEC00807584F8DE00CC78A4068C6858BF4FF46D
:100CFC008065C4F340742C445B000FD51368022547
:100D0C0083F8DF00C8788B6840064FF4007005EA62
:100D1C00537358BF4FF40060184404431068448266
:100D2C00C86800283ED083681C051C4629D5146869
:100D3C00A4F8903084891568A5F89C40C48915687E
:100D4C00A5F89E4004681568A5F8944049F6FF750F
:100D5C0005EA14461768C4F34174A7F89660166840
:100D6C0086F892404468166805EA1445A6F898403F
:100D7C001668C4F34174A6F89A50156885F8934028
:100D8C008468A4050FD5D0E9054516682C4386F870
:100D9C00A640048A1568A5F8A840408A1468A4F8EF
:100DAC00AA0000E000231068A0F8903008691368CE
:100DBC00A3F88000DCF8100058B11068BEFA8EF76A
:100DCC00038823F01F03DB1B1F330380908A184317
:100DDC00908244F24340C5F241200968D060002063
:100DEC001161F0BD818A02680020118070470000FB
:100DFC00B0B543F22404C4F208040025C820012134
:100E0C00257100F082F8257020780028FCD120781C
:100E1C0040F00200207000BF20788007FCD4002036
:100E2C0004F8020C14F8020C0028FBD1002004F189
:100E3C001C0100BF11F8102002F07F0201F81020F5
:100E4C0011F91020002AFBD401300328F2D1012023
:100E5C0000F00BF84EF2BB420021C4F2010201205B
:100E6C001170BDE8B04000F027B880B50122EFF357
:100E7C00108182F3108840F22452C2F2000232F840
:100E8C0010308BB94EF2FE3C45F2C453C4F2010C47
:100E9C00C0F20003BCF800E033F8103043EA0E0354
:100EAC0043F42543ACF8003032F81030013322F80B
:100EBC00103081F3108880BD0122EFF3108182F392
:100ECC00108840F22452C2F2000232F8103023B1E2
:100EDC0032F81030013B22F8103032F810208AB969
:100EEC004EF2FE3CC4F2010C45F2C452BCF8003088
:100EFC00C0F2000232F8100043F4254222EA00004E
:100F0C00ACF8000081F31088704740F29042C2F2B6
:100F1C000002126801FB00F041F20021C0F27A01DC
:100F2C008A420FD340F6FF01C0F23D0111444DF649
:100F3C008362C4F21B32A1FB0212110DA0FB010152
:100F4C00E9B11FE04CF60021C3F69A3148F638138C
:100F5C00C0F24103B1FBF2F1984207D24FF47A721E
:100F6C0000FB02F0B0FBF1F0800808E08900B0FB58
:100F7C00F1F0984206D24FF47A7100FB01F028B1DF
:100F8C0001F04DB94FF0FF3001F049B9704770478F
:100F9C00022818BF704740F2185045F2EC41C2F2DB
:100FAC000000C0F2000100F02BBB416846F2003299
:100FBC00C4F2000252F8210040F08073002042F885
:100FCC0021307047F0B581B040F2A862C2F2000245
:100FDC00137840F200060D460446C2F20006D3B95F
:100FEC00012744F200011770EFF3108087F310888B
:100FFC00C4F208010A6822F480020A60096880F3CE
:10100C00108830463421FFF754F845F20C40C4F2F6
:10101C0000008660077068680068002804D456F8E1
:10102C00201019B108200DE00B200BE0296860603E
:10103C0011B1204601F0AEFF44F20030C4F254402E
:10104C002060002001B0F0BD10B582B0019100927B
:10105C00416840F2000246F2003CC2F20002C4F2C7
:10106C00000C52F821E05CF8212022F080724CF840
:10107C002120426845F20E41C4F2000142F40042C4
:10108C000C88A242FCD008228A70019A12B1019AF3
:10109C00CEF80420009A12B1009ACEF808209EF8DF
:1010AC00032002F0C004802C02D1AEF80C3003E017
:1010BC003F2A98BFAEF80E3018228A7041685CF84F
:1010CC00210040F0807200204CF8212002B010BDAD
:1010DC002DE9F04383B004460020164601904FF0F2
:1010EC00FF3002F0030900906A46204633468846DA
:1010FC0001F08DF9A068056B019F97B931074FF08E
:10110C00040158BF0221009AB30701D44B4604E0F6
:10111C0000EB81000123C264A068194300EB81003D
:10112C00C26470060CD4022E38460FD138466FB10B
:10113C006A4620464146012301F069F9019805E011
:10114C00A068016C41F480010164384625F44031FB
:10115C0041EA0741B9F1010F18BF0D4625F0407265
:10116C00B9F1000F18BF42EA0061A26800201163B8
:10117C0003B0BDE8F083806840F29043426EC2F247
:10118C00000301328A604EF22002C4F20102D0F850
:10119C002CC012681B68C2F30260CCF3C35C03FA68
:1011AC0000F002F00702D04020FA0CF04860012257
:1011BC0000200A60704700002DE9F04383B00D4613
:1011CC00097C044600220123032988BF012203FA6B
:1011DC0001F122612A7CE16049F20001C4F216019E
:1011EC0001EB02210020C4E90151D5E90612D5F822
:1011FC002080C4E9051044F21007E261EFF310827D
:10120C0083F31088C4F208072B7C4FF000413E6832
:10121C0021FA03F326EA03033B603B6882F3108850
:10122C004FF42543A2681360A268D062A268D06311
:10123C00A2689064D5E90027AB68032AA2684FEA3C
:10124C00C35308BF03F58033D362A2681161A2684F
:10125C005161A2689161A1684862A1688862D8F85E
:10126C002410A268D161D8F82810A2681162A16874
:10127C007A1E8A66A1684A662968D8F8749001902B
:10128C004FF0FF30012900900ED031B968684FF053
:10129C00FF3101EB5000009006E0E9686A462046F9
:1012AC00002301F0B4F80098A1684865A16888652E
:1012BC002968042903D3A168C865A1680866D8F811
:1012CC007410DDF804C0C9BB98F80010012916D1C0
:1012DC002A68D8F80410022A03D0032A03D1032267
:1012EC0005E0092203E00922002908BF06220B01B0
:1012FC0043EA8111114441EA090141F4807998F8DB
:10130C00081001291AD12A68D8F80C10022A04D026
:10131C00032A05D14FF4403208E04FF4102205E0C7
:10132C004FF41022002908BF4FF4C0220B0543EAEA
:10133C008151114441EA090141F08079616800232F
:10134C00096A01F1540200BF91F86C60DE40F607A7
:10135C000DD0184652F82360A768042B08BF032051
:10136C00032B08BF042007EB8000771EC7640133F2
:10137C00062BE9D1A06800218163A068C0F8881011
:10138C00D8F8740030B9D8E90B01400340EA417039
:10139C0049EA000998F86C004FF4A0010028A068F5
:1013AC0008BF4FF4AA0101642868012804D1A06881
:1013BC000021C164A0680165A1684FEA0C4040EAB5
:1013CC000C60C1F83490A168C21C0A63A16801309A
:1013DC000863D4E9020140F2EC52C2F20002C1608F
:1013EC006B694EF2001046F20031CEF20000002B79
:1013FC00C4F200011CD46F7CC6183F0186F8007340
:10140C0042F8234051F8237003F01F0627F480376D
:10141C0041F8237051F8237001255B0905FA06F693
:10142C0000EB8305BFF35F8FC5F8806140F8236044
:10143C00D8F83C30002B1DD498F83470C6183F01F6
:10144C0086F8007342F8234051F8237003F01F060E
:10145C0027F4803741F8237051F8237001255B097C
:10146C0005FA06F600EB8305BFF35F8FC5F88061C4
:10147C0040F82360D8F84030002B1DD498F8357014
:10148C00C6183F0186F8007342F8234051F82370C8
:10149C0003F01F0627F4803741F8237051F82370AE
:1014AC0001255B0905FA06F600EB8305BFF35F8F98
:1014BC00C5F8806140F82360D8F84430002B1DD467
:1014CC0098F83670C6183F0186F8007342F823402E
:1014DC0051F8237003F01F0627F4803741F823706E
:1014EC0051F8237001255B0905FA06F600EB83051C
:1014FC00BFF35F8FC5F8806140F82360D8F848309F
:10150C00002B1DD498F83770C6183F0186F800736D
:10151C0042F8234051F8237003F01F0627F480375C
:10152C0041F8237051F8237001255B0905FA06F682
:10153C0000EB8305BFF35F8FC5F8806140F8236033
:10154C00D8F84C30002B1DD498F83870C6183F01D1
:10155C0086F8007342F8234051F8237003F01F06FD
:10156C0027F4803741F8237051F8237001255B096B
:10157C0005FA06F600EB8305BFF35F8FC5F88061B3
:10158C0040F82360D8F85030002B1DD498F83970EF
:10159C00C6183F0186F8007342F8234051F8232007
:1015AC0022F4803241F8232051F8231003F01F015C
:1015BC005B09012200EB830702FA01F1BFF35F8F95
:1015CC00C7F8801140F8231045F25401C0F24701CE
:1015DC000020216003B0BDE8F08382680129506BC4
:1015EC0040F4807318BF1846002918BF40F0807370
:1015FC00002053637047D0E9021200204A60704704
:10160C0080B545F25422C5F24F020260084601F043
:10161C00E3FC002080BD6FF03F0000EA9100C9B2EE
:10162C0000EB810040F60001C4F208014058C0F301
:10163C004001002011607047C8B2012383409BB267
:10164C004FF4803C002A08BF0CFA00F34FF4FF5013
:10165C0000EAD1010822C4F2080200208B50704726
:10166C008A0701D4062206E0026A937803F07B0312
:10167C00937000220261C9071CBF002282611046D0
:10168C00704710B5C2690123127803FA02F212F006
:10169C00060F02D00A78120723D4026A4FF0000E0C
:1016AC0092F802C00CF00B039370036A8A78C0F8AE
:1016BC000CE05A704A781C7802F0030204F0FC0427
:1016CC0022441A70CA789A74DA79097802F0A30263
:1016DC0001F05C011144D971006A0CF07B0181703E
:1016EC0001E04FF0030E704610BD8446C0E90913AB
:1016FC000020CCF82C207047026A002141609170C8
:10170C00C1694EF2801C4A69012102F01F0301FAE3
:10171C0003F35209CEF2000C4CF82230BFF34F8F7A
:10172C00BFF36F8FC269D26A02F01F0301FA03F391
:10173C0052094CF82230BFF34F8FBFF36F8FC26941
:10174C00D26902F01F0301FA03F352094CF822305C
:10175C00BFF34F8FBFF36F8FC269526A02F01F0342
:10176C0001FA03F352094CF82230BFF34F8FBFF349
:10177C006F8FEFF3108281F3108844F20403C06979
:10178C00C4F2080300784FF0004C19682CFA00F0F2
:10179C0008431860186882F31088002070474FF0D7
:1017AC00FF3200200A604A6070470A780123934098
:1017BC0013F0060F05D00B6CDB681B781B0700F1D0
:1017CC00E0802DE9F04748F20003C4F2110343EA2C
:1017DC000222D1E90E364FF0000843628378C662CC
:1017EC0023F003035E1C86704E68026280F8008052
:1017FC00C161C0F8288016B943F002038370CF6A28
:10180C004EF2001C07F01F034FF0010ECEF2000C3D
:10181C000EFA03F30CF180047E0991F8285044F879
:10182C002630BFF34F8F46F2003AC4F2000ABFF3E2
:10183C006F8F5AF827602A0126F480364AF8276001
:10184C000CF540755AF82760EA554A6940F2EC5994
:10185C0002F01F06C2F200090EFA06F6530949F807
:10186C0027000F7C44F82360BFF34F8FBFF36F8FBB
:10187C005AF822303E0123F480334AF822305AF8C9
:10188C002230AE5449F82200CA690B7E02F01F06C2
:10189C000EFA06F6570944F82760BFF34F8FBFF3D3
:1018AC006F8F5AF822601B0126F480364AF82260AA
:1018BC005AF82260AB5449F822004A6A91F8203059
:1018CC0002F01F060EFA06F6570944F82760BFF31C
:1018DC004F8FBFF36F8F5AF822401B0124F48034D2
:1018EC004AF822405AF82240AB5449F82200EFF350
:1018FC0010828EF3108844F204050B78C4F20805AC
:10190C004FF000442E6824FA03F326EA03032B60FD
:10191C002B6882F31088026A82F80280026A82F8CD
:10192C000480026A82F80980026A82F80A80026ADC
:10193C0082F80B80026AA2F81A800A780EFA02F377
:10194C0040F2F932134202D0036A4024DC74036A79
:10195C0006241C770B780EFA03F3134203D0026AA9
:10196C004FF478439382D1E90163CA684FEAC2020B
:10197C0042EA03123EB1032E08BF42F04002F226A7
:10198C0002E00322ADE0E226036A02271A70026A23
:10199C00002596710A6C936907EA4307082B036AC2
:1019AC0008BF0A275F73066AD2E9013735721668D9
:1019BC00DB0126F00106022EDEB267F345160AD1D2
:1019CC00036AFF275F701268022A026A08BF46F09A
:1019DC001006D67117E0036ADE71D268036A977835
:1019EC005F7057781E7807F0030706F0FC06374443
:1019FC001F70D7789F74DF79127807F0A30702F075
:101A0C005C023A44DA710022C369C0E90322C0E9DE
:101A1C000522D1F840E05B699EF800105AF823408B
:101A2C0003F01F0524F480344AF823405AF823406D
:101A3C00012404FA05F60CF5C0755B09BFF35F8F42
:101A4C0045F823604CF82360C369DB6A5AF82360BD
:101A5C0026F480364AF823605AF8236003F01F06F8
:101A6C0004FA06F65B09BFF35F8F45F823604CF868
:101A7C002360C369DB695AF8236026F480364AF880
:101A8C0023605AF8236003F01F0604FA06F65B097C
:101A9C00BFF35F8F45F823604CF82360C3695B6A22
:101AAC005AF8236026F480364AF823605AF82360EB
:101ABC0003F01F06B4405B09BFF35F8F45F823406A
:101ACC004CF823401C23076A63F39F01B970DEF8BE
:101ADC00141044F65513C5F24333C0E90131BDE887
:101AEC00F0471046704703460020C3E905127047C3
:101AFC000246806908600021002091617047062031
:101B0C0070470620704780B5D0F820E09EF802C0E0
:101B1C000CF07B038EF80230837803F00303A2EB06
:101B2C00030C0B44026AC0E9033C937843F0800336
:101B3C009370827802F00302022A05D10988006AA8
:101B4C0041F47E41C18102E00978006AC170002035
:101B5C0080BD000000F0BAF900F08DFDFEE700003A
:101B6C001EF0040F0CBFEFF30880EFF3098001495E
:101B7C00084700002538000010B582B040F2145020
:101B8C00C2F20000016845F2F4330131016041F604
:101B9C00F13040F288444FF0010CC0F200000BA170
:101BAC00C0F200034FF48072C2F20004CDE900C40D
:101BBC0002F052FC012804BF02B010BD20680021C5
:101BCC0002B0BDE8104001F002BB00BF5363726568
:101BDC00656E5F746872656164000000642001F0DA
:101BEC0009FFFBE710B5044601F0C0FA2046BDE83A
:101BFC001040FFF7F3BF000010B582B040F2145054
:101C0C00C2F20000016845F2F8330131016041F67F
:101C1C00756040F28C444FF0010CC0F200000BA137
:101C2C00C0F200034FF48072C2F20004CDE900C48C
:101C3C0002F012FC012804BF02B010BD2068002184
:101C4C0002B0BDE8104001F0C2BA00BF53656E6F20
:101C5C00725F74687265616400000000A0B01DAC16
:101C6C00FEF7D9FC40F2944BC2F2000BBBF800001B
:101C7C00FEF7A2FE00F0AEF945F2A070F3EE0EAA4C
:101C8C00C0F20000016880689FED6B8A9FED6B9A33
:101C9C009FED6BAA9FED6BBA9FED6BCA9FED6BDA54
:101CAC009FED6BEA9FED6BFADFED6B8ADFED6B9AC4
:101CBC00DFED6BBADFED6BCA0DF10D070DF1710A9B
:101CCC0002910190BBF80260BBF80450BBF806808F
:101CDC00384657A132462B4602F010FF0198D0F837
:101CEC0008903846FEF7F0F9024602983946C84784
:101CFC001E2001F07FFE00EE106A01EE105AB8EEC5
:101D0C00400AB8EE411A80FE480A40F2BC6080FEE0
:101D1C00090A81FE4C1A38EE400A02EE108A80EE57
:101D2C000A0A81FE0D1AC2F200003CEE411AB8EE0E
:101D3C00422A81EE0E1A82EE0F2A90ED003A40F202
:101D4C00AC6123EE283A40F22462C2F20001C2F2E6
:101D5C00000292ED004A002320EE0B0A24EE284AE2
:101D6C0020EE290A30EE030A21EE0B1A91ED003A0F
:101D7C0022EE0B2A23EE283A21EE291A22EE292AEA
:101D8C0080ED000A40F2B46031EE031A32EE042A00
:101D9C00C2F2000081ED001A006882ED002A214693
:101DAC0084ED000A4FF0FF3284ED011A84ED022A13
:101DBC0002F028F894ED000A0020B4EE6A0AADF89F
:101DCC007100F1EE10FA8DF87300BCBF01208DF894
:101DDC007100514694ED010A4FF0FF32B4EE6B0ADC
:101DEC000023F1EE10FAC4BF01208DF8720094EDBF
:101DFC00020AB4EE6C0AF1EE10FAC4BF01208DF8A1
:101E0C00730040F29C40C2F20000006801F0FAFF3F
:101E1C0040F2A040C2F200000068514600220223AA
:101E2C0001F0F0FF4FF4FA6001F0E4FD4AE700BF67
:101E3C0025642C25640D0A0000C0734500002F4555
:101E4C00008089440000C84200C07D4500C00F4599
:101E5C000000DC4400F07F45CDCC4C3FCDCC4C3E5B
:101E6C0000008C420000A04210B5044601F07EF93F
:101E7C002046BDE81040FFF7F1BE10B55020EFF33F
:101E8C00118480F3118802F0FBFB30B14EF6045044
:101E9C00CEF200004FF08051016084F3118810BD28
:101EAC004EF22000C4F201008179006840F26042D9
:101EBC00C2F20002C0F3026052F8211021FA00F0C5
:101ECC0040F29041C2F200010860704710B54EF626
:101EDC000850CEF200004FF47001C0F8801040F2B0
:101EEC000001C0F20001016000200024FFF750F84F
:101EFC0000F0B0F80120FFF74BF840F26000C2F29E
:101F0C00000080F30A88002000F032F8FFF7C8FFC9
:101F1C00FEF76EFF0320FEF7A8FF40F61050C4F248
:101F2C0008004FF6FF7100BF20F8141001340C2C80
:101F3C00FAD10320FEF7C0FF0320FEF796FF042022
:101F4C00C4F20E000021016041608160C160032079
:101F5C00FEF7B2FF0220FFF71BF8012000F008F893
:101F6C0000F018F90020BDE8104000F011B9000095
:101F7C00F0B581B045F27855C0F200052E680446E4
:101F8C0076B16868071D00BF7879844204D157E99F
:101F9C000101091AFEF78DF8013E07F10C07F3D188
:101FAC00AE6886B1E86800F1080500BF6879844224
:101FBC0005D155E902022968121AFEF761F8013EB3
:101FCC0005F11005F2D101B0F0BD000000BE00BF5C
:101FDC00FEE7000080B540F2A840C2F20000FEF718
:101FEC0001FF00B980BD45F6FC0103A0C0F2000161
:101FFC001522FFF7EBFF00BF4653505F5355434389
:10200C00455353203D3D206572720000406800B17D
:10201C00704780B540F27850202140F29442C2F2D1
:10202C000000C4F21701C2F200020423FFF70CF8FF
:10203C0040F2A442014640F2A840C2F20002C2F2B1
:10204C0000001160BDE88040FEF7CCBE002000F01F
:10205C0049BF00002DE9F0414EF2FE34C4F20104F8
:10206C004AF203504CF200152080C4F20105012005
:10207C00A88000BFA8880028FCD147F200010120ED
:10208C00C4F2000128808860086040F2604642F685
:10209C00005041F20022C2F20006C0F23110C0F230
:1020AC007A02C6E9000243F200604FF40041C0F22C
:1020BC006E10C6E902104CF20020C0F6EB304EF266
:1020CC0020073161C4F201077061B879396856F89C
:1020DC002000C1F3026140F29048C840C2F20008EF
:1020EC00C8F8000000206075092087F8820094F879
:1020FC00820018B994F88300800744D094F88200C9
:10210C0050B9012084F88200C8200121FEF7FDFEA1
:10211C0094F882000128FBD1002084F8830084F815
:10212C0082000020B87400BF387F0007FCD543F252
:10213C00021038810020B872387F8006FCD503204D
:10214C00287741F22120C2F2010038600520B871D5
:10215C00B879396856F82000C1F30261F022C84002
:10216C00C8F8000042F20800C4F20000F12101712D
:10217C000121017002714FF42540397487F8321037
:10218C002080BDE8F0814FF47A70FEF700FFC8E7BD
:10219C007047000070B584B048F248060320C4F2C2
:1021AC000006FEF762FE6FF0FF0045F290543060BF
:1021BC004FF0FF300021C0F200040122CDE90200F3
:1021CC0054F8213002FA01F5002B18BFA843013155
:1021DC000D29F5D14EF280320190002001A9CEF2EA
:1021EC00000200BF51F8203006EB8005AB6242F8CC
:1021FC00203001300328F5D10320FEF75DFE46F2B6
:10220C0000310020C4F2000154F820200AB141F83A
:10221C00202001300D2804BF04B070BDF4E7013854
:10222C000028FCD1704700002DE9F04F81B0044626
:10223C00008800285AD043F240084EF2BB4B0025D0
:10224C00C4F208080FF2AC0AC4F2010B4FF00109FA
:10225C00002700BF60685AF8272000EBC5004168D2
:10226C0091423CD100689BF8001000F0B85009FA7C
:10227C0007F6B0F1807F06EA010015D150B90120B4
:10228C00FEF7F3FD9BF8000030438BF800000120B3
:10229C00FEF712FE18F91700002820D418F81700C2
:1022AC0040F0800015E000BF50B10120FEF7DDFDCD
:1022BC009BF80000B0438BF800000120FEF7FCFDFA
:1022CC0018F91700B0F1FF3F09DC18F8170000F0FF
:1022DC007F0008F81700C8200121FEF716FE013711
:1022EC00032FB7D1208801358542B1D301B0BDE8A9
:1022FC00F08F00BF0204000003040000040400007F
:10230C00E0B1B0B540F218550446C2F2000500BF6A
:10231C00284640F205410022FFF78EF9C82001F053
:10232C0069FB284640F205410122FFF785F9C820D8
:10233C0001F060FB013CEBD1BDE8B0407047B0B59B
:10234C0040F21855C2F200050446284640F20541F9
:10235C000022FFF771F9204601F04CFB284640F2B1
:10236C0005410122BDE8B040FFF766B980B51420E5
:10237C000421002201F0B2FC40F28441C2F20001BF
:10238C00086018B90020002100F021FF14200C2156
:10239C00002201F0A3FC40F2B461C2F2000108601B
:1023AC0018B90020002100F012FF1420082100228F
:1023BC0001F094FC40F29C41C2F20001086018B993
:1023CC000020002100F003FF01200821002201F071
:1023DC0085FC40F2A041C2F20001086018B900204F
:1023EC00002100F0F4FE01200021032201F076FC14
:1023FC0040F2E851C2F20001086000B180BD00203B
:10240C000021BDE8804000F0E2BEFFF7AFBFB0B5E1
:10241C00D0F808E0DEF8684004F1010421B1A142D3
:10242C0002D2481E1060B0BD4FF0000CA14238BF64
:10243C004FF0010C1024002918BF0121DEF834E004
:10244C0004EA031340682EFA03F3046803F00C004B
:10245C000438B0FA80F04009032C03F0100E4FF052
:10246C00010588BF85EA1E1001431CBF80F00100E6
:10247C0050EA0C0001D1022000E003205060B0BDF6
:10248C0010B52DED028B40F2B864C2F20004207836
:10249C0058B19FED078AB0EE480A00F07DFFB0EE10
:1024AC00480A00F0B7FF00202070BDEC028B10BD75
:1024BC000000000010B52DED028B40F2B864C2F2A2
:1024CC000004207801280BD09FED078AB0EE480A53
:1024DC0000F062FFB0EE480A00F09CFF0120207073
:1024EC00BDEC028B10BD00BF0000B44210B582B031
:1024FC0040F21450C2F20000016845F6E8030131C5
:10250C00016042F2716040F220644FF0010CC0F2A5
:10251C0000000BA1C0F200034FF40072C2F20004E1
:10252C00CDE900C401F098FF012804BF02B010BD32
:10253C002068002102B0BDE8104000F048BE00BF8A
:10254C006C65645F746872656164000082B040F20F
:10255C0058540020C2F2000445F274610190C0F29C
:10256C0000012046FEF728FE20460021FFF735F833
:10257C002046FFF740F840F23854C2F2000445F20E
:10258C00D051C0F200012046FEF716FE2046002175
:10259C00FFF723F82046FFF72EF840F2844640F26E
:1025AC00185840F23457C2F2000601ACC2F20008CF
:1025BC00C2F200074FF47A75306821464FF0FF32B3
:1025CC0001F074FD0128F7D10198602808DC43283C
:1025DC0012DC302824D031282CD04128ECD039E022
:1025EC00A0F16E01092916D8DFE801F0123412347B
:1025FC00340534343405DFE7A0F14E01092926D81F
:10260C00DFE801F006280628280528282805D3E746
:10261C00FEF761FA22E0612818BF6428CCD019E0DB
:10262C0040464FF480610122FFF706F83D60FFF74A
:10263C0027FF08E040464FF480610022FEF7FCFFC4
:10264C003D60FFF737FF3220FFF779FEB4E74428EF
:10265C003FF4B2AF4FF4806000F01AFF0220FFF796
:10266C004FFEA9E710B5044600F080FD2046BDE8FA
:10267C001040FFF76BBF80B540F21450C2F200005F
:10268C000021016040F20C50C2F2000001704FF4C6
:10269C008070012101F008FB40F21051C2F20001E0
:1026AC00086018B90020002100F091FDFFF71EFF13
:1026BC00FDF7E0FFFFF7A0FAFFF75EFAFEF704F96B
:1026CC0001F02AFA002080BD2DE9F04381B00E46BE
:1026DC0042F6E071C2F200010D6840F23461C2F2C0
:1026EC000001D1F8008040F23C6140F22C64C2F24F
:1026FC000001C2F20004D1F8009021680746081DC1
:10270C0000F052FF781C16D1AEB142F6B870C2F28E
:10271C000000D0E90012236801319A6093682768A1
:10272C00FB60276804375F6023680433936022687A
:10273C000160506117E02068ED194560206800F1D8
:10274C00040105D3484601B0BDE8F04300F05CBF7E
:10275C00404600F059FF42F63470C2F200000168A6
:10276C008D4238BF056001B0BDE8F08370B500F054
:10277C0068FF42F6E476C2F20006306808BB42F607
:10278C00D864C2F20004204600F030FF42F6EC653B
:10279C00C2F20005284600F029FF40F23060C2F278
:1027AC000000046040F24060C2F2000005600A20A4
:1027BC000C21002201F092FA306010B103A101F05B
:1027CC00C7F8BDE8704000F063BF00BF546D725194
:1027DC0000000000F0B581B042F6C865C2F20005F9
:1027EC002868F8B142F6CC7642F6C467C2F200060D
:1027FC00C2F2000700F025FFF068C468201D00F04D
:10280C00D3FE38680138386028680138286000F039
:10281C003FFF206B00F062FF204600F05FFF28684E
:10282C000028E7D101B0F0BD70B5866B036C04468F
:10283C0043B31546CAB1E0681A46FDF721FCE168BE
:10284C00206C2268091A9142E16003D2A1684042CF
:10285C000844E060A81EB0FA80F040093146002E12
:10286C0018BF01210840361A0CE060681A46FDF7C3
:10287C0007FCD4E90101226C10448842606001D34A
:10288C0020686060701CA06370BD000040F244645E
:10289C004EF60455C2F20004CEF200054FF08056FD
:1028AC00FFF798FF2068022804D32E60BFF34F8FE8
:1028BC00BFF36F8F00F08EFEF2E78C46014641F8B5
:1028CC0004CF9445006108D940F230609A42C2F2BC
:1028DC0000000AD29C450ED207E08069D21A8242CF
:1028EC0009D240F24060C2F2000080B5006800F0EE
:1028FC008BFE002080BD0120704770B540F2306225
:10290C00C2F2000212680646D2680D46D468201D39
:10291C0000F04AFE94F82400410704D400F0FA00B9
:10292C0084F8240004E0204631462A4600F006F8DC
:10293C00216A2046BDE870400847000070B5054686
:10294C00806914460E460144284600BF3346FFF703
:10295C00B4FF48B1A869296A064428468847A86983
:10296C00224681192846F1E770BD0000F0B581B010
:10297C00044601F07FFE40F22866C2F20006316880
:10298C00054688420ED240F23067C2F2000700BF03
:10299C003868016841B1C0684FF0FF310068FFF73B
:1029AC00ACFFF5E7002007E040F24061C2F2000105
:1029BC000A68086001203A6020602846356001B042
:1029CC00F0BD000000BE00BFFEE7000084B040F286
:1029DC00306842F6E475C2F2000801ACC2F20005A0
:1029EC004FF00009EB4600BFD8F80000D0F800A06B
:1029FC00BAF1000F1ABFC0680668002601F0E0F8B3
:102A0C002046FFF7B3FF019911B101F07BFF2DE0D8
:102A1C000746BAF1000F08D0BE4206D801F072FF8B
:102A2C0030463946FFF769FF20E0BAF1000F01D0BC
:102A3C00002208E040F24060C2F20000006800682A
:102A4C00B0FA80F042092868F11B00F0B0FF01F0E9
:102A5C0059FF58B94EF604514FF08050CEF2000198
:102A6C000860BFF34F8FBFF36F8F00BF2868CDE9AD
:102A7C000299CDF8049000BF2146002201F016FB0C
:102A8C000028B1D0019800284CD4039E706910B175
:102A9C00301D00F089FD5846FFF768FF0199013998
:102AAC0008293FD80746DFE801F005052C1C3F0537
:102ABC00052C1C0096F82400029BB16940F0010023
:102ACC0086F82400194430463A46FFF7F6FE48B320
:102ADC0096F8240041071BD400F0FA0086F8240075
:102AEC001DE096F8240040F00101029886F82410AD
:102AFC00B06108B3C11930463A463B46FFF7DDFEDC
:102B0C0010E096F8240000F0FE0086F8240009E09E
:102B1C000298B1693A4601443046FFF70FFF316A1B
:102B2C00304688472868A7E796F824008107EAD43E
:102B3C00304600F0D3FDF5E746F27A0103A0C0F26F
:102B4C0000014FF48262FFF741FA00BF2820707831
:102B5C0054696D65722D3E7854696D65725065725D
:102B6C00696F64496E5469636B73203E2030202971
:102B7C0000000000F0B581B0044600F062FD94F94D
:102B8C004560012E0EDB04F1240500BF286848B116
:102B9C00284601F03EFE08B100F064FF70B2013E21
:102BAC000128F3DCFF2684F8456000F071FD00F08D
:102BBC0048FD94F94470012F0EDB04F1100500BFA1
:102BCC00286848B1284601F024FE08B100F04AFFFD
:102BDC0078B2013F0128F3DC84F8446001B0BDE811
:102BEC00F04000F055BD0000F0B581B000F10805D3
:102BFC00092D05D310F0070103D009398D426DD989
:102C0C00002500F0DDFF40F23860C2F200000268DF
:102C1C0032B142F62870C2F20000D0F800C029E0B0
:102C2C0040F2C061C2F20001CA1D4B0701F52053EE
:102C3C0018BF22F0070142F6B072C2F20002002760
:102C4C00C2E9001723F00702A2F10803036042E96E
:102C5C000277026842F63070A3EB010CC2F200005E
:102C6C00C0F800C042F62870C2F20000C1E9002C86
:102C7C00C0F800C0012D4FF0000477DB654575D816
:102C8C0042F6B070C2F20000016840F2C06EC2F2AF
:102C9C00000E7145C0F0888042F2FF707044814292
:102CAC0000F282804B68AB4216D20F68DFB142F261
:102CBC00FF700EEB000400BF77456AD30846394617
:102CCC00A74266D84B680026AB4238BF01260FD20C
:102CDC000F68002FF0D10BE0002605E020F0070074
:102CEC0000F110058DE7012642F6B070C2F200002B
:102CFC0091421DD0026802F1080474455FD342F280
:102D0C00FF72724494425AD80A68002E026062D153
:102D1C005B1B102B0ED94F197E0765D1C7E9002319
:102D2C0042F62872C2F20002D2F800C0076002E03C
:102D3C0000241BE04D6842F63070C2F200000368BC
:102D4C00ACEB050242F62877C2F200079A4242F633
:102D5C003C733A6038BF0260C2F200031F6845F052
:102D6C0000400022C1E90020781C186001F0CAFD67
:102D7C00600702BF204601B0F0BD45F66A3045F64B
:102D8C00A331C0F20000C0F2000140F25712FFF76D
:102D9C001DF945F62D1045F6A331C0F20000C0F226
:102DAC000001FB22FFF712F945F62D1045F6A33171
:102DBC00C0F20000C0F20001F522FFF707F945F65A
:102DCC000D2045F6A331C0F20000C0F2000140F224
:102DDC000512FFF7FBF845F6A33115A0C0F2000170
:102DEC0040F20D12FFF7F2F845F6A33103A0C0F242
:102DFC0000014FF48B72FFF7E9F800BF2820282060
:102E0C00282073697A655F7420292070784E657765
:102E1C00426C6F636B4C696E6B2029202620282036
:102E2C0030783030303720292029203D3D203000AB
:102E3C00282028207078426C6F636B2D3E78426C92
:102E4C006F636B53697A652029203C2028207857C2
:102E5C00616E74656453697A6520292029203D3D93
:102E6C0020300000283140F8481D42F6D111C0F244
:102E7C0000014FF0807C22F00102C1636FF002016F
:102E8C000264C0F844C0C0E909137047002828D474
:102E9C004EF2001CCEF2000C090100EB0C0383F87F
:102EAC00001340F2EC51C2F2000141F8202046F22E
:102EBC000031C4F2000151F82020012322F48032A9
:102ECC0041F8202051F8201000F01F02400903FAAD
:102EDC0002F20CEB8003BFF35F8FC3F880214CF838
:102EEC00202070472DE9F04190B0EFF3038140F2C0
:102EFC00EC526FF35F21C2F2000202EB810146F249
:102F0C00C02251F8404CEFF303816FF35F21C4F200
:102F1C00000252F8213023F4803342F8213052F869
:102F2C00211001906068A1690088226AADF8000048
:102F3C0000200390029251B3E069C0B100F1140873
:102F4C0090E80E5098E8600108AF87E80E50CDE984
:102F5C000D56059D9DE8CE00456180E8CE00DDE96B
:102F6C000621CDF83C80C0E90621A16900E0684645
:102F7C008847E06958B1DDE90C65DDE90E4C08AF16
:102F8C008ECFC0E9046580E88E00C0E9064C10B015
:102F9C00BDE8F08101F10E0212F80B3C402B06D378
:102FAC00B2F800C05FFA8CF343EA0C23138012F8DA
:102FBC000C3C10323F2BEFD845F21042C4F2000209
:102FCC0008231370406840F20003C2F2000343F878
:102FDC00201018201070704770B50446FFF724F9C4
:102FEC0040F2305CEFF31080012181F31088C2F2C3
:102FFC00000CDCF8001039B940F60351C4F208019A
:10300C0000220A7040220A70DCF800100131CCF862
:10301C00001080F31088208818B340F6000E0021B1
:10302C00C4F2080E606800EBC10250F831305268EF
:10303C00DD034FEA1220D2B20BD50EEB801555F8FA
:10304C00226026F4803645F8226023F4803645F859
:10305C0022600EEB8010013140F822302088814232
:10306C00E0D30120EFF3108180F31088DCF800002E
:10307C0020B1DCF800000138CCF80000DCF80000CE
:10308C0038B940F60350C4F20800002202708022C6
:10309C00027081F3108870BDB0B584B00446806AAC
:1030AC0040B1D0E900CED0E90253CDE900CECDE954
:1030BC00025300E06846E369D4F824C01B78E56A43
:1030CC00C0E90032C0E90215E047A06A10B19DE8E2
:1030DC002E002EC004B0B0BD074801680A6802CAB1
:1030EC0081F30B88B2E8F04F1EF0100F08BFB2EC62
:1030FC00108A82F3098870472C06002088B14EF2A2
:10310C000C00C4F20100B0F90010B1F1FF3F09DD71
:10311C00BFF34F8F30BFBFF36F8F62B6BFF36F8FAC
:10312C0072B6704780B54EF2FE32C4F20102B2F8AC
:10313C0000E04AF2025CCFF6FF7C0023A2F800C04C
:10314C0003804EF425431380BFF34F8F30BFBFF382
:10315C006F8F62B6BFF36F8F72B61388A2F800C080
:10316C00018043F42540108080BD0000B0B540F2D2
:10317C001054C2F2000420684FF0FF3101F064F8E3
:10318C00012803D02068002100F021F840F20C50F7
:10319C00C2F20000017801B1B0BD01210170FFF74E
:1031AC0034F940F21455C2F2000500BF286801380A
:1031BC002860F1D0206800210022002300F022FEBC
:1031CC000128F3D02068002100F001F8EEE700BEE2
:1031DC007047B0B5EFF303806FF35F20A0F11005DB
:1031EC0040F2EC50C2F2000050F825008178036ADE
:1031FC0001F00301022912BF5979198A6FF35F217B
:10320C001A79D40602F0380203D51C7FE40708BFF4
:10321C0040321C7904F0C7041C71436A0BB1FFF7F0
:10322C003BFF46F20030C4F2000050F8251021F4A8
:10323C00803140F8251050F82500B0BD10B582B093
:10324C00EFF3038040F2FC7101EA800046F2C021EA
:10325C00C4F20001425822F48032425040F2EC5247
:10326C00C2F200024158104450F8404CA07800F0D3
:10327C000302206A022A12BF4179018A6FF35F218F
:10328C00A069019198B1606901A9FCF7F9FEA078D9
:10329C006169A26900F003000144101A6161A06128
:1032AC000ED1606A60B120460021012203E0606A01
:1032BC0030B12046042202B0BDE81040FFF7ECBE4E
:1032CC0002B010BD10B5EFF303806FF35F20A0F1D7
:1032DC00100440F2EC50C2F2000050F82400016AD5
:1032EC008A7802F07B028A70416A19B100210222AD
:1032FC00FFF7D2FE46F20030C4F2000050F8241062
:10330C0021F4803140F8241050F8240010BDEFF364
:10331C00038040F2FC7101EA800046F2C021C4F245
:10332C000001425822F48032425040F2EC52C2F278
:10333C0000024158104450F8400CC1694A6B0169B5
:10334C00C2B9C1B1817801F00302C168022A05D16A
:10335C000988026A41F47E41D18102E00978026A4F
:10336C00D1708178026901F00303D11AC26801613E
:10337C001A44C26071B9016A8A7802F07B02043285
:10338C008A70416A00294FF00001C1601CBF802285
:10339C00FFF782BE7047000010B52DED048B84B092
:1033AC009FED171A40F258549FED168AC2F2000492
:1033BC0080FE010A01A980FE489A2046FDF7DBFE3B
:1033CC0089EE080A9FED101A2046002220EE010A11
:1033DC009FED0E1A30EE010A9FED0D1A80EE010AD8
:1033EC009DED031AB8EE411A20EE010ABCEEC00A9C
:1033FC0010EE101AFDF76CFE04B0BDEC048B10BD82
:10340C0000000000000034430000FA440000FA43BE
:10341C0000409C4610B52DED048B84B09FED171A1F
:10342C0040F238549FED168AC2F2000480FE010A65
:10343C0001A980FE489A2046FDF79DFE89EE080AF8
:10344C009FED101A2046002220EE010A9FED0E1A65
:10345C0030EE010A9FED0D1A80EE010A9DED031A64
:10346C00B8EE411A20EE010ABCEEC00A10EE101A9A
:10347C00FDF72EFE04B0BDEC048B10BD0000000067
:10348C00000034430000FA440000FA4300409C461C
:10349C00B0B582B040F218550446C2F2000501AA3C
:1034AC0028462146FEF7B7F801982146B0FA80F07D
:1034BC0042092846FEF7C0F802B0B0BD10B582B084
:1034CC00406800210228019129D001282CD140F21A
:1034DC00B164C2F2000440F284402178C2F20000D0
:1034EC0000680091694601AA002300F05FFD45F2D7
:1034FC002470C0F20000816800684B6821460122EC
:10350C009847019880B14EF60450CEF200004FF06F
:10351C0080510160BFF34F8FBFF36F8F04E040F217
:10352C00B050C2F20000017002B010BD70B582B094
:10353C0040680021022801912FD0012832D145F298
:10354C00A07140F2B064C0F20001C2F200048E68B7
:10355C0020780D68B36800902846214601229847D0
:10356C0040F28440C2F200000068694601AA0023C0
:10357C0000F01CFD736828462146012298470198EB
:10358C0080B14EF60450CEF200004FF08051016035
:10359C00BFF34F8FBFF36F8F04E040F2E450C2F2E1
:1035AC000000017002B070BDD0E901320169D1F8A0
:1035BC0004C09A608445536008BF4A600B680022BF
:1035CC000261581E0860704742F6C460C2F20000E7
:1035DC000068704780B572B600F0F2FA0120FFF770
:1035EC008DFD62B6BDE8804001F08CB94FF0FF3123
:1035FC00024642F8081F0021C0E90322C0E900126C
:10360C00704700210161704780B5D1F800C01CF1F2
:10361C00010207D000F10802964652681368634510
:10362C00FAD903E0D0F810E0DEF804204A6091608B
:10363C000268C1F808E0CEF804100861511C016062
:10364C0080BD5021EFF3118081F3118842F6C061E7
:10365C00C2F200010A68531C0B605AB940F22051A7
:10366C00C2F2000108604EF60450CEF20000006871
:10367C00C00500D1704746F2D30046F21911C0F2D2
:10368C000000C0F2000140F2A442FEF79FFC0000D3
:10369C0042F6C060C2F20000016859B10139016004
:1036AC0018BF704740F22050C2F20000006880F34F
:1036BC001188704746F2191103A0C0F2000140F2C4
:1036CC00AD42FEF783FC00BF757843726974696381
:1036DC00616C4E657374696E6700000070B50028EC
:1036EC0041D040F2C066A0F10805C2F200060446C3
:1036FC00B54253D342F2FF70304485424ED854F851
:10370C00040C002856D5296800295FD120F0004010
:10371C0044F8040C00F054FA42F62870C2F200008F
:10372C0054F8041C026842F6B0730A44C2F2000357
:10373C0002601A4610461268AA42FBD3984206D081
:10374C00B0424CD342F2FF733344984247D843689B
:10375C00C618AE4202D11944054641606B1893421B
:10376C0002D013460BE070BD40F23863C2F2000386
:10377C001B689A4203D0D2E9003211446960A84216
:10378C002B6018BF056042F64070C2F20000016861
:10379C0001310160BDE8704001F0B4B845F69E10EF
:1037AC0045F6A331C0F20000C0F200014FF4B5722F
:1037BC00FEF70CFC45F6F72045F6A331C0F20000ED
:1037CC00C0F2000140F26B12FEF700FC45F6A3318B
:1037DC0009A0C0F200014FF4B672FEF7F7FB45F6F4
:1037EC00802045F6A331C0F20000C0F200014FF476
:1037FC00FD72FEF7EBFB00BF70784C696E6B2D3ED3
:10380C0070784E65787446726565426C6F636B2098
:10381C003D3D203000000000806910F8020C0228A9
:10382C0008BFFFF759BC042838BF704746F219117E
:10383C0003A0C0F200014FF47E72FEF7C7FB00BF7D
:10384C0075635356434E756D626572203C3D203353
:10385C000000000040F29040C2F20000006844F604
:10386C00D351C1F26201A0FB01014FF0FF3000EB1C
:10387C0091110020B0EB116F18BF70474EF210027F
:10388C00CEF2000251604EF62351CEF20001F0232D
:10389C000B7090600720106070470000EFF30380FE
:1038AC006FF35F20102806D34EF2F031CEF20001F8
:1038BC00405C4F2810D94EF60C50CEF20000006838
:1038CC00400558BF704746F2191116A0C0F200010E
:1038DC0040F22162FEF77AFB46F2191103A0C0F206
:1038EC00000140F20F62FEF771FB00BF756C43756F
:1038FC007272656E745072696F72697479203E3D94
:10390C002028282828352929203C3C202838202DFF
:10391C002034292929203E3E202838202D203429E6
:10392C00000000005F5F4E5649435F47657450725C
:10393C00696F7269747947726F7570696E6728293F
:10394C00203C3D202838202D203429202D203100EA
:10395C00B0B500B3D1B142F65C7E4FF0000C002341
:10396C00C2F2000E002200BF0EEB03046568A842F1
:10397C000DD022B92268002A18BF644622460833AB
:10398C00502BF1D1002A18BFC2E90010B0BD22465D
:10399C00C2E90010B0BD45F6716045F61F61C0F27A
:1039AC000000C0F2000140F6C932FEF70FFB70B503
:1039BC0015460E460446FFF744FE94F84400FF28D3
:1039CC0004BF002084F8440094F84500FF2804BF8D
:1039DC00002084F84500FFF75BFEA06B28B904F1CA
:1039EC00240031462A4600F061F82046BDE87040BC
:1039FC00FFF7C0B880B580B142F6CC61C2F20001CD
:103A0C000A6801320A600968012912D10021FEF707
:103A1C005BFE00F077FF00B180BD4EF60450CEF295
:103A2C0000004FF080510160BFF34F8FBFF36F8FD9
:103A3C0080BD45F6DC7045F6F771C0F20000C0F2AF
:103A4C00000140F68E12FEF7C1FA42F63871C2F24E
:103A5C0000010968016042F6E071C2F200010968D8
:103A6C004160704742F6EC70C2F200000121016027
:103A7C00704710B570B10C4640F22C61C2F20001D7
:103A8C0009681831FFF7C0FD20460121BDE8104040
:103A9C00FEF71ABE46F2560045F6F771C0F200006A
:103AAC00C0F200014FF4A452FEF790FAB0B538B34F
:103ABC000346D0E900C040F22C6EC2F2000EDEF8D4
:103ACC000040002AE0618468DEF800502C62DEF8C9
:103ADC00005005F118056560DEF800400CF1010599
:103AEC0004F118048460DEF80000836218BF4FF004
:103AFC00FF31084611461D60BDE8B040FEF7E4BD3D
:103B0C0046F2560045F6F771C0F20000C0F2000113
:103B1C0041F2BE42FEF75AFA80B586B044F24940F3
:103B2C00C4F24C50029042F6990042F62C7E4FF0B3
:103B3C00000CC0F2000002A98022C2F2000E002389
:103B4C008DF80CC0CDE900CE00F086FC012808BF32
:103B5C0000F0A4FF01280AD001301FD145F6F771FF
:103B6C0012A0C0F2000140F6A962FEF72FFA42F64D
:103B7C003471C2F200014FF0FF32012080F3108843
:103B8C000A6042F6AC71C2F20001086042F6E070C5
:103B9C00C2F200000021016000F068F846F26810E3
:103BAC00C0F20000006806B080BD00BF785265749A
:103BBC0075726E20213D2028202D31202900000017
:103BCC0042F6CC60C2F2000001680131016070471E
:103BDC0042F6CC60C2F20000006830B142F6EC70E4
:103BEC00C2F2000001210160704742F6EC70C2F293
:103BFC000000002142F6D46C0160C2F2000CDCF82B
:103C0C00001040F2446301EB8102C2F2000353F84E
:103C1C00220003EB820228B9B9B152F8140D013914
:103C2C000028F9D05068436802F1080083425360C1
:103C3C0001D1D3685360D86840F22C62C2F2000202
:103C4C001060CCF800101068704745F6F77103A0AF
:103C5C00C0F2000141F2FA32FEF7B8F97578546FF0
:103C6C00705072696F726974790000004EF62250C0
:103C7C00CEF20000F0210170FFF7ECFD4EF634702F
:103C8C00CEF20000016841F04041016062B6BFF322
:103C9C006F8FEFF3148C2CF0040C8CF31488BFF39F
:103CAC006F8F02DF00BEFDE710B548B10C468142B4
:103CBC0006D80021002200F011F800B1846310BD79
:103CCC0045F61F6103A0C0F2000140F29F32FEF7DF
:103CDC007DF900BF7848616E646C650070B5D8B131
:103CEC0004460D46A0FB0101B1B905FB04F010F12F
:103CFC00490F11D84830FEF777FF064650B13046D1
:103D0C00002D18BF4830306030460121C6E90F4500
:103D1C0000F012F8304670BD45F61F6103A0C0F2EA
:103D2C00000140F22A22FEF751F900BF70784E656F
:103D3C00775175657565000070B5002844D0044650
:103D4C00C06BC0B30E46216CA0FB010199BBFFF701
:103D5C0078FCD4E90F0122680025A56301FB002340
:103D6C00013800FB0120C4E90123E060FF2084F846
:103D7C00440084F8450004F110004EB1FFF736FC06
:103D8C0004F12400FFF732FCFFF782FC012070BD28
:103D9C0001680029F8D000F03CFD0028F4D04EF664
:103DAC000450CEF200004FF080510160BFF34F8FF2
:103DBC00BFF36F8FE8E745F61F6109A0C0F2000161
:103DCC004FF4B672FEF702F945F6706045F61F61C6
:103DDC00C0F20000C0F2000140F23712FEF7F6F814
:103DEC007852657475726E20213D20282028202879
:103DFC002042617365547970655F742029203020EE
:103E0C00292029002DE9F04F85B00028049200F0FC
:103E1C009D8099461546044619B9206C002840F03F
:103E2C00B980B9F1020F03D1E06B012840F0A680F4
:103E3C00019100F00DFC10B9002D40F09380FFF7BC
:103E4C0000FCA06BB9F1020F59D0E16B884256D33C
:103E5C0004F11007012002AE4FF0000A04AD00BFC0
:103E6C000499002966D0C0071CBF3046FFF7EDFD52
:103E7C00FFF70EFCFFF7A4FEFFF7E3FB94F84400FA
:103E8C00FF2808BF84F844A094F84500FF2808BF19
:103E9C0084F845A0FFF7FCFB3046294600F08EFA6B
:103EAC0000284AD1FFF7CDFBD4F838B0D4F83C80C9
:103EBC00FFF7EEFBC34515D104993846FFF7D9FD42
:103ECC002046FEF757FE00F01DFD80B94EF604505B
:103EDC00CEF200004FF080510160BFF34F8FBFF363
:103EEC006F8F04E02046FEF745FE00F00BFDFFF758
:103EFC00A8FBA06BE16B88424FF00000B0D2019997
:103F0C0020464A46FEF790FC54F8240F70B1204628
:103F1C0000F07FFC50B14EF60450CEF200004FF092
:103F2C0080510160BFF34F8FBFF36F8FFFF7B0FB72
:103F3C00012008E0FFF7ACFB04E02046FEF71AFE78
:103F4C0000F0E0FC002005B0BDE8F08F45F6706095
:103F5C0045F61F61C0F20000C0F2000140F2B6321B
:103F6C00FEF734F845F6534045F61F61C0F20000E9
:103F7C00C0F2000140F2BB32FEF728F845F6A6402D
:103F8C0045F61F61C0F20000C0F200014FF46E72E2
:103F9C00FEF71CF845F6435045F61F61C0F20000D1
:103FAC00C0F2000140F2B732FEF710F82DE9F047ED
:103FBC0000284AD01E46904605460F4611B9286C7B
:103FCC0000285AD1022E02D1E86B012849D1FFF703
:103FDC0065FC5020EFF3118980F31188022EA86B39
:103FEC0004D0E96B884201D300202AE095F94540C2
:103FFC00A86B2846394632465FFA84FAFEF714FC61
:10400C00BAF1FF0F0BD0FFF7DFFAA04218D9BAF1C3
:10401C007F0F3ED00AF1010085F8450010E055F8FD
:10402C00240F68B1284600F0F4FB0146B8F1000FEC
:10403C004FF0010018BF002903D0C8F8000000E0C1
:10404C00012089F31188BDE8F08745F6706045F6CC
:10405C001F61C0F20000C0F200014FF49262FDF744
:10406C00B5FF45F6A64045F61F61C0F20000C0F250
:10407C00000140F29242FDF7A9FF45F6435045F688
:10408C001F61C0F20000C0F2000140F29142FDF746
:10409C009DFF45F6D85045F61F61C0F20000C0F2F6
:1040AC00000140F21E52FDF791FF00002DE9F04F88
:1040BC0083B00028029200F0A2801646894604467E
:1040CC0019B9206C002840F0B28000F0C1FA10B988
:1040DC00002E40F0A080FFF7B4FAD4F838A0BAF163
:1040EC00000F28D0226C52B1D4E902011144E160D6
:1040FC00814224BF2168E1604846FBF7C1FF54F8B8
:10410C00100FAAF10101A16270B1204600F081FBF1
:10411C0050B14EF60450CEF200004FF080510160C9
:10412C00BFF34F8FBFF36F8F0124FFF7B1FA204617
:10413C0003B0BDE8F08F04F1240801206F464FF066
:10414C00000B02AE0299002955D0C0071CBF38469F
:10415C00FFF77BFCFFF79CFAFFF732FDFFF771FAD4
:10416C0094F84400FF2808BF84F844B094F8450044
:10417C00FF2808BF84F845B0FFF78AFA3846314665
:10418C0000F01CF960B12046FEF7F4FC00F0BAFB1D
:10419C00FFF757FAA56BFFF77BFA1DBB2DE000BFAD
:1041AC00FFF74FFAA56BFFF773FA2DB12046FEF718
:1041BC00E1FC00F0A7FB15E002994046FFF759FC23
:1041CC002046FEF7D7FC00F09DFB58B94EF6045084
:1041DC00CEF200004FF080510160BFF34F8FBFF360
:1041EC006F8F00BFFFF72DFAD4F838A00020BAF17A
:1041FC00000FA7D076E7002497E7002497E745F651
:10420C00FA5045F61F61C0F20000C0F2000140F206
:10421C00E952FDF7DBFE45F6534045F61F61C0F24F
:10422C000000C0F2000140F2F252FDF7CFFE45F65D
:10423C00F34045F61F61C0F20000C0F2000140F2ED
:10424C00ED52FDF7C3FE00002DE9F04F83B00028BE
:10425C00029100F08E800446006C002840F095809E
:10426C000D4600F0F5F910B9002D40F09A80FFF7DB
:10427C00E8F9A16BD1B154F8100F0139A16270B1FA
:10428C00204600F0C6FA50B14EF60450CEF20000B3
:10429C004FF080510160BFF34F8FBFF36F8F01243C
:1042AC00FFF7F6F9204603B0BDE8F08F4EF604593F
:1042BC0004F1240801206E464FF0000B02AFCEF241
:1042CC0000094FF0805A00BF029900294DD0C00759
:1042DC001CBF3046FFF7B9FBFFF7DAF9FFF770FCAC
:1042EC00FFF7AFF994F84400FF2808BF84F844B0F6
:1042FC0094F84500FF2808BF84F845B0FFF7C8F9CB
:10430C003046394600F05AF860B12046FEF732FCD0
:10431C0000F0F8FAFFF795F9A56BFFF7B9F9EDB9CD
:10432C0025E000BFFFF78DF9A56BFFF7B1F92DB1B3
:10433C002046FEF71FFC00F0E5FA0FE0029940461C
:10434C00FFF797FB2046FEF715FC00F0DBFA28B9C7
:10435C00C9F800A0BFF34F8FBFF36F8FFFF771F950
:10436C00A16B00200029AFD085E7002498E700243A
:10437C0098E745F6FA5045F61F61C0F20000C0F20E
:10438C00000140F28262FDF721FE45F6066045F61B
:10439C001F61C0F20000C0F2000140F28662FDF71E
:1043AC0015FE45F6534045F61F61C0F20000C0F201
:1043BC00000140F28B62FDF709FE000070B568B396
:1043CC000D46B9B30446FFF73CF942F6E07EC2F263
:1043DC00000EDEF8003029684A1C16D042F6387CF4
:1043EC00D4E90002C2F2000CDCF80060864201D075
:1043FC0093420CD29A1A914209D9881A2860DCF897
:10440C0000002060DEF800006060002402E0002064
:10441C0001242860FFF73CF9204670BD46F262008B
:10442C0045F6F771C0F20000C0F2000141F2A5524E
:10443C00FDF7CCFD45F6F77103A0C0F2000141F287
:10444C00A652FDF7C3FD00BF70785469636B7354BB
:10445C006F576169740000002DE9F04F81B08146FF
:10446C009000984615460F46FEF7BEFB002865D017
:10447C0006466020FEF7B8FB00285CD0DDF828A0CB
:10448C0060210446FBF715FE26636FB104F134007E
:10449C00002100BF7A5C42541AB10F2901F10101CD
:1044AC00F8D1002084F84300BAF1050F80F0BC80ED
:1044BC0006EB8500251D043820F007060B9F2846C7
:1044CC00C4F82CA0FFF79DF804F11800FFF799F839
:1044DC00CAF10500216BA06130464A46434624616F
:1044EC006462FEF7BFFC206007B13C60FFF7A9F8DF
:1044FC0042F6C460C2F20000016840F22C6B01313C
:10450C000160C2F2000BDBF8001042F6AC7A40F20C
:10451C004467C2F2000AC2F2000791B1DAF8000057
:10452C00002847D1DBF80000E16AC06A884298BFD6
:10453C00CBF800403EE03046FFF7D0F84FF0FF30AC
:10454C006FE0CBF800400068012833D1002600BF93
:10455C00B819FFF74BF81436642EF9D142F60078EF
:10456C00C2F200084046FFF741F842F61479C2F255
:10457C0000094846FFF73AF842F64870C2F20000CC
:10458C00FFF734F842F6CC70C2F20000FFF72EF8B9
:10459C0042F6B870C2F20000FFF728F840F234601F
:1045AC00C2F20000C0F8008040F23C60C2F2000091
:1045BC00C0F8009042F6D060C2F2000001680131F0
:1045CC00016042F6D461C2F20001E06A0A689042CE
:1045DC0088BF086000EB800007EB80014A686161CE
:1045EC009368C4E90223956057F820205D60511C44
:1045FC0047F82010FFF74CF8DAF8000080B1DBF830
:10460C000000E16AC06A88420AD24EF60450CEF22B
:10461C0000004FF080510160BFF34F8FBFF36F8FDD
:10462C00012001B0BDE8F08F45F6F77103A0C0F290
:10463C00000140F26472FDF7C9FC00BF757850723E
:10464C00696F72697479203C2028352900000000BC
:10465C0042F6AC70C2F20000006848B142F6CC6081
:10466C00C2F200000068B0FA80F0400940007047C8
:10467C000120704742F6E070C2F2000000687047FB
:10468C002DE9F04F81B042F6CC60C2F20000006818
:10469C0040B142F64470C2F2000001680131016081
:1046AC000020A7E042F6E070C2F20000016842F67A
:1046BC00347211F1010BC2F20002C0F800B021D328
:1046CC0040F23460C2F2000001680968002940F031
:1046DC00948040F23C63C2F2000301681F680760DB
:1046EC00196042F63871C2F200010B6801330B609D
:1046FC000168096819B10068C068006801E04FF0F2
:10470C00FF3010601068834501D200206AE040F24F
:10471C00346AC2F2000ADAF80000006800285DD0A2
:10472C0042F6D46940F2446E40F22C68C2F20009A1
:10473C00C2F2000EC2F20008002000BFDAF800102E
:10474C00C968CE68374657F8045FAB4541D3D6E904
:10475C00023571694A689D60BA426B6008BF4D6052
:10476C000A68B56A013A0A607DB1D6E90721D5F825
:10477C0004C006F118039C4591604A6008BF69604B
:10478C00296800220139B2622960F56AD9F8001053
:10479C008D4288BFC9F8005005EB85010EEB8102F4
:1047AC00536872619C68C6E902349F605EF82130E0
:1047BC0067605A1C4EF82120D8F80010C96ADAF844
:1047CC0000208D4288BF012011680029B6D14FF01E
:1047DC00FF3542F63472C2F2000202E04FF0FF35B0
:1047EC000020156042F6EC71C2F200010968002944
:1047FC0018BF012001B0BDE8F08F45F6786045F692
:10480C00F771C0F20000C0F2000141F25F22FDF727
:10481C00DDFBB0B5C068C068002867D0D0E90713CD
:10482C00826A00F1180CD2F804E08B60E6455960FE
:10483C0008BF5360136800218162591E116042F653
:10484C00CC61C2F20001096889B142F64871C2F22A
:10485C000001D1E9002381629D68C0E90735C3F8E6
:10486C0008C0531CC26AC5F804C00B602DE0D0E927
:10487C000213426900F1040CD2F804E08B60E645A7
:10488C00596008BF5360116842F6D4630139116056
:10489C00C2F20003C26A196840F2446E8A4288BFB1
:1048AC001A6002EB8201C2F2000E0EEB81035C680F
:1048BC004361A568C0E90245C5F804C05EF8215003
:1048CC00C4F808C0681C4EF8210040F22C60C2F2FB
:1048DC0000000068C06A824291BF002042F6EC7171
:1048EC00C2F20001012088BF0860B0BD45F69D7082
:1048FC0045F6F771C0F20000C0F2000141F2F5423A
:10490C00FDF764FB2DE9F04F81B0FEF79AFE42F6FD
:10491C00CC60C2F200000168002900F0A880016898
:10492C0001390160006830B10024FEF7B1FE204669
:10493C0001B0BDE8F08F42F6C460C2F2000000681E
:10494C000028F1D042F6487BC2F2000BDBF80010D5
:10495C0042F6EC7940F22C680029C2F20009C2F24E
:10496C0000085FD042F6D46A40F244634FF0000E68
:10497C00C2F2000AC2F200034FF0010CDBF80C701B
:10498C00FC68A76AD4E90756796804F118029142C9
:10499C00AE60756008BF7E603968C4F828E00139E4
:1049AC003960261D6769D4E902157A68B2428D60B8
:1049BC00696008BF7D60396801393960E76ADAF8E7
:1049CC0000108F4288BFCAF8007007EB870103EB19
:1049DC00810255686261A868C4E90250466053F8C8
:1049EC002100AE60013043F82100D8F80000C06A05
:1049FC00874288BFC9F800C0DBF800000028BDD191
:104A0C0040F23460C2F200000168096819B1006814
:104A1C00C068006801E04FF0FF3042F63471C2F21A
:104A2C000001086042F64474C2F20004266856B1D4
:104A3C00012700BFFFF724FE08B1C9F80070013E42
:104A4C00F8D100202060D9F8000000283FF46CAFAA
:104A5C00D8F800004EF60450CEF200004FF0805112
:104A6C000160BFF34F8FBFF36F8F01245DE745F6F5
:104A7C00F77103A0C0F2000140F68B72FDF7A6FAA5
:104A8C0075785363686564756C657253757370657E
:104A9C006E64656420213D203055000080B582B0E5
:104AAC00FDF764FE42F6E470C2F20000006898B1B3
:104ABC0042F6D91042F6E87E4FF0030CC0F200002B
:104ACC000AA18022C2F2000E0023CDE900CEFFF72E
:104ADC00C3FC08B102B080BD46F27A0105A0C0F259
:104AEC0000014FF4A372FDF771FA00BF546D7220F0
:104AFC00537663007852657475726E000FB4084B70
:104B0C0010B504A902AA039800F0CEF8044602A935
:104B1C00002000F060FC204610BC5DF814FB000087
:104B2C00E35300002DE9FF5F82B00021DDE9043082
:104B3C00020DDDF840B0034318D044F61050A2F239
:104B4C00FF3242431514119801281FD0A5EB0B001E
:104B5C00401C5FEA000A4FF000064E4FDFF8389118
:104B6C00B046504615D5CAF1000413E01198012443
:104B7C004AA3012801D16FEA0B010298119AC0E9EE
:104B8C000031C0E9024206B0BDE8F09FCBF1000055
:104B9C00DFE704460021404A491842EB0450CDE9B6
:104BAC00001012E0E00707D032463B46404649462B
:104BBC00FBF791FA8046894632463B461046194629
:104BCC00FBF789FA06460F466410002CEAD1DDE9A2
:104BDC000401DDE90023BAF1000F06DAFBF77BFADA
:104BEC0042464B46FBF777FA05E0FBF744FC42469E
:104BFC004B46FBF740FC04460E460022284BFBF7C5
:104C0C00C1FC03D84FF0FF30014607E00022254BD2
:104C1C0020463146FBF788FBFBF79CFC102409E08F
:104C2C00002C0ADB0A220023FBF7F0FA039B30323C
:104C3C001A55641E50EA0102F2D1641C039AC4F1A5
:104C4C0011031444119A012A03D0012208430DD1F7
:104C5C000AE0084304D000204FF0110B119072E7CA
:104C6C00A3EB0B056D1E0DE05B4504DD4FF0000260
:104C7C0005F1010504E003DA4FF00002A5F101058E
:104C8C00002AECD002981199C0E90231C0E9004524
:104C9C0079E70000000014400000F03F30000000F5
:104CAC000000F0430000E03F2DE9FF4F95B09B461C
:104CBC008946064600250FE2252877D10024274691
:104CCC00F84A0121059400E0044316F8013F203B0B
:104CDC0001FA03F01042F7D130782A2811D06FF086
:104CEC002F033078A0F13002092A16D8059A44F027
:104CFC00020402EB820203EB42021044761C059084
:104D0C00EFE759F8042B0592002A03DA504244F4D9
:104D1C000054059044F00204761C30782E2816D1ED
:104D2C0016F8010F44F004042A280DD06FF02F025E
:104D3C003078A0F13003092B09D807EB870302EB7D
:104D4C004303C718761CF3E759F8047B761C3078BC
:104D5C006C280FD006DC4C2817D068280DD06A2898
:104D6C0014D104E0742810D07A280FD10DE044F44B
:104D7C0000140AE044F4801401E044F44014727806
:104D8C00824202D104F58014761C761C3078662899
:104D9C000BD013DC582877D009DC002875D04528B7
:104DAC00F6D04628F4D047281AD19DE118E06328A4
:104DBC0035D0642879D0652812D195E1702873D04C
:104DCC0008DC6728F1D069286FD06E280DD06F28C9
:104DDC0006D1B5E073282CD0752875D0782874D0FE
:104DEC005A46179990476D1C75E1C4F3025002287E
:104DFC0009D003280DD0D9F8001004280DD00D606F
:104E0C0009F1040967E1D9F80010EA17C1E9005269
:104E1C00F6E7D9F800100D80F2E70D70F0E719F8FD
:104E2C00041B8DF8001000208DF80100EA460120CB
:104E3C0003E059F804AB4FF0FF3061074FF000016D
:104E4C0002D40DE008F101018846B9420FDA804521
:104E5C00F8DB1AF808100029F4D108E008F1010178
:104E6C0088468142FADB1AF808100029F6D1059819
:104E7C005B46A0EB080721463846179A00F094FAD7
:104E8C00284400EB080507E04DE029E10DE01AF895
:104E9C00010B5A4617999047B8F10108F7D25B46B7
:104EAC0021463846179A13E142E00A220092C4F3D5
:104EBC0002524FF0000A022A08D059F804CB032AF8
:104ECC004FEAEC710AD00DE029E02AE009F1070164
:104EDC0021F00702F2E802C1914609E00FFA8CFCBE
:104EEC004FEAEC71042A03D14FFA8CFC4FEAEC71B7
:104EFC00002907DA0A460021DCF1000C61EB020103
:104F0C002D2202E0220504D52B228DF8042001224B
:104F1C0003E0E20701D02022F7E7904659E00A218E
:104F2C0002E010220DE010214FF0000A00910BE07E
:104F3C0010224FF0000A44F004040827009203E00A
:104F4C0008224FF0000A0092C4F30252022A05D044
:104F5C0059F804CB0021032A08D009E009F1070114
:104F6C0021F00702F2E802C1914605E01FFA8CFC21
:104F7C00042A01D10CF0FF0C4FF00008220728D5B1
:104F8C00702806D0009B83F0100353EA0A0305D067
:104F9C000EE040228DF80420012208E05CEA0102B8
:104FAC0006D030228DF804208DF8050002229046A0
:104FBC00009B83F0080353EA0A030AD15CEA01025E
:104FCC0001D1620705D530228DF804204FF001087D
:104FDC007F1E582804D034A003900EA802900DE038
:104FEC0036A0F9E753466046009AFBF70FF9844662
:104FFC000398825C0298401E029002705CEA0100E9
:10500C00F0D1029806A9081A00F1200A600702D50F
:10501C0024F4803400E00127574502DDA7EB0A0099
:10502C0000E0002000EB0A01009005984144401A72
:10503C000590E00306D45B462146179A059800F0CC
:10504C00B3F90544002706E001A85A46C05D17993C
:10505C0090476D1C7F1C4745F6DBE0030CD55B4687
:10506C002146179A059800F09FF9054404E030207A
:10507C005A46179990476D1C0099481E00900029BC
:10508C00F5DC08E0029802995A460078491C029116
:10509C00179990476D1CBAF10001AAF1010AF1DCD5
:1050AC0065E10000092801003031323334353637E0
:1050BC003839616263646566000000003031323358
:1050CC0034353637383941424344454600000000F8
:1050DC0000F058F90544761C307800287FF4ECADCC
:1050EC0019B02846BDE8F08F620700D4062709F1F5
:1050FC00070222F0070CFCE80223E14603F000480B
:10510C005FEA080C02D00FF2702C0DE05FEA045C31
:10511C0002D50FF2682C07E05FEAC47C02D00FF2D4
:10512C00602C01E0AFF2700C4FF0FF3823F000431D
:10513C00CDF850C065280CD006DC452809D046288F
:10514C001DD047283DD13DE0662818D067287ED178
:10515C0038E00021112F01DB112000E0781CCDE993
:10516C00000106A90EA8FFF7DDFCDDE90F010E9A80
:10517C0003910021009207F1010A04914DE04FF0D8
:10518C0000400097CDE9011006A90EA8FFF7CAFC54
:10519C00DDE90F0203920E9B11990022DDF80CA0A1
:1051AC000093049211B9791C00EB010AB7EB0A00C9
:1051BC0004D4C0F1FF3007F1010A0490AAEB0700F8
:1051CC00019044E0012F00DA01270021112F01DDAD
:1051DC00112000E03846CDE9000106A90EA8FFF722
:1051EC00A1FCDDE90F010E9A0391002104910092BC
:1051FC00BA4621070CD40399514500DA8A46BAF114
:10520C00010F05DD009AAAF10101515C302908D08B
:10521C00B84202DA10F1040F06DA0121CDE90110CF
:10522C0015E0AAF10101E9E7002805DC0499014425
:10523C000491AAEB000102E0411C514500DD8A46B5
:10524C000499401A401C01904FF000400290200736
:10525C0004D40198504501DBCDF8048000208DF872
:10526C004F0002980DF14F07B0F1004F25D02B20C5
:10527C000E9002984FF0020800280CDA404202907F
:10528C002D200E9007E00A210298FAF7A9FF303181
:10529C00029007F8011DB8F10001A8F10108F2DC39
:1052AC0002980028EFD1791E0E980870307800F023
:1052BC00200040F0450007F8020D12A8C01B00F1B9
:1052CC0007081498007800B1012000EB0A0101983E
:1052DC0001EBE07105984144401A401E0590E00333
:1052EC0006D45B462146179A059800F05DF80544F4
:1052FC001498007818B15A46179990476D1CE00322
:10530C0024D55B462146179A059800F04DF80544C4
:10531C001CE00498002807DBDDE90301884203DD6B
:10532C000098405C179901E0179930205A46904735
:10533C00049805F10105401C04900198401E019051
:10534C0004D12E205A46179990476D1CBAF10001D2
:10535C00AAF1010ADDDC05E017F8010B5A46179992
:10536C0090476D1CB8F10001A8F10108F4DC5B4614
:10537C002146179A0598ABE62D0000002B00000083
:10538C00200000002DE9F041044600251E4617467A
:10539C00880404D405E039462020B0476D1C641EF7
:1053AC00F9D52846BDE8F0812DE9F04104460025E9
:1053BC001E469046C80301D5302700E020278804FC
:1053CC0004D505E041463846B0476D1C641EF9D53E
:1053DC002846BDE8F0810A68531C0B6010707047BA
:1053EC0000000000000000000000000000000000B1
:1053FC0000000068000000680000006000010C085C
:10540C00000000680000006800000070000109083E
:10541C00000000680000006800000008000102089D
:10542C000000006800000068740000000001010822
:10543C0034000020340000200000006000010C0348
:10544C00340000203400002000000070000109032B
:10545C00340000203400002000000008000002038B
:10546C00340000204C0000207400000000000103F8
:10547C00000000000200000000000000000000001E
:10548C000F0000000C000000DFFFFFFF0000000019
:10549C0008FF00001920000000000000AC540000C0
:1054AC0000000000010000003F0000003F00000071
:1054BC00000000000000000000000000DFFFFFFF04
:1054CC00DFFFFFFFFFFF00000E00000000000000E8
:1054DC0000000000000000000000000000180000A8
:1054EC0010000000F85400000000000000800000D4
:1054FC00010000000080000002000000008000009D
:10550C000300000000000100080100000000010081
:10551C00000300000000010401030000000001046E
:10552C00020300000404000000040000050C00004D
:10553C0005040000050400000E0400000000010535
:10554C000105000000000105020500000000010536
:10555C000D060000000001050E060000000001030E
:10556C000007000000000103020700000400000017
:10557C006C61000008000000FC53000002000000F9
:10558C00EC580000AA010000AB010000AC010000C7
:10559C00AD0100009E0100009F010000A001000071
:1055AC00A10100008C0100008D0100008E010000A3
:1055BC008F010000600100000100020008001000D3
:1055CC00200000000200000024F400000500000090
:1055DC00127A000005FF0000DFFFFFFF0000000053
:1055EC0000000000F4550000010000000000000065
:1055FC00000000000000000000000000000000009F
:10560C00000000000000000000000000000000008E
:10561C00000000000000000000000000FFFFFFFF82
:10562C00FFFF0000DFFFFFFFDFFFFFFFDFFFFFFFDC
:10563C00DFFFFFFFDFFFFFFFDFFFFFFF00000000CA
:10564C00000000000000000000000000000000004E
:10565C00000000000000000000000000000000003E
:10566C0000000000000000000200000024F4000014
:10567C0005000000127A000006FF0000DFFFFFFFAC
:10568C00000000000000000098560000010000001F
:10569C0000000000000000000000000000000000FE
:1056AC0000000000000000000000000000000000EE
:1056BC0000000000000000000000000000000000DE
:1056CC00FFFFFFFFFFFF0000DFFFFFFFDFFFFFFF1C
:1056DC00DFFFFFFFDFFFFFFFDFFFFFFFDFFFFFFF4E
:1056EC0000000000000000000000000000000000AE
:1056FC00000000000000000000000000000000009E
:10570C000000000000000000000000003400002039
:10571C00205700000C0000008005002030570000CE
:10572C001C580000020000000200000000000000F5
:10573C00000000000C000000080000000C0000003D
:10574C00090000000C0000000A0000000C00000022
:10575C000B0000000000000000000000C934000035
:10576C000000000074570000000000000100000061
:10577C0000000000440000200F000000FFFF0000AC
:10578C00000000000000000000000000FFFF00000F
:10579C0000000000B4050020AC5700001C580000AD
:1057AC0007000000020000000000000000000000E4
:1057BC000C000000000000000C00000001000000C4
:1057CC000C000000020000000C00000003000000B0
:1057DC00000000000000000039350000000000004F
:1057EC00F057000000000000010000000000000065
:1057FC00480000200F000000FFFF00000000000028
:10580C000000000000000000FFFF0000000000008E
:10581C00B7170000F31A0000131B00008F160000CE
:10582C00AB1700006D160000F716000005170000FE
:10583C00FD1A00000F1B00000B1B000000000008ED
:10584C00000000080064000000640000000000007C
:10585C0090A1000110A2000110A2000190A2000171
:10586C0090A2000190A10001C0A1000140A2000182
:10587C0040A20001C0A20001C0A20001C0A1000111
:10588C0010A1000110A1000104A1000100A1000160
:10589C0080A1000104A2000100A2000184A2000169
:1058AC0080A2000180A10001E0A1000160A2000122
:1058BC0060A20001E0A10001000000680000006887
:1058CC00000000700000007000000060000000602C
:1058DC0000300020003000200000002000000000FC
:1058EC0000000068000000686000002060000020DC
:1058FC00616463302E63004653505F5355434345F8
:10590C0053533D3D657272004454432E630046531D
:10591C00505F53554343455353203D3D20657272B0
:10592C00002820282075696E74385F74202A20297D
:10593C002028207078426C6F636B2029203E3D201C
:10594C002628207563486561705B2030205D202916
:10595C002029202626202820282075696E74385F7F
:10596C0074202A20292028207078426C6F636B20C9
:10597C0029203C3D202628207563486561705B20FA
:10598C0028313032343029202D2031205D2029203F
:10599C0029002820282075696E74385F74202A200D
:1059AC002920282070784C696E6B2029203E3D20E0
:1059BC002628207563486561705B2030205D2029A6
:1059CC002029202626202820282075696E74385F0F
:1059DC0074202A202920282070784C696E6B20298D
:1059EC00203C3D202628207563486561705B20288B
:1059FC00313032343029202D2031205D20292029CE
:105A0C00002820282075696E74385F74202A20299C
:105A1C00202820707652657475726E2029203E3DC8
:105A2C00202628207563486561705B2030205D203E
:105A3C00292029202626202820282075696E7438D4
:105A4C005F74202A20292028207076526574757284
:105A5C006E2029203C3D2026282075634865617006
:105A6C005B2028313032343029202D2031205D202C
:105A7C00292029002820282075696E74385F74202D
:105A8C002A202920282070784974657261746F72FD
:105A9C002029203E3D202628207563486561705BD7
:105AAC002030205D2029202920262620282028206F
:105ABC0075696E74385F74202A202920282070782C
:105ACC004974657261746F722029203C3D20262830
